S0150000737761726D5F626F745F6370702E737265639F
S11300000C9434000C943C020C9438030C9451006E
S11300100C9451000C9451000C9451000C94510018
S11300200C9451000C94D5040C9451000C94510080
S11300300C9451000C94EF060C946E050C94510032
S11300400C9494060C9451000C9451000C9451009F
S11300500C9451000C9451000C9451000C945100D8
S11300600C9451000C94510011241FBECFEFD8E022
S1130070DEBFCDBF11E0A0E0B1E0ECE3FCE102C0E3
S113008005900D92A832B107D9F721E0A8E2B1E0BA
S113009001C01D92A239B207E1F70E9485070C94B2
S11300A01C0E0C940000CF93DF93FB01E9011A822C
S11300B01B821C821D82198218829F838E837987FA
S11300C068875B874A87BC016F5F7F4F8FEF9FE72D
S11300D00E9471097D876C879F012F5F3F4F032E1C
S11300E0000C440B550B6FEF7FEF8FEF9FE30E94E3
S11300F085092E873F87488B598BDF91CF910895CF
S1130100EF92FF920F931F93CF93DF938B01FA012A
S1130110861B970B248535852817390784F031957C
S113012021953109821793076CF026813781829FCC
S1130130E001839FD00D929FD00D112405C0CFEF15
S1130140DFE702C0C1E0D0E8092E000CAA0BBB0B0C
S113015042815381648175819A01AB01280F391F53
S11301604A1F5B1F86859785A089B18982179307EB
S1130170A407B5074CF482839383A483B5836FEFFC
S11301807FEF8FEF9FE31DC0B095A095909581956B
S11301909F4FAF4FBF4F281739074A075B074CF4EF
S11301A082839383A483B58361E070E080E090EC64
S11301B008C02283338344835583A085B1850E947C
S11301C0A40920813181201B310BA285B3852A9F8C
S11301D070012B9FF00C3A9FF00C112411830083C3
S11301E08E01DD0F220B330BAB01BC01400F511FFD
S11301F0621F731FC701FF0CAA0BBB0B480F591FCB
S11302006A1F7B1FDB01CA01772324F481589F4FA7
S1130210AF4FBF4F689416F8B595A79597958795F6
S11302201694D1F7813020E892072FEFA207B20786
S113023024F481E090E8AFEFBFEF811520E8920746
S1130240A105B10524F08FEF9FE7A0E0B0E0DF91B6
S1130250CF911F910F91FF90EF900895ECE7F0E09C
S113026080E48083AAE7B0E08C9187688C938081D6
S113027080830895ECE7F0E090818F70982B908351
S1130280EAE7F0E0808180648083808186FDFDCF91
S113029080917800909179000895813029F082301E
S11302A031F080E090E0089584E190E008958EE1DB
S11302B090E00895813049F40E9434042DEC3CEC24
S11302C048E151E40E9404090895823049F40E94EF
S11302D06A042DEC3CEC48E151E40E9404090895C1
S11302E060E070E080E89FEB0895813049F480E09D
S11302F090E00E94070680E090E00E941F060895A7
S1130300823041F480E090E00E94130680E090E0A7
S11303100E942E060895CF93DF93EB01209719F4E2
S11303200E94750132C0DD23D4F4813059F488274A
S11303309927861B970B0E94070680E090E00E9495
S11303401F0623C0823009F580E090E00E94130666
S1130350882799278C1B9D0B0E942E0616C01C16FD
S11303601D069CF4813041F480E090E00E94070671
S1130370CE010E941F0609C0823039F4CB010E94CD
S1130380130680E090E00E942E06CE01DF91CF910B
S1130390089528E231E040E450E066E270E080E055
S11303A092E00E94530078940895DF92EF92FF92B6
S11303B00F931F93CF93DF93182F0E944D01082FA3
S11303C0F92E812F0E945A010E940208E62ED72E90
S11303D048E251E0802F9F2D0E948000D82FC92F22
S11303E0682F792F812F0E948B01CF93DF93DF92A7
S11303F0EF92FF920F938AE191E09F938F930E9473
S11304003E0B8DB79EB708960FB6F8949EBF0FBEED
S11304108DBF8D2F9C2FDF91CF911F910F91FF9056
S1130420EF90DF90089580917F01882329F081E087
S11304300E94D50110927F0180917E01882329F0CA
S113044082E00E94D50110927E0180E090E0089540
S1130450E89AE9E6F0E080818360808378940895E7
S1130460E99AE9E6F0E0208134E0839FC001112499
S1130470822B8083789408951F920F920FB60F9267
S113048011242F923F924F925F926F927F928F929C
S11304909F92AF92BF92CF92DF92EF92FF920F930F
S11304A01F932F933F934F935F936F937F938F93F8
S11304B09F93AF93BF93CF93DF93EF93FF932091D9
S11304C04E0130914F014091500150915101609182
S11304D05201709153018091540190915501A0E013
S11304E00E94C109A9F40E944C06DC01CB0180934F
S11304F05E0190935F01A0936001B093610110923B
S113050062011092630110926401109265013EC071
S11305100E944C061B012C01A0905E01B0905F016B
S1130520C0906001D0906101E0906201F09063019D
S11305300091640110916501262F332D442D552D12
S113054060E070E080E090E00E94B80920936E01C2
S113055030936F0140937001509371016093720165
S113056070937301809374019093750120925E01DE
S113057030925F01409260015092610110926201D9
S11305801092630110926401109265014C9B27C084
S113059020914E0130914F014091500150915101F1
S11305A060915201709153018091540190915501D1
S11305B0A1E00E94AC0920934E0130934F01409377
S11305C050015093510160935201709353018093F1
S11305D054019093550181E080930B0126C0209132
S11305E04E0130914F014091500150915101609161
S11305F05201709153018091540190915501AFEFD4
S11306000E94AC0920934E0130934F014093500156
S1130610509351016093520170935301809354019C
S1130620909355018FEF80930B01FF91EF91DF9130
S1130630CF91BF91AF919F918F917F916F915F9176
S11306404F913F912F911F910F91FF90EF90DF9069
S1130650CF90BF90AF909F908F907F906F905F905E
S11306604F903F902F900F900FBE0F901F901895B2
S11306701F920F920FB60F9211242F923F924F9216
S11306805F926F927F928F929F92AF92BF92CF921E
S1130690DF92EF92FF920F931F932F933F934F9309
S11306A05F936F937F938F939F93AF93BF93CF93F6
S11306B0DF93EF93FF9320914601309147014091DE
S11306C048015091490160914A0170914B01809118
S11306D04C0190914D01A0E00E94C109A9F40E942F
S11306E04C06DC01CB018093560190935701A093F3
S11306F05801B093590110925A0110925B01109263
S11307005C0110925D013EC00E944C061B012C014D
S1130710A0905601B0905701C0905801D090590153
S1130720E0905A01F0905B0100915C0110915D0131
S1130730262F332D442D552D60E070E080E090E0AD
S11307400E94B809209366013093670140936801C1
S11307505093690160936A0170936B0180936C01FB
S113076090936D01209256013092570140925801A6
S11307705092590110925A0110925B0110925C013F
S113078010925D014F9B27C0209146013091470193
S1130790409148015091490160914A0170914B0187
S11307A080914C0190914D01A1E00E94AC092093ED
S11307B046013093470140934801509349016093A7
S11307C04A0170934B0180934C0190934D0181E059
S11307D080930A0126C0209146013091470140913F
S11307E048015091490160914A0170914B018091F7
S11307F04C0190914D01AFEF0E94AC09209346014A
S113080030934701409348015093490160934A0152
S113081070934B0180934C0190934D018FEF809323
S11308200A01FF91EF91DF91CF91BF91AF919F9119
S11308308F917F916F915F914F913F912F911F9174
S11308400F91FF90EF90DF90CF90BF90AF909F906B
S11308508F907F906F905F904F903F902F900F906C
S11308600FBE0F901F901895CF92DF92EF92FF92D8
S1130870CF93C0910B0120916E0130916F01409193
S113088070015091710160917201709173018091B6
S11308907401909175010E9475089B01AC0160EC94
S11308A07FEE89E398E40E9490076B017C016C2F32
S11308B0CC0F770B880B990B0E943A089B01AC0173
S11308C0C701B6010E940409CF91FF90EF90DF9019
S11308D0CF900895CF92DF92EF92FF92CF93C09181
S11308E00A0120916601309167014091680150919D
S11308F0690160916A0170916B0180916C01909122
S11309006D010E9475089B01AC0160EC7FEE89E3E8
S113091098E40E9490076B017C016C2FCC0F770B3D
S1130920880B990B0E943A089B01AC01C701B601E0
S11309300E940409CF91FF90EF90DF90CF9008952B
S11309400F931F93CF93DF93623071054CF1EC0149
S11309508B010150110960E070E0AA81BB819B0109
S1130960772384F048815981A417B50758F4FE0110
S1130970538342832150310928F052914291A417A4
S1130980B507B0F3F9013196EE0FFF1FE80FF91F19
S1130990B183A0836F5F7F4F229660177107E9F6DA
S11309A0DF91CF911F910F9108951F920F920FB66F
S11309B00F921124EF92FF920F931F932F933F9363
S11309C04F935F936F937F938F939F93AF93BF9353
S11309D0CF93DF93EF93FF9380E00E943A01885C0A
S11309E091098935924088F08FEF9FEF90934501EC
S11309F0809344010E94340460933E0170933F014C
S1130A0080934001909341014AC0809108019091E4
S1130A100901019659F40E94340460933E017093D5
S1130A203F01809340019093410139C08AE090E0F6
S1130A300E941D0A7C01EC018C01065F1F4F80E0BF
S1130A400E943A0189939993C017D107C1F765E0D1
S1130A5070E0C7010E94A004F701848195819093FE
S1130A604501809344016091440170914501809156
S1130A70080190910901681B790B80E090E00E94C5
S1130A80380820E030E048E551E40E94040960930E
S1130A903E0170933F018093400190934101809106
S1130AA04401909145019093090180930801FF91BD
S1130AB0EF91DF91CF91BF91AF919F918F917F91F2
S1130AC06F915F914F913F912F911F910F91FF90E3
S1130AD0EF900F900FBE0F901F9018951F920F92DA
S1130AE00FB60F921124EF92FF920F931F932F933F
S1130AF03F934F935F936F937F938F939F93AF93A2
S1130B00BF93CF93DF93EF93FF9381E00E943A0169
S1130B10885C91098935924088F08FEF9FEF90931C
S1130B204301809342010E94340460933A0170931C
S1130B303B0180933C0190933D014AC080910801A0
S1130B4090910901019659F40E946A0460933A0154
S1130B5070933B0180933C0190933D0139C08AE03E
S1130B6090E00E941D0A7C01EC018C01065F1F4F7E
S1130B7081E00E943A0189939993C017D107C1F784
S1130B8065E070E0C7010E94A004F70184819581AB
S1130B90909343018093420160914201709143011B
S1130BA08091060190910701681B790B80E090E029
S1130BB00E94380820E030E048E551E40E9404092E
S1130BC060933A0170933B0180933C0190933D0103
S1130BD08091420190914301909307018093060113
S1130BE0FF91EF91DF91CF91BF91AF919F918F9141
S1130BF07F916F915F914F913F912F911F910F9131
S1130C00FF90EF900F900FBE0F901F9018959923AF
S1130C1014F480E090E08F3F910519F014F08FEF09
S1130C2090E087BD0895992314F480E090E08F3F0D
S1130C30910519F014F08FEF90E088BD0895992381
S1130C4014F480E090E08F3F910519F014F08FEFD9
S1130C5090E080938900109288000895992314F4F9
S1130C6080E090E08F3F910519F014F08FEF90E051
S1130C7080938B0010928A00089584B5806A84BDA5
S1130C8084B5836084BD85B5816085BDEEE6F0E002
S1130C908081816080830895CF93DF93A89B26C0D1
S1130CA086B58F3F19F120917601309177014091FB
S1130CB078015091790160917A0170917B01809162
S1130CC07C0190917D01A1E00E94AC092093760102
S1130CD030937701409378015093790160937A01BE
S1130CE070937B0180937C0190937D0180917601C8
S1130CF090917701A0917801B0917901C0917A0126
S1130D00D0917B01E0917C01F0917D0126B5BA2F51
S1130D10A92F982F8827BC01CD01620F711D811D59
S1130D20911DDF91CF9108951F920F920FB60F92EC
S1130D3011242F933F934F935F936F937F938F93DC
S1130D409F93AF9320917601309177014091780180
S1130D505091790160917A0170917B0180917C01BD
S1130D6090917D01A1E00E94AC092093760130931B
S1130D707701409378015093790160937A017093DD
S1130D807B0180937C0190937D01AF919F918F9122
S1130D907F916F915F914F913F912F910F900FBE73
S1130DA00F901F901895E0E8F0E08081806A8083BE
S1130DB08081826080838FEF9FEF90938700809380
S1130DC08600E1E8F0E08081886180838081816031
S1130DD08083EFE6F0E080818160808308951F9234
S1130DE00F920FB60F9211242F933F934F935F935B
S1130DF06F937F938F939F93AF9320918001309152
S1130E00810140918201509183016091840170912C
S1130E1085018091860190918701A1E00E94AC092F
S1130E202093800130938101409382015093830188
S1130E306093840170938501809386019093870168
S1130E4081E080937F0180937E01AF919F918F9188
S1130E507F916F915F914F913F912F910F900FBEB2
S1130E600F901F9018951092B00080E88093B30003
S1130E70E1EBF0E0808187608083E0E7F0E080814F
S1130E80836080830895CF93C82F8A3019F48DE04E
S1130E900E944307E0ECF0E0808185FFFDCFC09322
S1130EA0C60080E090E0CF910895E0ECF0E080810E
S1130EB08823ECF78091C60090E008951092C50055
S1130EC08CE08093C40088E18093C10086E0809325
S1130ED0C200ECE8F1E08CE091E09383828391839B
S1130EE0808308950E945E070E942E010E94D3060B
S1130EF00E943D060E9433070E94C90183E00E94BC
S1130F00280283E00E9430020895F8940E94720738
S1130F108FEF84B983E68AB978940E941302FDCFD7
S1130F200E94A4070C94CA080E94C30858F00E94A7
S1130F30BC0840F029F45F3F29F00C94B308511128
S1130F400C94FE080C94B9080E94DB0868F39923FA
S1130F50B1F3552391F3951B550BBB27AA276217B1
S1130F607307840738F09F5F5F4F220F331F441FBE
S1130F70AA1FA9F335D00E2E3AF0E0E832D09150F2
S1130F805040E695001CCAF72BD0FE2F29D0660FDF
S1130F90771F881FBB1F261737074807AB07B0E822
S1130FA009F0BB0B802DBF01FF2793585F4F3AF028
S1130FB09E3F510578F00C94B3080C94FE085F3FF3
S1130FC0E4F3983ED4F3869577956795B795F795AE
S1130FD09F5FC9F7880F911D9695879597F9089596
S1130FE0E1E0660F771F881FBB1F62177307840732
S1130FF0BA0720F0621B730B840BBA0BEE1F88F741
S1131000E09508950E9409086894B1110C94FE08B3
S113101008950E94E30888F09F5798F0B92F992704
S1131020B751B0F0E1F0660F771F881F991F1AF0CF
S1131030BA95C9F714C0B13091F00E94FD08B1E02F
S113104008950C94FD08672F782F8827B85F39F02E
S1131050B93FCCF3869577956795B395D9F73EF468
S113106090958095709561957F4F8F4F9F4F089510
S1131070E89409C097FB3EF490958095709561952E
S11310807F4F8F4F9F4F9923A9F0F92F96E9BB27E4
S11310909395F695879577956795B795F111F8CF60
S11310A0FAF4BB0F11F460FF1BC06F5F7F4F8F4FCB
S11310B09F4F16C0882311F096E911C0772321F0C1
S11310C09EE8872F762F05C0662371F096E8862F59
S11310D070E060E02AF09A95660F771F881FDAF7B0
S11310E0880F9695879597F90895E894F92F96EBCC
S11310F0FF2381F0121613061406440B9395F695FC
S113110087957795679557954040FF23B9F71BC09E
S113111099270895882351F49850D2F7872B762F76
S1131120652F542F432F322F20E0B1F312161306EC
S11311301406440B88233AF09A95440F551F661FF2
S1131140771F881FCAF755234AF4440F551F11F41B
S113115060FF04C06F5F7F4F8F4F9F4F880F96953E
S1131160879597F9089597F99F6780E870E060E0A4
S113117008959FEF80EC089500240A94161617062C
S113118018060906089500240A9412161306140674
S113119005060895092E0394000C11F4882352F0D7
S11311A0BB0F40F4BF2B11F460FF04C06F5F7F4F8F
S11311B08F4F9F4F089557FD9058440F551F59F076
S11311C05F3F71F04795880F97FB991F61F09F3F30
S11311D079F087950895121613061406551FF2CF59
S11311E04695F1DF08C0161617061806991FF1CFA9
S11311F086957105610508940895E894BB276627D0
S11312007727CB0197F908950E9417090C94CA080F
S11312100E94BC0838F00E94C30820F0952311F006
S11312200C94B3080C94B90811240C94FE080E9481
S1131230DB0870F3959FC1F3950F50E0551F629F33
S1131240F001729FBB27F00DB11D639FAA27F00D1B
S1131250B11DAA1F649F6627B00DA11D661F829F42
S11312602227B00DA11D621F739FB00DA11D621F27
S1131270839FA00D611D221F749F3327A00D611D44
S1131280231F849F600D211D822F762F6A2F112426
S11312909F5750409AF0F1F088234AF0EE0FFF1F59
S11312A0BB1F661F771F881F91505040A9F79E3FB0
S11312B0510580F00C94B3080C94FE085F3FE4F3EE
S11312C0983ED4F3869577956795B795F795E79506
S11312D09F5FC1F7FE2B880F911D9695879597F90F
S11312E0089597FB072E16F4009407D077FD09D0D4
S11312F00E94CD0907FC05D03EF4909581959F4F3F
S11313000895709561957F4F0895052E97FB1EF4FF
S113131000940E949C0957FD07D00E94E10907FC34
S113132003D04EF40C949C0950954095309521952A
S11313303F4F4F4F5F4F08959095809570956195FD
S11313407F4F8F4F9F4F0895B7FF0C94030A0E945D
S1131350030A821B930B08950024A7FD00942A0F0F
S1131360301D401D501D601D701D801D901D089571
S11313702A193B094C095D096E097F09800B910B01
S113138008950024A7FD00942A1730054005500550
S113139060057005800590050895AA1BBB1B51E1EB
S11313A007C0AA1FBB1FA617B70710F0A61BB70BD1
S11313B0881F991F5A95A9F780959095BC01CD0176
S11313C00895A1E21A2EAA1BBB1BFD010DC0AA1F82
S11313D0BB1FEE1FFF1FA217B307E407F50720F09A
S11313E0A21BB30BE40BF50B661F771F881F991F15
S11313F01A9469F760957095809590959B01AC015E
S1131400BD01CF0108950E940E0AA59F900DB49FBF
S1131410900DA49F800D911D11240895A29FB001E9
S1131420B39FC001A39F700D811D1124911DB29F14
S1131430700D811D1124911D08950F931F93CF9357
S1131440DF938230910510F482E090E0E0918A010C
S1131450F0918B0120E030E0A0E0B0E0309719F18A
S1131460408151810281138148175907C8F08417BC
S1131470950769F4109731F012960C93129713960E
S11314801C9327C000938A0110938B0122C021155D
S1131490310519F04217530718F49A01BD01EF0101
S11314A0DF01F801DBCF21153105F9F0281B390BD9
S11314B02430310580F48A819B816115710521F006
S11314C0FB019383828304C090938B0180938A01F0
S11314D0FE01329644C0FE01E20FF31F8193919303
S11314E022503109398328833AC0209188013091F0
S11314F08901232B41F4209102013091030130939F
S11315008901209388012091000130910101211566
S1131510310541F42DB73EB74091040150910501C6
S1131520241B350BE0918801F0918901E217F30740
S1131530A0F42E1B3F0B2817390778F0AC014E5F3F
S11315405F4F2417350748F04E0F5F1F50938901F2
S1131550409388018193919302C0E0E0F0E0CF01D1
S1131560DF91CF911F910F910895CF93DF9300974F
S113157009F481C0FC01329713821282A0918A017E
S1131580B0918B01109781F420813181820F931FD8
S113159020918801309189012817390751F5F0937A
S11315A08901E093880167C0ED0120E030E0CE17A7
S11315B0DF0740F44A815B819E0141155105F1F03A
S11315C0EA01F5CFD383C28340815181840F951FF3
S11315D0C817D90759F488819981840F951F0296F9
S11315E0918380838A819B81938382832115310532
S11315F029F4F0938B01E0938A013DC0E901FB8358
S1131600EA8349915991C40FD51FEC17FD0761F482
S113161080819181840F951F0296E90199838883C3
S1131620828193819B838A83E0E0F0E012968D911E
S11316309C911397009719F0FD01DC01F7CF8D9170
S11316409C9111979D012E5F3F4F820F931F209114
S11316508801309189012817390769F4309729F4F2
S113166010928B0110928A0102C013821282B093ED
S11316708901A0938801DF91CF910895A0E0B0E0A3
S1131680E4E4FBE00C94F50DAE014B5F5F4FFA010F
S113169061917191AF0180918E0190918F010E94AF
S11316A0540BE2E00C94110EABE0B0E0EAE5FBE091
S11316B00C94E50D6C017B018A01FC0117821682F2
S11316C0838181FFCCC1CE0101963C01F601938157
S11316D0F70193FD859193FF81917F01882309F49C
S11316E0BAC1853239F493FD859193FF81917F01CD
S11316F0853229F4B60190E00E944B0DE7CF912C7E
S1131700212C312CFFE1F315D8F08B3279F038F429
S1131710803279F08332A1F4232D20611DC08D32F3
S113172061F0803369F4232D216016C0832D82601B
S1131730382EE32DE4603E2E2AC0F32DF8601DC040
S113174037FC2DC020ED280F2A3040F08E32B9F43A
S113175036FC81C1232D2064322E19C036FE06C00A
S11317608AE0989E200D1124922E11C0EAE02E9E4C
S1131770200D1124222EF32DF0623F2E08C08C364A
S113178021F4832D8068382E02C0883641F4F70195
S113179093FD859193FF81917F018111B3CF982FA0
S11317A09F7D9554933028F40C5F1F4F9FE39983DA
S11317B00DC0833631F0833771F0833509F059C099
S11317C021C0F801808189830E5F1F4F8824839490
S11317D0912C530113C02801F2E04F0E511CF80163
S11317E0A080B18036FE03C0692D70E002C06FEFA7
S11317F07FEFC5010E94400D4C018201F32DFF775C
S11318003F2E16C0280122E0420E511CF801A08090
S1131810B18036FE03C0692D70E002C06FEF7FEF28
S1131820C5010E94350D4C01F32DF0683F2E820155
S113183033FC1BC0822D90E088169906B0F4B601E3
S113184080E290E00E944B0D2A94F4CFF50137FC1E
S1131850859137FE81915F01B60190E00E944B0DA6
S113186021102A9421E0821A91088114910471F7BD
S1131870E8C0843611F0893641F5F80137FE07C017
S113188060817181828193810C5F1F4F08C06081E8
S11318907181072E000C880B990B0E5F1F4FF32DDF
S11318A0FF763F2E97FF09C09095809570956195BE
S11318B07F4F8F4F9F4FF0683F2E2AE030E0A30107
S11318C00E94870D882E861845C0853731F4232D54
S11318D02F7EB22E2AE030E025C0932D997FB92EB9
S11318E08F36C1F018F4883579F0B5C0803719F017
S11318F0883721F0B0C0E92FE061BE2EB4FE0DC0E0
S1131900FB2DF460BF2E09C034FE0AC0292F2660C7
S1131910B22E06C028E030E005C020E130E002C06D
S113192020E132E0F801B7FE07C060817181828155
S113193093810C5F1F4F06C06081718180E090E04D
S11319400E5F1F4FA3010E94870D882E8618FB2D62
S1131950FF773F2E36FE0DC0232D2E7FA22E891435
S113196058F434FE0BC032FC09C0832D8E7EA82EA1
S113197005C0B82CA32C03C0B82C01C0B92CA4FEFC
S11319800FC0FE01E80DF11D8081803321F49A2DF2
S1131990997EA92E09C0A2FE06C0B394B39404C0D4
S11319A08A2D867809F0B394A3FC11C0A0FE06C06A
S11319B0B21488F4280C922C9B180EC0B21460F454
S11319C0B60180E290E00E944B0DB394F7CFB214BD
S11319D018F42B1802C0982C212CA4FE10C0B601B8
S11319E080E390E00E944B0DA2FE17C0A1FC03C04F
S11319F088E790E002C088E590E0B6010CC08A2D2B
S1131A00867859F0A1FE02C08BE201C080E2A7FCF7
S1131A108DE2B60190E00E944B0D891438F4B601B2
S1131A2080E390E00E944B0D9A94F7CF8A94F301DF
S1131A30E80DF11D8081B60190E00E944B0D8110EC
S1131A40F5CF222009F442CEB60180E290E00E9454
S1131A504B0D2A94F6CFF6018681978102C08FEF51
S1131A609FEF2B96E2E10C94010EFC01059061506E
S1131A7070400110D8F7809590958E0F9F1F0895A0
S1131A80FC016150704001900110D8F78095909549
S1131A908E0F9F1F08950F931F93CF93DF93FB0126
S1131AA0238121FD03C08FEF9FEF2CC022FF16C0BE
S1131AB046815781248135814217530744F4A0811C
S1131AC0B1819D012F5F3F4F318320838C93268109
S1131AD037812F5F3F4F3783268314C08B01EC017E
S1131AE0FB010084F185E02D0995892BE1F6D801ED
S1131AF016968D919C911797019617969C938E93A9
S1131B001697CE01DF91CF911F910F910895FA019D
S1131B10AA27283051F1203181F1E8946F936E7F28
S1131B206E5F7F4F8F4F9F4FAF4FB1E03ED0B4E019
S1131B303CD0670F781F891F9A1FA11D680F791F5A
S1131B408A1F911DA11D6A0F711D811D911DA11D6B
S1131B5020D009F468943F912AE0269F112430197B
S1131B60305D3193DEF6CF010895462F4770405D16
S1131B704193B3E00FD0C9F7F6CF462F4F70405DC5
S1131B804A3318F0495D31FD4052419302D0A9F720
S1131B90EACFB4E0A6959795879577956795BA951A
S1131BA0C9F700976105710508959B01AC010A2EE0
S1131BB006945795479537952795BA95C9F7620FB7
S1131BC0731F841F951FA01D08952F923F924F925B
S1131BD05F926F927F928F929F92AF92BF92CF92B9
S1131BE0DF92EF92FF920F931F93CF93DF93CDB7C2
S1131BF0DEB7CA1BDB0B0FB6F894DEBF0FBECDBF3A
S1131C0009942A88398848885F846E847D848C840A
S1131C109B84AA84B984C884DF80EE80FD800C8113
S1131C201B81AA81B981CE0FD11D0FB6F894DEBFF6
S10F1C300FBECDBFED010895F894FFCF66
S1131C3C000092012000FFFFFFFF010100000003E0
S1131C4C000000004307550700002564202D2025C3
S10B1C5C64202D2025640A0018
S9030000FC
