S0150000737761726D5F626F745F6370702E737265639F
S11300000C9434000C9472000C946E010C94510006
S11300100C9451000C9451000C9451000C949403D2
S11300200C9451000C940B030C9451000C9451004B
S11300300C9451000C94FF040C9451000C94510046
S11300400C94A3040C9451000C9451000C94510092
S11300500C9451000C9451000C9451000C945100D8
S11300600C9451000C94510011241FBECFEFD8E022
S1130070DEBFCDBF11E0A0E0B1E0E6E3F7E102C0EE
S113008005900D92AE31B107D9F721E0AEE1B1E0B0
S113009001C01D92A637B207E1F70E948D050C94AA
S11300A0990B0C940000ECE7F0E080E48083AAE76D
S11300B0B0E08C9187688C93808180830895ECE70D
S11300C0F0E090818F70982B9083EAE7F0E08081D4
S11300D080648083808186FDFDCF8091780090913B
S11300E0790008951F920F920FB60F9211242F9248
S11300F03F924F925F926F927F928F929F92AF92B4
S1130100BF92CF92DF92EF92FF920F931F932F93A0
S11301103F934F935F936F937F938F939F93AF938B
S1130120BF93CF93DF93EF93FF93209132013091EC
S11301303301409134015091350160913601709141
S113014037018091380190913901A0E00E948E0717
S1130150A9F40E943704DC01CB01809342019093FF
S11301604301A0934401B0934501109246011092BB
S1130170470110924801109249013EC00E94370481
S11301801B012C01A0904201B0904301C090440196
S1130190D0904501E0904601F0904701009148015C
S11301A010914901262F332D442D552D60E070E028
S11301B080E090E00E948507209352013093530120
S11301C04093540150935501609356017093570125
S11301D08093580190935901209242013092430137
S11301E040924401509245011092460110924701F9
S11301F010924801109249014C9B27C02091320172
S113020030913301409134015091350160913601B0
S1130210709137018091380190913901A1E00E94D9
S11302207907209332013093330140933401509382
S113023035016093360170933701809338019093B0
S1130240390181E080930B0126C020913201309165
S11302503301409134015091350160913601709120
S113026037018091380190913901AFEF0E947907ED
S1130270209332013093330140933401509335017C
S1130280609336017093370180933801909339015C
S11302908FEF80930B01FF91EF91DF91CF91BF918D
S11302A0AF919F918F917F916F915F914F913F910A
S11302B02F911F910F91FF90EF90DF90CF90BF90FF
S11302C0AF909F908F907F906F905F904F903F90F2
S11302D02F900F900FBE0F901F9018951F920F92A2
S11302E00FB60F9211242F923F924F925F926F920A
S11302F07F928F929F92AF92BF92CF92DF92EF92B2
S1130300FF920F931F932F933F934F935F936F939A
S11303107F938F939F93AF93BF93CF93DF93EF9389
S1130320FF9320912A0130912B0140912C0150918F
S11303302D0160912E0170912F01809130019091D7
S11303403101A0E00E948E07A9F40E943704DC0169
S1130350CB0180933A0190933B01A0933C01B0936D
S11303603D0110923E0110923F0110924001109203
S113037041013EC00E9437041B012C01A0903A01A8
S1130380B0903B01C0903C01D0903D01E0903E0113
S1130390F0903F010091400110914101262F332D2F
S11303A0442D552D60E070E080E090E00E948507C8
S11303B020934A0130934B0140934C0150934D01DB
S11303C060934E0170934F018093500190935101BB
S11303D020923A0130923B0140923C0150923D01FF
S11303E010923E0110923F0110924001109241017F
S11303F04F9B27C020912A0130912B0140912C0161
S113040050912D0160912E0170912F018091300146
S113041090913101A1E00E94790720932A01309341
S11304202B0140932C0150932D0160932E01709366
S11304302F01809330019093310181E080930A0170
S113044026C020912A0130912B0140912C0150911A
S11304502D0160912E0170912F01809130019091B6
S11304603101AFEF0E94790720932A0130932B01C9
S113047040932C0150932D0160932E0170932F0112
S113048080933001909331018FEF80930A01FF91A3
S1130490EF91DF91CF91BF91AF919F918F917F9118
S11304A06F915F914F913F912F911F910F91FF9009
S11304B0EF90DF90CF90BF90AF909F908F907F9000
S11304C06F905F904F903F902F900F900FBE0F90C2
S11304D01F901895CF92DF92EF92FF92CF93C09125
S11304E00B012091520130915301409154015091DC
S11304F05501609156017091570180915801909176
S113050059010E945B069B01AC0160EC7FEE89E31C
S113051098E40E94AC056B017C016C2FCC0F770B27
S1130520880B990B0E9420069B01AC01C701B60100
S11305300E94EA06CF91FF90EF90DF90CF9008954C
S1130540CF92DF92EF92FF92CF93C0910A01209154
S11305504A0130914B0140914C0150914D01609101
S11305604E0170914F0180915001909151010E9470
S11305705B069B01AC0160EC7FEE89E398E40E948A
S1130580AC056B017C016C2FCC0F770B880B990B9E
S11305900E9420069B01AC01C701B6010E94EA0635
S11305A0CF91FF90EF90DF90CF9008950F931F931A
S11305B0CF93DF93623071054CF1EC018B01015054
S11305C0110960E070E0AA81BB819B01772384F06C
S11305D048815981A417B50758F4FE015383428317
S11305E02150310928F052914291A417B507B0F374
S11305F0F9013196EE0FFF1FE80FF91FB183A083B5
S11306006F5F7F4F229660177107E9F6DF91CF91F4
S11306101F910F9108951F920F920FB60F921124FC
S1130620EF92FF920F931F932F933F934F935F93F8
S11306306F937F938F939F93AF93BF93CF93DF93E6
S1130640EF93FF9380E00E945F00885C91098935F5
S1130650924038F08FEF9FEF909329018093280107
S113066044C08091080190910901019659F40E94B7
S11306706A02609322017093230180932401909372
S1130680250133C08AE090E00E949A077C01EC01C6
S11306908C01065F1F4F80E00E945F00899399934D
S11306A0C017D107C1F765E070E0C7010E94D60208
S11306B0F7018481958190932901809328016091A9
S11306C02801709129018091080190910901681B0A
S11306D0790B80E090E00E941E06609322017093E3
S11306E02301809324019093250180912801909106
S11306F029019093090180930801FF91EF91DF9103
S1130700CF91BF91AF919F918F917F916F915F91A5
S11307104F913F912F911F910F91FF90EF900F9068
S11307200FBE0F901F9018951F920F920FB60F9245
S11307301124EF92FF920F931F932F933F934F93A4
S11307405F936F937F938F939F93AF93BF93CF9355
S1130750DF93EF93FF9381E00E945F00885C91092F
S11307608935924088F08FEF9FEF90932701809313
S113077026010E946A0260931E0170931F018093F8
S113078020019093210144C08091080190910901B6
S1130790019659F40E94A00260931E0170931F01F8
S11307A0809320019093210133C08AE090E00E945D
S11307B09A077C01EC018C01065F1F4F81E00E94C7
S11307C05F0089939993C017D107C1F765E070E082
S11307D0C7010E94D602F701848195819093270175
S11307E08093260160912601709127018091060172
S11307F090910701681B790B80E090E00E941E062F
S113080060931E0170931F01809320019093210136
S1130810809126019091270190930701809306010E
S1130820FF91EF91DF91CF91BF91AF919F918F9104
S11308307F916F915F914F913F912F911F910F91F4
S1130840FF90EF900F900FBE0F901F90189584B5F6
S1130850806A84BD84B5836084BD85B5846085BDAC
S1130860EEE6F0E080818160808378940895AF9211
S1130870BF92CF92DF92EF92FF920F931F93A89BA8
S113088026C086B58F3F19F120915A0130915B0142
S113089040915C0150915D0160915E0170915F0136
S11308A08091600190916101A1E00E9479072093F9
S11308B05A0130935B0140935C0150935D01609356
S11308C05E0170935F018093600190936101A6B40F
S11308D020915A0130915B0140915C0150915D017E
S11308E060915E0170915F0180916001909161015E
S11308F008E00E945707B12CC12CD12CE12CF12C1B
S113090000E010E00E947007822F932FA42FB52FD0
S1130910880F991FAA1FBB1F880F991FAA1FBB1FEF
S1130920BC01CD01660F771F881F991F660F771FC3
S1130930881F991F1F910F91FF90EF90DF90CF9028
S1130940BF90AF9008951F920F920FB60F9211248B
S11309502F933F934F935F936F937F938F939F93C3
S1130960AF9320915A0130915B0140915C01509109
S11309705D0160915E0170915F01809160019091D1
S11309806101A1E00E94790720935A0130935B0131
S113099040935C0150935D0160935E0170935F012D
S11309A08093600190936101AF919F918F917F91AA
S11309B06F915F914F913F912F910F900FBE0F90C8
S11309C01F901895E0E8F0E08081806A8083808140
S11309D0826080838FEF9FEF9093870080938600DF
S11309E0E1E8F0E080818861808380818160808398
S11309F0EFE6F0E0808181608083789408951F920F
S1130A000F920FB60F9211242F933F934F935F933E
S1130A106F937F938F939F93AF9320916401309151
S1130A206501409166015091670160916801709180
S1130A30690180916A0190916B01A1E00E9479079C
S1130A4020936401309365014093660150936701DC
S1130A50609368017093690180936A0190936B01BC
S1130A6081E08093630180936201AF919F918F91A4
S1130A707F916F915F914F913F912F910F900FBE96
S1130A800F901F9018951092B00080E88093B300E7
S1130A90E1EBF0E0808187608083E0E7F0E0808133
S1130AA0836080830895CF93C82F8A3019F48DE032
S1130AB00E945305E0ECF0E0808185FFFDCFC093F8
S1130AC0C60080E090E0CF910895E0ECF0E08081F2
S1130AD08823ECF78091C60090E008951092C50039
S1130AE080E18093C40088E18093C10086E0809314
S1130AF0C200E0E7F1E08CE091E09383828391838C
S1130B00808308950E946E050E9453000E94E204AF
S1130B100E9427040E94430508950E9482058FEFD6
S1130B2084B983E68AB9CAE1D1E082E00E945F0019
S1130B309F938F93DF93CF930E94BB089FEF23ED86
S1130B4080E3915020408040E1F700C000000F9006
S1130B500F900F900F90E9CF0E94C0050C94B0063F
S1130B600E94A90658F00E94A20640F029F45F3FB3
S1130B7029F00C94990651110C94E4060C949F06E8
S1130B800E94C10668F39923B1F3552391F3951B91
S1130B90550BBB27AA2762177307840738F09F5F9A
S1130BA05F4F220F331F441FAA1FA9F335D00E2E07
S1130BB03AF0E0E832D091505040E695001CCAF774
S1130BC02BD0FE2F29D0660F771F881FBB1F261737
S1130BD037074807AB07B0E809F0BB0B802DBF010E
S1130BE0FF2793585F4F3AF09E3F510578F00C94DD
S1130BF099060C94E4065F3FE4F3983ED4F386959B
S1130C0077956795B795F7959F5FC9F7880F911DFD
S1130C109695879597F90895E1E0660F771F881FE9
S1130C20BB1F621773078407BA0720F0621B730B9C
S1130C30840BBA0BEE1F88F7E0950895E89409C079
S1130C4097FB3EF490958095709561957F4F8F4FFB
S1130C509F4F9923A9F0F92F96E9BB279395F69511
S1130C60879577956795B795F111F8CFFAF4BB0F8F
S1130C7011F460FF1BC06F5F7F4F8F4F9F4F16C0F3
S1130C80882311F096E911C0772321F09EE8872F7D
S1130C90762F05C0662371F096E8862F70E060E039
S1130CA02AF09A95660F771F881FDAF7880F9695B2
S1130CB0879597F90895E894F92F96EBFF2381F02F
S1130CC0121613061406440B9395F695879577959B
S1130CD0679557954040FF23B9F71BC0992708959E
S1130CE0882351F49850D2F7872B762F652F542FF1
S1130CF0432F322F20E0B1F3121613061406440BCF
S1130D0088233AF09A95440F551F661F771F881F52
S1130D10CAF755234AF4440F551F11F460FF04C069
S1130D206F5F7F4F8F4F9F4F880F9695879597F9E9
S1130D30089597F99F6780E870E060E008959FEF59
S1130D4080EC089500240A9416161706180609065E
S1130D50089500240A94121613061406050608952D
S1130D60092E0394000C11F4882352F0BB0F40F4B5
S1130D70BF2B11F460FF04C06F5F7F4F8F4F9F4FF5
S1130D80089557FD9058440F551F59F05F3F71F077
S1130D904795880F97FB991F61F09F3F79F08795DE
S1130DA00895121613061406551FF2CF4695F1DF67
S1130DB008C0161617061806991FF1CF86957105F7
S1130DC0610508940895E894BB2766277727CB012B
S1130DD097F908950E94FD060C94B0060E94A2069D
S1130DE038F00E94A90620F0952311F00C9499067E
S1130DF00C949F0611240C94E4060E94C10670F31F
S1130E00959FC1F3950F50E0551F629FF001729FAB
S1130E10BB27F00DB11D639FAA27F00DB11DAA1FBA
S1130E20649F6627B00DA11D661F829F2227B00D07
S1130E30A11D621F739FB00DA11D621F839FA00D92
S1130E40611D221F749F3327A00D611D231F849FE2
S1130E50600D211D822F762F6A2F11249F57504039
S1130E609AF0F1F088234AF0EE0FFF1FBB1F661FB4
S1130E70771F881F91505040A9F79E3F510580F07D
S1130E800C9499060C94E4065F3FE4F3983ED4F383
S1130E90869577956795B795F795E7959F5FC1F721
S1130EA0FE2B880F911D9695879597F908950F93BA
S1130EB0083090F0982F872F762F652F542F432FCB
S1130EC0322F22270850F4CF220F331F441F551FFF
S1130ED0661F771F881F991F0A95B2F70F9108950F
S1130EE02A0D3B1D4C1D5D1D6E1D7F1D801F911F16
S1130EF008950024A7FD00942A0F301D401D501DA5
S1130F00601D701D801D901D08952A193B094C0910
S1130F105D096E097F09800B910B08950024A7FDDC
S1130F2000942A17300540055005600570058005BA
S1130F30900508950F931F93CF93DF93823091050B
S1130F4010F482E090E0E0916E01F0916F0120E0F6
S1130F5030E0A0E0B0E0309719F140815181028186
S1130F60138148175907C8F08417950769F4109737
S1130F7031F012960C93129713961C9327C000938A
S1130F806E0110936F0122C02115310519F042172B
S1130F90530718F49A01BD01EF01DF01F801DBCF1B
S1130FA021153105F9F0281B390B2430310580F463
S1130FB08A819B816115710521F0FB0193838283F2
S1130FC004C090936F0180936E01FE01329644C079
S1130FD0FE01E20FF31F819391932250310939836B
S1130FE028833AC020916C0130916D01232B41F488
S1130FF0209102013091030130936D0120936C0123
S113100020910001309101012115310541F42DB7E2
S11310103EB74091040150910501241B350BE0912A
S11310206C01F0916D01E217F307A0F42E1B3F0B46
S11310302817390778F0AC014E5F5F4F2417350746
S113104048F04E0F5F1F50936D0140936C018193E4
S1131050919302C0E0E0F0E0CF01DF91CF911F91C6
S11310600F910895CF93DF93009709F481C0FC0199
S1131070329713821282A0916E01B0916F01109782
S113108081F420813181820F931F20916C01309172
S11310906D012817390751F5F0936D01E0936C0148
S11310A067C0ED0120E030E0CE17DF0740F44A814D
S11310B05B819E0141155105F1F0EA01F5CFD3831F
S11310C0C28340815181840F951FC817D90759F4F1
S11310D088819981840F951F0296918380838A81E8
S11310E09B81938382832115310529F4F0936F0149
S11310F0E0936E013DC0E901FB83EA834991599174
S1131100C40FD51FEC17FD0761F480819181840F12
S1131110951F0296E90199838883828193819B8339
S11311208A83E0E0F0E012968D919C9113970097EA
S113113019F0FD01DC01F7CF8D919C9111979D0170
S11311402E5F3F4F820F931F20916C0130916D01F0
S11311502817390769F4309729F410926F01109217
S11311606E0102C013821282B0936D01A0936C01D0
S1131170DF91CF910895A0E0B0E0E1ECF8E00C94A9
S1131180720BAE014B5F5F4FFA0161917191AF0138
S113119080917201909173010E94D108E2E00C9455
S11311A08E0BABE0B0E0E7EDF8E00C94620B6C0161
S11311B07B018A01FC0117821682838181FFCCC1E5
S11311C0CE0101963C01F6019381F70193FD8591CF
S11311D093FF81917F01882309F4BAC1853239F4E0
S11311E093FD859193FF81917F01853229F4B601A6
S11311F090E00E94C80AE7CF912C212C312CFFE10A
S1131200F315D8F08B3279F038F4803279F08332E8
S1131210A1F4232D20611DC08D3261F0803369F467
S1131220232D216016C0832D8260382EE32DE460C7
S11312303E2E2AC0F32DF8601DC037FC2DC020EDD2
S1131240280F2A3040F08E32B9F436FC81C1232DA8
S11312502064322E19C036FE06C08AE0989E200D06
S11312601124922E11C0EAE02E9E200D1124222E6C
S1131270F32DF0623F2E08C08C3621F4832D806854
S1131280382E02C0883641F4F70193FD859193FF0F
S113129081917F018111B3CF982F9F7D9554933015
S11312A028F40C5F1F4F9FE399830DC0833631F000
S11312B0833771F0833509F059C021C0F80180816A
S11312C089830E5F1F4F88248394912C530113C08C
S11312D02801F2E04F0E511CF801A080B18036FEC7
S11312E003C0692D70E002C06FEF7FEFC5010E945B
S11312F0BD0A4C018201F32DFF773F2E16C0280151
S113130022E0420E511CF801A080B18036FE03C0D9
S1131310692D70E002C06FEF7FEFC5010E94B20A31
S11313204C01F32DF0683F2E820133FC1BC0822D4B
S113133090E088169906B0F4B60180E290E00E942D
S1131340C80A2A94F4CFF50137FC859137FE8191C0
S11313505F01B60190E00E94C80A21102A9421E09E
S1131360821A91088114910471F7E8C0843611F04F
S1131370893641F5F80137FE07C0608171818281A9
S113138093810C5F1F4F08C060817181072E000C90
S1131390880B990B0E5F1F4FF32DFF763F2E97FF9F
S11313A009C090958095709561957F4F8F4F9F4FA1
S11313B0F0683F2E2AE030E0A3010E94040B882E3F
S11313C0861845C0853731F4232D2F7EB22E2AE0AE
S11313D030E025C0932D997FB92E8F36C1F018F4D3
S11313E0883579F0B5C0803719F0883721F0B0C05E
S11313F0E92FE061BE2EB4FE0DC0FB2DF460BF2EBC
S113140009C034FE0AC0292F2660B22E06C028E087
S113141030E005C020E130E002C020E132E0F80114
S1131420B7FE07C060817181828193810C5F1F4F79
S113143006C06081718180E090E00E5F1F4FA301C0
S11314400E94040B882E8618FB2DFF773F2E36FE54
S11314500DC0232D2E7FA22E891458F434FE0BC008
S113146032FC09C0832D8E7EA82E05C0B82CA32C77
S113147003C0B82C01C0B92CA4FE0FC0FE01E80DB6
S1131480F11D8081803321F49A2D997EA92E09C003
S1131490A2FE06C0B394B39404C08A2D867809F0E2
S11314A0B394A3FC11C0A0FE06C0B21488F4280CA7
S11314B0922C9B180EC0B21460F4B60180E290E046
S11314C00E94C80AB394F7CFB21418F42B1802C0C0
S11314D0982C212CA4FE10C0B60180E390E00E9459
S11314E0C80AA2FE17C0A1FC03C088E790E002C0AE
S11314F088E590E0B6010CC08A2D867859F0A1FEEB
S113150002C08BE201C080E2A7FC8DE2B60190E04C
S11315100E94C80A891438F4B60180E390E00E945E
S1131520C80A9A94F7CF8A94F301E80DF11D8081DB
S1131530B60190E00E94C80A8110F5CF222009F478
S113154042CEB60180E290E00E94C80A2A94F6CF07
S1131550F6018681978102C08FEF9FEF2B96E2E11F
S11315600C947E0BFC010590615070400110D8F77B
S1131570809590958E0F9F1F0895FC0161507040D7
S113158001900110D8F7809590958E0F9F1F0895B4
S11315900F931F93CF93DF93FB01238121FD03C09E
S11315A08FEF9FEF2CC022FF16C046815781248104
S11315B035814217530744F4A081B1819D012F5F07
S11315C03F4F318320838C93268137812F5F3F4F98
S11315D03783268314C08B01EC01FB010084F18561
S11315E0E02D0995892BE1F6D80116968D919C91F1
S11315F01797019617969C938E931697CE01DF91B9
S1131600CF911F910F910895FA01AA27283051F123
S1131610203181F1E8946F936E7F6E5F7F4F8F4F1F
S11316209F4FAF4FB1E03ED0B4E03CD0670F781F7E
S1131630891F9A1FA11D680F791F8A1F911DA11D63
S11316406A0F711D811D911DA11D20D009F468949C
S11316503F912AE0269F11243019305D3193DEF644
S1131660CF010895462F4770405D4193B3E00FD0FA
S1131670C9F7F6CF462F4F70405D4A3318F0495DE5
S113168031FD4052419302D0A9F7EACFB4E0A695C8
S11316909795879577956795BA95C9F700976105EA
S11316A0710508959B01AC010A2E06945795479540
S11316B037952795BA95C9F7620F731F841F951F35
S11316C0A01D08952F923F924F925F926F927F9246
S11316D08F929F92AF92BF92CF92DF92EF92FF923E
S11316E00F931F93CF93DF93CDB7DEB7CA1BDB0BEA
S11316F00FB6F894DEBF0FBECDBF09942A8839888F
S113170048885F846E847D848C849B84AA84B98495
S1131710C884DF80EE80FD800C811B81AA81B981A1
S1131720CE0FD11D0FB6F894DEBF0FBECDBFED01B5
S10917300895F894FFCFB8
S1131736000076012000FFFFFFFF01010000000307
S11117460000000053056505000025640A003C
S9030000FC
