S0150000737761726D5F626F745F6370702E737265639F
S11300000C94B5000C94CC010C94A0020C94D20076
S11300100C94D2000C94D2000C94D2000C949E0444
S11300200C94D2000C9415040C94D2000C94D200BD
S11300300C94D2000C943F060C94D2000C94D20081
S11300400C94E3050C94D2000C94D2000C94D200CE
S11300500C94D2000C94D2000C94D2000C94D200D4
S11300600C94D2000C94D2006E616E00696E66002E
S113007000407A10F35A00A0724E18090010A5D45B
S1130080E80000E87648170000E40B54020000CAB8
S11300909A3B000000E1F5050000809698000000FE
S11300A040420F000000A08601000000102700005D
S11300B00000E803000000006400000000000A00E3
S11300C0000000000100000000002C76D888DC67E6
S11300D04F0823DFC1DFAE59E1B1B796E5E3E4533E
S11300E0C63AE651997696E8E6C28426EB898C9B5B
S11300F062ED407C6FFCEFBC9C9F40F2BAA56FA5FB
S1130100F490055A2AF75C936B6CF9676DC11BFC7C
S1130110E0E40D47FEF520E6B500D0ED902E030097
S1130120943577050080841E080000204E0A0000E4
S113013000C80C333333330F986E12831141EF8DA3
S11301402114893BE65516CFFEE6DB18D1844B38E3
S11301501BF77C1D901DA4BBE424203284725E2214
S11301608100C9F124ECA1E53D2711241FBECFEF86
S1130170D8E0DEBFCDBF11E0A0E0B1E0E6E2F1E2FD
S113018002C005900D92A633B107D9F721E0A6E38A
S1130190B1E001C01D92A638B207E1F70E94020740
S11301A00C9491100C940000ECE7F0E080E4808360
S11301B0AAE7B0E08C9187688C938081808308954E
S11301C0ECE7F0E090818F70982B9083EAE7F0E001
S11301D0808180648083808186FDFDCF809178005A
S11301E0909179000895813049F480E090E00E9474
S11301F0310580E090E00E9449050895823041F481
S113020080E090E00E943D0580E090E00E94580567
S11302100895CF93DF93EB01209719F40E94F30024
S113022032C0DD23D4F4813059F488279927861B02
S1130230970B0E94310580E090E00E94490523C09D
S1130240823009F580E090E00E943D0588279927D7
S11302508C1B9D0B0E94580516C01C161D069CF491
S1130260813041F480E090E00E943105CE010E948B
S1130270490509C0823039F4CB010E943D0580E074
S113028090E00E945805CE01DF91CF910895E89A3D
S1130290E9E6F0E080818360808378940895E99AA8
S11302A0E9E6F0E080818C608083789408958F92F1
S11302B09F92AF92BF92CF92DF92EF92FF921F93E1
S11302C0CF93DF93CDB7DEB728970FB6F894DEBF90
S11302D00FBECDBFFC0180809180A280B380C4801A
S11302E0D580E680F780A7019601C501B4010E947C
S11302F065072AE037ED43E25CE30E940F09162FFD
S1130300462F572F682F792F49835A836B837C8319
S1130310A5019401C701B6010E9464072AEF3EE7D4
S11303204AEA5EE30E940F09E62F462F572F682FF3
S1130330792F4D835E836F837887212F3A814B8198
S11303405C816E2F7E818F81988528960FB6F894F4
S1130350DEBF0FBECDBFDF91CF911F91FF90EF9015
S1130360DF90CF90BF90AF909F908F900895CF93E0
S1130370DF93EC010E947403688379838A839B83EF
S11303800E94AA03DC01CB01B0588C839D83AE8309
S1130390BF83DF91CF9108951F920F920FB60F92F2
S11303A011242F923F924F925F926F927F928F927D
S11303B09F92AF92BF92CF92DF92EF92FF920F93F0
S11303C01F932F933F934F935F936F937F938F93D9
S11303D09F93AF93BF93CF93DF93EF93FF9380915A
S11303E0460190914701A0914801B0914901892BA0
S11303F08A2B8B2BA9F40E947705DC01CB01809317
S1130400520190935301A0935401B093550110925B
S113041056011092570110925801109259013EC092
S11304200E9477051B012C01A0905201B09053014A
S1130430C0905401D0905501E0905601F0905701BE
S11304400091580110915901262F332D442D552D1B
S113045060E070E080E090E00E94BD0D20936201B6
S11304603093630140936401509365016093660186
S113047070936701809368019093690120925201FF
S113048030925301409254015092550110925601FA
S11304901092570110925801109259014C9B17C0A9
S11304A08091460190914701A0914801B091490182
S11304B00196A11DB11D8093460190934701A0931D
S11304C04801B093490181E080930B0116C08091EB
S11304D0460190914701A0914801B09149010197CB
S11304E0A109B1098093460190934701A093480163
S11304F0B09349018FEF80930B01FF91EF91DF914E
S1130500CF91BF91AF919F918F917F916F915F91A7
S11305104F913F912F911F910F91FF90EF90DF909A
S1130520CF90BF90AF909F908F907F906F905F908F
S11305304F903F902F900F900FBE0F901F901895E3
S11305401F920F920FB60F9211242F923F924F9247
S11305505F926F927F928F929F92AF92BF92CF924F
S1130560DF92EF92FF920F931F932F933F934F933A
S11305705F936F937F938F939F93AF93BF93CF9327
S1130580DF93EF93FF938091420190914301A091F7
S11305904401B0914501892B8A2B8B2BA9F40E942D
S11305A07705DC01CB0180934A0190934B01A09322
S11305B04C01B0934D0110924E0110924F011092D4
S11305C05001109251013EC00E9477051B012C017D
S11305D0A0904A01B0904B01C0904C01D0904D01C5
S11305E0E0904E01F0904F010091500110915101A3
S11305F0262F332D442D552D60E070E080E090E0EF
S11306000E94BD0D20935A0130935B0140935C011D
S113061050935D0160935E0170935F01809360016C
S11306209093610120924A0130924B0140924C0117
S113063050924D0110924E0110924F0110925001B0
S1130640109251014F9B17C0809142019091430138
S1130650A0914401B09145010196A11DB11D809363
S1130660420190934301A0934401B093450181E07A
S113067080930A0116C08091420190914301A09198
S11306804401B09145010197A109B1098093420148
S113069090934301A0934401B09345018FEF80935D
S11306A00A01FF91EF91DF91CF91BF91AF919F919B
S11306B08F917F916F915F914F913F912F911F91F6
S11306C00F91FF90EF90DF90CF90BF90AF909F90ED
S11306D08F907F906F905F904F903F902F900F90EE
S11306E00FBE0F901F901895CF92DF92EF92FF925A
S11306F0CF93C0910B01209162013091630140912D
S11307006401509165016091660170916701809167
S11307106801909169010E9480089B01AC0160EC22
S11307207FEE89E398E40E94D1076B017C016C2F72
S1130730CC0F770B880B990B0E9445089B01AC01E9
S1130740C701B6010E940F09CF91FF90EF90DF908F
S1130750CF900895CF92DF92EF92FF92CF93C09102
S11307600A0120915A0130915B0140915C01509142
S11307705D0160915E0170915F01809160019091D3
S113078061010E9480089B01AC0160EC7FEE89E36B
S113079098E40E94D1076B017C016C2FCC0F770B7E
S11307A0880B990B0E9445089B01AC01C701B60157
S11307B00E940F09CF91FF90EF90DF90CF900895A2
S11307C00F931F93CF93DF93623071054CF1EC01CB
S11307D08B010150110960E070E0AA81BB819B018B
S11307E0772384F048815981A417B50758F4FE0192
S11307F0538342832150310928F052914291A41726
S1130800B507B0F3F9013196EE0FFF1FE80FF91F9A
S1130810B183A0836F5F7F4F229660177107E9F65B
S1130820DF91CF911F910F9108951F920F920FB6F0
S11308300F921124EF92FF920F931F932F933F93E4
S11308404F935F936F937F938F939F93AF93BF93D4
S1130850CF93DF93EF93FF9380E00E94E000885CE6
S113086091098935924038F08FEF9FEF90934101C1
S11308708093400144C08091080190910901019640
S113088059F40E94740360933A0170933B0180937E
S11308903C0190933D0133C08AE090E00E94D20D68
S11308A07C01EC018C01065F1F4F80E00E94E00098
S11308B089939993C017D107C1F765E070E0C70128
S11308C00E94E003F7018481958190934101809314
S11308D04001609140017091410180910801909123
S11308E00901681B790B80E090E00E944308609343
S11308F03A0170933B0180933C0190933D018091B8
S11309004001909141019093090180930801FF9166
S1130910EF91DF91CF91BF91AF919F918F917F9193
S11309206F915F914F913F912F911F910F91FF9084
S1130930EF900F900FBE0F901F9018951F920F927B
S11309400FB60F921124EF92FF920F931F932F93E0
S11309503F934F935F936F937F938F939F93AF9343
S1130960BF93CF93DF93EF93FF9381E00E94E00066
S1130970885C91098935924088F08FEF9FEF9093BE
S11309803F0180933E010E9474036093360170938B
S11309903701809338019093390144C08091080154
S11309A090910901019659F40E94AA0360933601BB
S11309B070933701809338019093390133C08AE0F2
S11309C090E00E94D20D7C01EC018C01065F1F4F68
S11309D081E00E94E00089939993C017D107C1F781
S11309E065E070E0C7010E94E003F701848195810E
S11309F090933F0180933E0160913E0170913F01CD
S1130A008091060190910701681B790B80E090E0CA
S1130A100E94430860933601709337018093380134
S1130A209093390180913E0190913F019093070189
S1130A3080930601FF91EF91DF91CF91BF91AF9128
S1130A409F918F917F916F915F914F913F912F91E2
S1130A501F910F91FF90EF900F900FBE0F901F907A
S1130A601895992314F480E090E08F3F910519F0D4
S1130A7014F08FEF90E087BD0895992314F480E07B
S1130A8090E08F3F910519F014F08FEF90E088BD4E
S1130A900895992314F480E090E08F3F910519F0B4
S1130AA014F08FEF90E080938900109288000895ED
S1130AB0992314F480E090E08F3F910519F014F02D
S1130AC08FEF90E080938B0010928A00089584B594
S1130AD0806A84BD84B5836084BD85B5846085BD2A
S1130AE0EEE6F0E080818160808378940895AF928F
S1130AF0BF92CF92DF92EF92FF920F931F93A89B26
S1130B0026C086B58F3F19F120916A0130916B019F
S1130B1040916C0150916D0160916E0170916F0173
S1130B208091700190917101A1E00E94B10D209318
S1130B306A0130936B0140936C0150936D01609393
S1130B406E0170936F018093700190937101A6B44C
S1130B5020916A0130916B0140916C0150916D01BB
S1130B6060916E0170916F0180917001909171019B
S1130B7008E00E948F0DB12CC12CD12CE12CF12C5A
S1130B8000E010E00E94A80D822F932FA42FB52F10
S1130B90880F991FAA1FBB1F880F991FAA1FBB1F6D
S1130BA0BC01CD01660F771F881F991F660F771F41
S1130BB0881F991F1F910F91FF90EF90DF90CF90A6
S1130BC0BF90AF9008951F920F920FB60F92112409
S1130BD02F933F934F935F936F937F938F939F9341
S1130BE0AF9320916A0130916B0140916C01509157
S1130BF06D0160916E0170916F018091700190910F
S1130C007101A1E00E94B10D20936A0130936B0140
S1130C1040936C0150936D0160936E0170936F016A
S1130C208093700190937101AF919F918F917F9107
S1130C306F915F914F913F912F910F900FBE0F9045
S1130C401F901895E0E8F0E08081806A80838081BD
S1130C50826080838FEF9FEF90938700809386005C
S1130C60E1E8F0E080818861808380818160808315
S1130C70EFE6F0E0808181608083789408951F928C
S1130C800F920FB60F921124AF92BF92CF92DF92C0
S1130C90EF92FF920F931F932F933F934F935F9382
S1130CA06F937F938F939F93AF93BF93EF93FF9330
S1130CB02091740130917501409176015091770132
S1130CC0609178017091790180917A0190917B0112
S1130CD0A1E00E94B10D20937401309375014093FB
S1130CE07601509377016093780170937901809332
S1130CF07A0190937B0181E0809373018093720168
S1130D0020917401309175014091760150917701E1
S1130D10609178017091790180917A0190917B01C1
S1130D200F2EF8E8AF2EF02D0F2EF9E0BF2EF02D88
S1130D30C12CD12CE12CF12C00E010E00E94F90C24
S1130D40A0E00E94C60D79F482E00E94E0009F9327
S1130D508F938AE191E09F938F930E941D100F90CF
S1130D600F900F900F90FF91EF91BF91AF919F91D2
S1130D708F917F916F915F914F913F912F911F912F
S1130D800F91FF90EF90DF90CF90BF90AF900F90B6
S1130D900FBE0F901F901895E0ECF0E0908195FF46
S1130DA0FDCF8093C60080E090E00895E0ECF0E091
S1130DB080818823ECF78091C60090E0089510921A
S1130DC0C50080E18093C40088E18093C10086E07F
S1130DD08093C200E0E8F1E08CE091E093838283A9
S1130DE09183808308950E94DF060E94D4000E94AC
S1130DF022060E94670583E00E94470183E00E9467
S1130E004F010895CF93DF93CDB7DEB760970FB648
S1130E10F894DEBF0FBECDBFF8940E94F3068FEFA7
S1130E2084B982E68AB919861A861B861C861D86B1
S1130E301E861F86188A78940F2EF9E2EF2EF1E0B1
S1130E40FF2EF02D00E311E068ED7FEF81E00E94BA
S1130E50090168E270E082E00E940901CE0109966E
S1130E600E94B701CE0109960E94570129833A8353
S1130E704B835C836D837E838F8398875F938B81A1
S1130E808F938A818F9389818F93FF92EF920E942F
S1130E901D1088858F938F818F938E818F938D8181
S1130EA08F931F930F930E941D102FEF81EE94E0F8
S1130EB0215080409040E1F700C000000FB6F89444
S1130EC0DEBF0FBECDBFC0CF5058BB27AA270E949C
S1130ED07C070C94D5080E94C70838F00E94CE08FD
S1130EE020F039F49F3F19F426F40C94C4080EF44E
S1130EF0E095E7FB0C94BE08E92F0E94E60858F33E
S1130F00BA17620773078407950720F079F4A6F5EA
S1130F100C9408090EF4E0950B2EBA2FA02D0B01AA
S1130F20B90190010C01CA01A0011124FF27591B2A
S1130F3099F0593F50F4503E68F11A16F040A22F30
S1130F40232F342F4427585FF3CF469537952795A1
S1130F50A795F0405395C9F77EF41F16BA0B620BA0
S1130F60730B840BBAF09150A1F0FF0FBB1F661FE7
S1130F70771F881FC2F70EC0BA0F621F731F841F2A
S1130F8048F4879577956795B795F7959E3F08F050
S1130F90B0CF9395880F08F09927EE0F9795879512
S1130FA008950E94E5070C94D5080E94CE0858F0D5
S1130FB00E94C70840F029F45F3F29F00C94BE0852
S1130FC051110C9409090C94C4080E94E60868F3B2
S1130FD09923B1F3552391F3951B550BBB27AA27EE
S1130FE062177307840738F09F5F5F4F220F331F28
S1130FF0441FAA1FA9F335D00E2E3AF0E0E832D0F0
S113100091505040E695001CCAF72BD0FE2F29D0F2
S1131010660F771F881FBB1F261737074807AB07C4
S1131020B0E809F0BB0B802DBF01FF2793585F4F39
S11310303AF09E3F510578F00C94BE080C940909CF
S11310405F3FE4F3983ED4F3869577956795B7951B
S1131050F7959F5FC9F7880F911D9695879597F926
S11310600895E1E0660F771F881FBB1F621773079F
S11310708407BA0720F0621B730B840BBA0BEE1FB4
S113108088F7E0950895E89409C097FB3EF490959D
S11310908095709561957F4F8F4F9F4F9923A9F04D
S11310A0F92F96E9BB279395F695879577956795DC
S11310B0B795F111F8CFFAF4BB0F11F460FF1BC020
S11310C06F5F7F4F8F4F9F4F16C0882311F096E9B3
S11310D011C0772321F09EE8872F762F05C0662361
S11310E071F096E8862F70E060E02AF09A95660F1A
S11310F0771F881FDAF7880F9695879597F90895D3
S1131100E894F92F96EBFF2381F0121613061406C8
S1131110440B9395F6958795779567955795404039
S1131120FF23B9F71BC099270895882351F49850D9
S1131130D2F7872B762F652F542F432F322F20E0A1
S1131140B1F3121613061406440B88233AF09A9549
S1131150440F551F661F771F881FCAF755234AF48B
S1131160440F551F11F460FF04C06F5F7F4F8F4F12
S11311709F4F880F9695879597F9089597F99F67DC
S113118080E870E060E008959FEF80EC089500240B
S11311900A941616170618060906089500240A94D8
S11311A012161306140605060895092E0394000C5E
S11311B011F4882352F0BB0F40F4BF2B11F460FFED
S11311C004C06F5F7F4F8F4F9F4F089557FD905816
S11311D0440F551F59F05F3F71F04795880F97FBF7
S11311E0991F61F09F3F79F08795089512161306B1
S11311F01406551FF2CF4695F1DF08C016161706E0
S11312001806991FF1CF8695710561050894089514
S1131210E894BB2766277727CB0197F908950E94A6
S113122022090C94D5080E94C70838F00E94CE0801
S113123020F0952311F00C94BE080C94C4081124DA
S11312400C9409090E94E60870F3959FC1F3950F69
S113125050E0551F629FF001729FBB27F00DB11D36
S1131260639FAA27F00DB11DAA1F649F6627B00DC6
S1131270A11D661F829F2227B00DA11D621F739FAF
S1131280B00DA11D621F839FA00D611D221F749FBD
S11312903327A00D611D231F849F600D211D822F04
S11312A0762F6A2F11249F5750409AF0F1F088232B
S11312B04AF0EE0FFF1FBB1F661F771F881F915058
S11312C05040A9F79E3F510580F00C94BE080C9441
S11312D009095F3FE4F3983ED4F3869577956795C3
S11312E0B795F795E7959F5FC1F7FE2B880F911D82
S11312F09695879597F90895A0E1B0E0E2E8F9E0C2
S11313000C94580D7C011B016A01FC0117821682A2
S1131310838181FF44C39E012F5F3F4F3901F70151
S11313209381F10193FD859193FF81911F0188239E
S113133009F431C3853239F493FD859193FF81918A
S11313401F01853239F4B70190E00E94E10F560184
S11313506501E5CF10E0512C912CFFE1F915D8F08F
S11313608B3279F038F4803279F08332A1F4F92D9C
S1131370F0612EC08D3261F0803369F4292D216033
S11313802DC0392D3260932E892D8460982E2AC069
S1131390E92DE86015C097FC2DC020ED280F2A30F8
S11313A088F496FE06C03AE0139F200D1124122FF4
S11313B019C08AE0589E200D1124522EE92DE062B6
S11313C09E2E10C08E3231F496FCE5C2F92DF064E5
S11313D09F2E08C08C3621F4292D2068922E02C03D
S11313E0883641F4F10193FD859193FF81911F01AA
S11313F08111B3CF9BEB980F933020F4992D90611A
S1131400805E07C09BE9980F933008F066C1992D60
S11314109F7E96FF16E09F73992E853619F490648B
S1131420992E08C0863621F4392F3068932E02C0D5
S11314301111115097FE07C01C3350F444244394F7
S1131440410E27E00BC0183038F027E017E005C044
S113145027E09CE3492E02C0212F412C560184E051
S1131460A80EB11CF6016081718182819381042DE3
S1131470A3010E94F30E6C01F981FC87F0FF02C006
S1131480F3FF06C091FC06C092FE06C000E205C050
S11314900DE203C00BE201C000E08C858C7019F0F2
S11314A001115AC29BC297FE10C04C0CFC85F4FF7C
S11314B004C08A81813309F44A94141474F528E031
S11314C0241578F588E0482E2CC096FC2AC0812F7C
S11314D090E08C159D059CF03CEFC3163FEFD306BE
S11314E074F0892D8068982E0AC0E2E0F0E0EC0FD9
S11314F0FD1FE10FF11D8081803319F4115011118A
S1131500F4CF97FE0EC044244394410E812F90E003
S1131510C816D9062CF41C1904C04424439401C0F1
S113152010E097FE06C01C141D0434F4C601019695
S113153005C085E090E002C081E090E001110196D1
S1131540112331F0212F30E02F5F3F4F820F931F83
S1131550252D30E08217930714F4581A01C0512C3A
S1131560892D897049F4552039F0B70180E290E063
S11315700E94E10F5A94F7CF002329F0B701802F7E
S113158090E00E94E10F93FC09C0552039F0B701A7
S113159080E390E00E94E10F5A94F7CF97FE4CC08D
S11315A04601D7FE02C0812C912CC60188199909E5
S11315B0F301E80FF91FFE87ED879601241931091D
S11315C0388B2F87012F10E01195019511093FEFFA
S11315D08316930629F4B7018EE290E00E94E10F8E
S11315E0C814D9044CF08F8598898815990524F47A
S11315F0ED85FE85818101C080E3F1E08F1A9108B9
S11316002D853E852F5F3F4F3E872D87801691069F
S11316102CF0B70190E00E94E10FD9CFC814D9048F
S113162041F49A81963320F4953319F43C8534FFC0
S113163081E3B70190E04EC08A81813319F09C8523
S11316409F7E9C87B70190E00E94E10F111105C0B5
S113165094FC18C085E690E017C0B7018EE290E0D4
S11316600E94E10F1E5F82E001E0080FF301E80F22
S1131670F11D8081B70190E00E94E10F802F0113DA
S1131680F3CFE6CF85E490E0B7010E94E10FD7FCE9
S113169006C0C114D10441F4EC85E4FF05C0D19423
S11316A0C194D1088DE201C08BE2B70190E00E94A1
S11316B0E10F80E32AE0C216D1042CF08F5FFAE038
S11316C0CF1AD108F7CFB70190E00E94E10FB7011C
S11316D0C601C0960E94E10F54C1833631F08337AE
S11316E079F0833509F056C020C0560132E0A30ECC
S11316F0B11CF6018081898301E010E0630112C00E
S11317005601F2E0AF0EB11CF601C080D18096FE06
S113171003C0612F70E002C06FEF7FEFC6010E942B
S1131720D60F8C01F92DFF7714C0560122E0A20ECA
S1131730B11CF601C080D18096FE03C0612F70E019
S113174002C06FEF7FEFC6010E94CB0F8C01F92D11
S1131750F0689F2EF3FD1AC0852D90E00817190735
S1131760A8F4B70180E290E00E94E10F5A94F4CF0C
S1131770F60197FC859197FE81916F01B70190E086
S11317800E94E10F51105A940150110901151105DD
S113179079F7F7C0843611F0893661F5560197FE62
S11317A009C024E0A20EB11CF6016081718182811E
S11317B093810AC0F2E0AF0EB11CF6016081718121
S11317C0072E000C880B990BF92DFF769F2E97FF9F
S11317D009C090958095709561957F4F8F4F9F4F6D
S11317E0F0689F2E2AE030E0A3010E943310C82E37
S11317F0C6183FC0092D853721F40F7E2AE030E05A
S11318001DC0097F8F3691F018F4883559F0C3C094
S1131810803719F0883711F0BEC0006104FF09C099
S1131820046007C094FE08C0066006C028E030E0EB
S113183005C020E130E002C020E132E0560107FF9C
S113184009C084E0A80EB11CF60160817181828117
S1131850938108C0F2E0AF0EB11CF6016081718182
S113186080E090E0A3010E943310C82EC6180F77C1
S1131870902E96FE0BC0092D0E7FC11650F494FED7
S11318800AC092FC08C0092D0E7E05C0DC2C092D6F
S113189003C0DC2C01C0D12E04FF0DC0FE01EC0DF1
S11318A0F11D8081803311F4097E09C002FF06C056
S11318B0D394D39404C0802F867809F0D39403FD85
S11318C011C000FF06C01C2DD51480F4150D1D1980
S11318D00DC0D51458F4B70180E290E00E94E10FE6
S11318E0D394F7CFD51410F45D1801C0512C04FF24
S11318F010C0B70180E390E00E94E10F02FF17C01F
S113190001FD03C088E790E002C088E590E0B701DC
S11319100CC0802F867859F001FF02C08BE201C011
S113192080E207FD8DE2B70190E00E94E10FC1164D
S113193038F4B70180E390E00E94E10F1150F7CF33
S1131940CA94F301EC0DF11D8081B70190E00E946F
S1131950E10FC110F5CF15C0F4E0F51560F584E092
S1131960581A93FE1FC0011127C02C8523FF2AC0DB
S113197008E610E0392D3071932EF801849181111D
S113198024C0552009F4E4CCB70180E290E00E9421
S1131990E10F5A94F6CFF7018681978126C08FEF25
S11319A09FEF23C0B70180E290E00E94E10F5A94B8
S11319B05110F8CFD8CF512CB701802F90E00E945E
S11319C0E10FD3CF0CE610E0D5CF91108052B701D0
S11319D090E00E94E10F0F5F1F4FCFCF23E025154A
S11319E010F483E0BDCF512CC0CF6096E2E10C949B
S11319F0740D689401C0E8948F929F92CF93DF9303
S1131A000E94070DDF91CF919F908F9008958824B5
S1131A109924F401E401B0E49F93AA279A158B0456
S1131A209C04ED05FE05CF05D007A10798F4AD2F62
S1131A30DC2FCF2FFE2FE92D982C892E982F872F5E
S1131A40762F652F542F432F322F2227B85031F78A
S1131A50BF9127C01B2EBF91BB27220F331F441FEA
S1131A60551F661F771F881F991F881C991CEE1F1E
S1131A70FF1FCC1FDD1FAA1FBB1F8A149B04EC058C
S1131A80FD05CE05DF05A007B10748F08A189B08BD
S1131A90EC09FD09CE09DF09A00BB10B21601A94F2
S1131AA0E1F62EF49401AF01BE01CD01000C0895BE
S1131AB02F923F924F925F926F927F928F929F925A
S1131AC0AF92BF92CF92DF92EF92FF920F931F9348
S1131AD0CF93DF93CDB7DEB7CA1BDB0B0FB6F894F9
S1131AE0DEBF0FBECDBF09942A88398848885F8439
S1131AF06E847D848C849B84AA84B984C884DF80AA
S1131B00EE80FD800C811B81AA81B981CE0FD11D8D
S1131B100FB6F894DEBF0FBECDBFED0108950F934D
S1131B20083090F0982F872F762F652F542F432F4E
S1131B30322F22270850F4CF220F331F441F551F82
S1131B40661F771F881F991F0A95B2F70F91089592
S1131B502A0D3B1D4C1D5D1D6E1D7F1D801F911F99
S1131B6008950024A7FD00942A0F301D401D501D28
S1131B70601D701D801D901D08952A193B094C0994
S1131B805D096E097F09800B910B08950024A7FD60
S1131B9000942A173005400550056005700580053E
S1131BA0900508950F931F93CF93DF93823091058F
S1131BB010F482E090E0E0917E01F0917F0120E05A
S1131BC030E0A0E0B0E0309719F14081518102810A
S1131BD0138148175907C8F08417950769F41097BB
S1131BE031F012960C93129713961C9327C000930E
S1131BF07E0110937F0122C02115310519F042178F
S1131C00530718F49A01BD01EF01DF01F801DBCF9E
S1131C1021153105F9F0281B390B2430310580F4E6
S1131C208A819B816115710521F0FB019383828375
S1131C3004C090937F0180937E01FE01329644C0DC
S1131C40FE01E20FF31F81939193225031093983EE
S1131C5028833AC020917C0130917D01232B41F4EB
S1131C60209102013091030130937D0120937C0186
S1131C7020910001309101012115310541F42DB766
S1131C803EB74091040150910501241B350BE091AE
S1131C907C01F0917D01E217F307A0F42E1B3F0BAA
S1131CA02817390778F0AC014E5F5F4F24173507CA
S1131CB048F04E0F5F1F50937D0140937C01819348
S1131CC0919302C0E0E0F0E0CF01DF91CF911F914A
S1131CD00F910895CF93DF93009709F481C0FC011D
S1131CE0329713821282A0917E01B0917F011097E6
S1131CF081F420813181820F931F20917C013091E6
S1131D007D012817390751F5F0937D01E0937C019B
S1131D1067C0ED0120E030E0CE17DF0740F44A81D0
S1131D205B819E0141155105F1F0EA01F5CFD383A2
S1131D30C28340815181840F951FC817D90759F474
S1131D4088819981840F951F0296918380838A816B
S1131D509B81938382832115310529F4F0937F01BC
S1131D60E0937E013DC0E901FB83EA8349915991E7
S1131D70C40FD51FEC17FD0761F480819181840F96
S1131D80951F0296E90199838883828193819B83BD
S1131D908A83E0E0F0E012968D919C91139700976E
S1131DA019F0FD01DC01F7CF8D919C9111979D01F4
S1131DB02E5F3F4F820F931F20917C0130917D0154
S1131DC02817390769F4309729F410927F0110928B
S1131DD07E0102C013821282B0937D01A0937C0124
S1131DE0DF91CF910895283008F027E03327DA01F6
S1131DF0990F311D87FD916000966105710539F4D5
S1131E0032602E5F3D9330E32A95E1F708959F3FBA
S1131E1030F080387105610509F03C5F3C5F3D930B
S1131E20913008F08068911DDF93CF931F930F9337
S1131E30FF92EF92192F987F9695E92F9695969594
S1131E40E90FFF27E653FF4F99273327EE24FF249A
S1131E50A701E70105900894079428F4360FE71EBC
S1131E60F81E491F511D660F771F881F991F06947E
S1131E70A1F70590079428F4E70EF81E491F561F92
S1131E80C11D770F881F991F661F0694A1F705903F
S1131E90079428F4F80E491F561FC71FD11D880F39
S1131EA0991F661F771F0694A1F70590079420F4E5
S1131EB0490F561FC71FD81F990F661F771F881F0A
S1131EC00694A9F784911095177041F0D695C7959B
S1131ED057954795F794E7941A95C1F7E0E7F0E032
S1131EE068941590159135916591959105907FE2CF
S1131EF07395E118F10A430B560BC90BD009C0F7CF
S1131F00E10CF11E431F561FC91FD01D7EF4703310
S1131F1011F48A95E6CFE894015030F0080F0AF4E2
S1131F200027021708F4202F2395022F7A3328F074
S1131F3079E37D932A95E9F710C07D932A9589F674
S1131F40069497956795379517951794E118F10AB4
S1131F50430B560BC90BD00998F023957E917395CA
S1131F607A3308F070E37C932013B8F77E917061A4
S1131F707D9330F0839571E37D9370E32A95E1F7C7
S1131F801124EF90FF900F911F91CF91DF9199272A
S1131F9087FD90950895FC010590615070400110F3
S1131FA0D8F7809590958E0F9F1F0895FC0161507E
S1131FB0704001900110D8F7809590958E0F9F1F67
S1131FC008950F931F93CF93DF93FB01238121FD8A
S1131FD003C08FEF9FEF2CC022FF16C046815781AC
S1131FE0248135814217530744F4A081B1819D01B6
S1131FF02F5F3F4F318320838C93268137812F5F5E
S11320003F4F3783268314C08B01EC01FB0100840E
S1132010F185E02D0995892BE1F6D80116968D916D
S11320209C911797019617969C938E931697CE01C1
S1132030DF91CF911F910F910895A0E0B0E0E3E20A
S1132040F0E10C94680DAE014B5F5F4FFA016191B2
S11320507191AF0180918201909183010E947C096A
S1132060E2E00C94840DFA01AA27283051F12031C2
S113207081F1E8946F936E7F6E5F7F4F8F4F9F4F18
S1132080AF4FB1E03ED0B4E03CD0670F781F891F5A
S11320909A1FA11D680F791F8A1F911DA11D6A0F28
S11320A0711D811D911DA11D20D009F468943F91DB
S11320B02AE0269F11243019305D3193DEF6CF01DA
S11320C00895462F4770405D4193B3E00FD0C9F7A0
S11320D0F6CF462F4F70405D4A3318F0495D31FD0D
S11320E04052419302D0A9F7EACFB4E0A695979560
S11320F0879577956795BA95C9F700976105710536
S113210008959B01AC010A2E06945795479537957F
S11321102795BA95C9F7620F731F841F951FA01DD9
S10921200895F894FFCFBE
S1132126000086012000FFFFFFFF010100000003FD
S113213600000000CC06D60600003C6274723E2500
S1132146643C2F6274723E0A00282566202C200007
S1092156202566290A00A1
S9030000FC
