:100000000C9434000C947A000C9470010C94510000
:100010000C9451000C9451000C9451000C9451001C
:100020000C9451000C94B3020C9451000C945100A8
:100030000C9451000C94E2040C944C030C94510069
:100040000C943D040C9451000C9451000C945100FC
:100050000C9451000C9451000C9451000C945100DC
:100060000C9451000C94510011241FBECFEFD8E026
:10007000DEBFCDBF11E0A0E0B1E0EAE1F9E102C0EE
:1000800005900D92A032B107D9F721E0A0E2B1E0CE
:1000900001C01D92A637B207E1F70E945E050C94DD
:1000A0008B0C0C940000ECE7F0E080E48083AAE77E
:1000B000B0E08C9187688C93808180830895ECE711
:1000C000F0E090818F70982B9083EAE7F0E08081D8
:1000D00080648083808186FDFDCF8091780090913F
:1000E00079000895E89AE9E6F0E0808183608083F2
:1000F000789408951F920F920FB60F9211242F92A9
:100100003F924F925F926F927F928F929F92AF92A7
:10011000BF92CF92DF92EF92FF920F931F932F9394
:100120003F934F935F936F937F938F939F93AF937F
:10013000BF93CF93DF93EF93FF93209134013091DE
:10014000350140913601509137016091380170912D
:10015000390180913A0190913B01A0E00E94800812
:10016000A9F40E94F503DC01CB0180934401909334
:100170004501A0934601B0934701109248011092A7
:10018000490110924A0110924B013EC00E94F503B2
:100190001B012C01A0904401B0904501C090460184
:1001A000D0904701E0904801F090490100914A0148
:1001B00010914B01262F332D442D552D60E070E01A
:1001C00080E090E00E94770820935401309355011D
:1001D0004093560150935701609358017093590111
:1001E00080935A0190935B01209244013092450123
:1001F00040924601509247011092480110924901E5
:1002000010924A0110924B014C9B24C02091340162
:10021000309135014091360150913701609138019C
:100220007091390180913A0190913B01A1E00E94C7
:100230006B0820933401309335014093360150937D
:100240003701609338017093390180933A0190939C
:100250003B0123C02091340130913501409136019A
:1002600050913701609138017091390180913A01C4
:1002700090913B01AFEF0E946B08209334013093C3
:1002800035014093360150933701609338017093E4
:10029000390180933A0190933B01FF91EF91DF91F7
:1002A000CF91BF91AF919F918F917F916F915F910E
:1002B0004F913F912F911F910F91FF90EF90DF9001
:1002C000CF90BF90AF909F908F907F906F905F90F6
:1002D0004F903F902F900F900FBE0F901F9018954A
:1002E0001F920F920FB60F921124AF92BF92CF922E
:1002F000DF92EF92FF920F931F932F933F934F93B1
:100300005F936F937F938F939F93AF93BF93EF937D
:10031000FF9320912C0130912D0140912E0150919D
:100320002F016091300170913101809132019091E3
:100330003301A0E00E94800899F40E949804209361
:100340003C0130933D0140933E0150933F01609347
:10035000400170934101809342019093430124C076
:100360000E949804A0903C01B0903D01C0903E01D5
:10037000D0903F01E0904001F09041010091420196
:10038000109143010E94770820934C0130934D0156
:1003900040934E0150934F0160935001709351016F
:1003A00080935201909353014F9B24C020912C01C4
:1003B00030912D0140912E0150912F01609130011B
:1003C000709131018091320190913301A1E00E943E
:1003D0006B0820932C0130932D0140932E015093F4
:1003E0002F0160933001709331018093320190931B
:1003F000330123C020912C0130912D0140912E0119
:1004000050912F0160913001709131018091320142
:1004100090913301AFEF0E946B0820932C01309331
:100420002D0140932E0150932F0160933001709362
:1004300031018093320190933301FF91EF91BF918D
:10044000AF919F918F917F916F915F914F913F916C
:100450002F911F910F91FF90EF90DF90CF90BF9061
:10046000AF900F900FBE0F901F90189520915401E0
:1004700030915501409156015091570160915801BA
:100480007091590180915A0190915B010E94EE0692
:100490009B01AC0160EC7FEE89E398E40E940906C1
:1004A0000895AF92BF92CF92DF92EF92FF920F9397
:1004B0001F93A0904C01B0904D01C0904E01D09080
:1004C0004F01E0905001F0905101009152011091C4
:1004D00053012FEB37EE42E050E060E070E080E047
:1004E00090E00E94EC070E94EE061F910F91FF9092
:1004F000EF90DF90CF90BF90AF9008950F931F9330
:10050000CF93DF93623071054CF1EC018B01015008
:10051000110960E070E0AA81BB819B01772384F020
:1005200048815981A417B50758F4FE0153834283CB
:100530002150310928F052914291A417B507B0F328
:10054000F9013196EE0FFF1FE80FF91FB183A08369
:100550006F5F7F4F229660177107E9F6DF91CF91A9
:100560001F910F9108951F920F920FB60F921124B1
:10057000EF92FF920F931F932F933F934F935F93AD
:100580006F937F938F939F93AF93BF93CF93DF939B
:10059000EF93FF9380E00E945F00885C91098935AA
:1005A000924088F08FEF9FEF90932B0180932A0168
:1005B0000E943602609324017093250180932601E6
:1005C000909327014AC080910801909109010196FA
:1005D00059F40E94360260932401709325018093A0
:1005E00026019093270139C08AE090E00E948C0890
:1005F0007C01EC018C01065F1F4F80E00E945F00D0
:1006000089939993C017D107C1F765E070E0C701DE
:100610000E947E02F7018481958190932B01809343
:100620002A0160912A0170912B018091080190911B
:100630000901681B790B80E090E00E94B10620E080
:1006400030E048E551E40E947D07609324017093F7
:100650002501809326019093270180912A01909192
:100660002B019093090180930801FF91EF91DF9195
:10067000CF91BF91AF919F918F917F916F915F913A
:100680004F913F912F911F910F91FF90EF900F90FD
:100690000FBE0F901F9018951F920F920FB60F92DA
:1006A0001124EF92FF920F931F932F933F934F9339
:1006B0005F936F937F938F939F93AF93BF93CF93EA
:1006C000DF93EF93FF9381E00E945F00885C9109C4
:1006D0008935924088F08FEF9FEF909329018093A6
:1006E00028010E94360260932001709321018093BB
:1006F0002201909323014AC0809108019091090141
:10070000019659F40E9451026093200170932101D7
:10071000809322019093230139C08AE090E00E94E7
:100720008C087C01EC018C01065F1F4F81E00E9468
:100730005F0089939993C017D107C1F765E070E016
:10074000C7010E947E02F70184819581909329015F
:100750008093280160912801709129018091060100
:1007600090910701681B790B80E090E00E94B10630
:1007700020E030E048E551E40E947D0760932001CD
:10078000709321018093220190932301809128018D
:10079000909129019093070180930601FF91EF91B9
:1007A000DF91CF91BF91AF919F918F917F916F9189
:1007B0005F914F913F912F911F910F91FF90EF907B
:1007C0000F900FBE0F901F90189584B5806F84BD59
:1007D00084B5836084BD85B5816085BD0895EEE6EE
:1007E000F0E08081816080830895CF93DF93A89BA0
:1007F00026C086B58F3F19F120915C0130915D01D3
:1008000040915E0150915F016091600170916101C2
:100810008091620190916301A1E00E946B08209396
:100820005C0130935D0140935E0150935F016093E2
:1008300060017093610180936201909363018091E4
:100840005C0190915D01A0915E01B0915F01C0914A
:100850006001D0916101E0916201F091630126B5E0
:10086000BA2FA92F982F8827BC01CD01620F711DC7
:10087000811D911DDF91CF9108951F920F920FB6A8
:100880000F9211242F933F934F935F936F937F9316
:100890008F939F93AF9320915C0130915D014091C4
:1008A0005E0150915F0160916001709161018091E2
:1008B000620190916301A1E00E946B0820935C01AA
:1008C00030935D0140935E0150935F01609360013E
:1008D000709361018093620190936301AF919F9146
:1008E0008F917F916F915F914F913F912F910F90D9
:1008F0000FBE0F901F901895E0E8F0E08081806AAD
:1009000080838081826080838FEF9FEF9093870048
:1009100080938600E1E8F0E08081886180838081B7
:1009200081608083EFE6F0E08081816080830895BC
:100930008F929F92AF92BF92CF92DF92EF92FF92EF
:100940000F931F93CF93DF9380908400E0918500F5
:1009500020916401309165014091660150916701D9
:10096000609168017091690180916A0190916B01B9
:10097000912C9E2A00E10E944908D22FC32FB42F48
:10098000A52FF62FE72F082F192F282D392D40E0FE
:1009900050E060E070E080E090E0AD2EBC2ECB2E09
:1009A000DA2EEF2EFE2E0E946208DF91CF911F916A
:1009B0000F91FF90EF90DF90CF90BF90AF909F90FE
:1009C0008F9008951F920F920FB60F9211242F93BC
:1009D0003F934F935F936F937F938F939F93AF93C7
:1009E0002091640130916501409166015091670149
:1009F000609168017091690180916A0190916B0129
:100A0000A1E00E946B08209364013093650140933C
:100A10006601509367016093680170936901809348
:100A20006A0190936B01AF919F918F917F916F912C
:100A30005F914F913F912F910F900FBE0F901F909C
:100A40001895CF93C82F8A3019F48DE00E942105A4
:100A5000E0ECF0E0808185FFFDCFC093C60080E030
:100A600090E0CF910895E0ECF0E080818823ECF7EE
:100A70008091C60090E008951092C5008CE08093AC
:100A8000C40088E18093C10086E08093C200E0E763
:100A9000F1E08AE091E093838283918380830895DB
:100AA0000E943C050E9453000E947C040E94E503C2
:100AB0000E94EF0383E00E94720008950E94500597
:100AC0008FEF84B91AB8C8E1D1E00E9436024B0119
:100AD0005C010E9436022B013C010E9436026B0130
:100AE0007C01C501B4010E947B06072E000C880B17
:100AF000990B0E94B3069B01AC01C301B2010E9495
:100B00009C0520E030E04AE754E40E947D070E9403
:100B10007B067F936F93C701B6010E947B067F938C
:100B20006F93DF93CF930E94AD090F900F900F90BA
:100B30000F900F900F90C9CF5058BB27AA270E9443
:100B4000B4050C9443070E94350738F00E943C0717
:100B500020F039F49F3F19F426F40C9432070EF478
:100B6000E095E7FB0C942C07E92F0E94540758F3FB
:100B7000BA17620773078407950720F079F4A6F582
:100B80000C9476070EF4E0950B2EBA2FA02D0B01D6
:100B9000B90190010C01CA01A0011124FF27591BC2
:100BA00099F0593F50F4503E68F11A16F040A22FC8
:100BB000232F342F4427585FF3CF46953795279539
:100BC000A795F0405395C9F77EF41F16BA0B620B38
:100BD000730B840BBAF09150A1F0FF0FBB1F661F7F
:100BE000771F881FC2F70EC0BA0F621F731F841FC2
:100BF00048F4879577956795B795F7959E3F08F0E8
:100C0000B0CF9395880F08F09927EE0F97958795A9
:100C100008950E941D060C9443070E943C0758F05B
:100C20000E94350740F029F45F3F29F00C942C070F
:100C300051110C9477070C9432070E94540768F303
:100C40009923B1F3552391F3951B550BBB27AA2785
:100C500062177307840738F09F5F5F4F220F331FBF
:100C6000441FAA1FA9F335D00E2E3AF0E0E832D087
:100C700091505040E695001CCAF72BD0FE2F29D08A
:100C8000660F771F881FBB1F261737074807AB075C
:100C9000B0E809F0BB0B802DBF01FF2793585F4FD1
:100CA0003AF09E3F510578F00C942C070C9477078E
:100CB0005F3FE4F3983ED4F3869577956795B795B3
:100CC000F7959F5FC9F7880F911D9695879597F9BE
:100CD0000895E1E0660F771F881FBB1F6217730737
:100CE0008407BA0720F0621B730B840BBA0BEE1F4C
:100CF00088F7E09508950E9482066894B1110C94DB
:100D0000770708950E945C0788F09F5798F0B92FE5
:100D10009927B751B0F0E1F0660F771F881F991F30
:100D20001AF0BA95C9F714C0B13091F00E94760755
:100D3000B1E008950C947607672F782F8827B85F65
:100D400039F0B93FCCF3869577956795B395D9F788
:100D50003EF490958095709561957F4F8F4F9F4F92
:100D60000895E89409C097FB3EF49095809570959E
:100D700061957F4F8F4F9F4F9923A9F0F92F96E9E7
:100D8000BB279395F695879577956795B795F1115C
:100D9000F8CFFAF4BB0F11F460FF1BC06F5F7F4FF9
:100DA0008F4F9F4F16C0882311F096E911C077230B
:100DB00021F09EE8872F762F05C0662371F096E814
:100DC000862F70E060E02AF09A95660F771F881FE3
:100DD000DAF7880F9695879597F90895E894F92F93
:100DE00096EBFF2381F0121613061406440B93951D
:100DF000F69587957795679557954040FF23B9F706
:100E00001BC099270895882351F49850D2F7872B57
:100E1000762F652F542F432F322F20E0B1F3121677
:100E200013061406440B88233AF09A95440F551F75
:100E3000661F771F881FCAF755234AF4440F551FB2
:100E400011F460FF04C06F5F7F4F8F4F9F4F880F7B
:100E50009695879597F9089597F99F6780E870E0D0
:100E600060E008959FEF80EC089500240A94161620
:100E7000170618060906089500240A941216130688
:100E8000140605060895092E0394000C11F4882316
:100E900052F0BB0F40F4BF2B11F460FF04C06F5F32
:100EA0007F4F8F4F9F4F089557FD9058440F551F08
:100EB00059F05F3F71F04795880F97FB991F61F0DC
:100EC0009F3F79F087950895121613061406551F53
:100ED000F2CF4695F1DF08C0161617061806991FBF
:100EE000F1CF86957105610508940895E894BB27B4
:100EF00066277727CB0197F908950E9490070C94F5
:100F000043070E94350738F00E943C0720F09523E4
:100F100011F00C942C070C94320711240C947707D1
:100F20000E94540770F3959FC1F3950F50E0551F31
:100F3000629FF001729FBB27F00DB11D639FAA272E
:100F4000F00DB11DAA1F649F6627B00DA11D661F7D
:100F5000829F2227B00DA11D621F739FB00DA11D9E
:100F6000621F839FA00D611D221F749F3327A00D58
:100F7000611D231F849F600D211D822F762F6A2FF4
:100F800011249F5750409AF0F1F088234AF0EE0F59
:100F9000FF1FBB1F661F771F881F91505040A9F786
:100FA0009E3F510580F00C942C070C9477075F3F0F
:100FB000E4F3983ED4F3869577956795B795F795C2
:100FC000E7959F5FC1F7FE2B880F911D969587953A
:100FD00097F90895689401C0E8948F929F92CF93F7
:100FE000DF930E94F807DF91CF919F908F90089533
:100FF00088249924F401E401B0E49F93AA279A1568
:101000008B049C04ED05FE05CF05D007A10798F4DD
:10101000AD2FDC2FCF2FFE2FE92D982C892E982F66
:10102000872F762F652F542F432F322F2227B8502A
:1010300031F7BF9127C01B2EBF91BB27220F331F53
:10104000441F551F661F771F881F991F881C991CF6
:10105000EE1FFF1FCC1FDD1FAA1FBB1F8A149B049E
:10106000EC05FD05CE05DF05A007B10748F08A189D
:101070009B08EC09FD09CE09DF09A00BB10B21602B
:101080001A94E1F62EF49401AF01BE01CD01000CDB
:1010900008950F93083090F0982F872F762F652FA3
:1010A000542F432F322F22270850F4CF220F331F03
:1010B000441F551F661F771F881F991F0A95B2F797
:1010C0000F9108952A0D3B1D4C1D5D1D6E1D7F1D4A
:1010D000801F911F08950024A7FD00942A0F301D42
:1010E000401D501D601D701D801D901D08952A1902
:1010F0003B094C095D096E097F09800B910B08952E
:101100000024A7FD00942A1730054005500560050E
:1011100070058005900508950F931F93CF93DF937B
:101120008230910510F482E090E0E0916E01F09140
:101130006F0120E030E0A0E0B0E0309719F140818D
:1011400051810281138148175907C8F08417950708
:1011500069F4109731F012960C93129713961C9322
:1011600027C000936E0110936F0122C02115310535
:1011700019F04217530718F49A01BD01EF01DF017E
:10118000F801DBCF21153105F9F0281B390B24308C
:10119000310580F48A819B816115710521F0FB0185
:1011A0009383828304C090936F0180936E01FE014C
:1011B000329644C0FE01E20FF31F819391932250B7
:1011C0003109398328833AC020916C0130916D0137
:1011D000232B41F4209102013091030130936D01E2
:1011E00020936C01209100013091010121153105FE
:1011F00041F42DB73EB74091040150910501241BE5
:10120000350BE0916C01F0916D01E217F307A0F44A
:101210002E1B3F0B2817390778F0AC014E5F5F4F4C
:101220002417350748F04E0F5F1F50936D01409310
:101230006C018193919302C0E0E0F0E0CF01DF9177
:10124000CF911F910F910895CF93DF93009709F4E9
:1012500081C0FC01329713821282A0916E01B0917D
:101260006F01109781F420813181820F931F2091AB
:101270006C0130916D012817390751F5F0936D011C
:10128000E0936C0167C0ED0120E030E0CE17DF078E
:1012900040F44A815B819E0141155105F1F0EA015C
:1012A000F5CFD383C28340815181840F951FC81726
:1012B000D90759F488819981840F951F02969183EB
:1012C00080838A819B81938382832115310529F450
:1012D000F0936F01E0936E013DC0E901FB83EA8367
:1012E00049915991C40FD51FEC17FD0761F4808116
:1012F0009181840F951F0296E901998388838281E9
:1013000093819B838A83E0E0F0E012968D919C911B
:101310001397009719F0FD01DC01F7CF8D919C9197
:1013200011979D012E5F3F4F820F931F20916C01FB
:1013300030916D012817390769F4309729F410921C
:101340006F0110926E0102C013821282B0936D0180
:10135000A0936C01DF91CF910895A0E0B0E0E3EBA2
:10136000F9E00C94640CAE014B5F5F4FFA016191A0
:101370007191AF0180917201909173010E94C30934
:10138000E2E00C94800CABE0B0E0E9ECF9E00C9406
:10139000540C6C017B018A01FC0117821682838147
:1013A00081FFCCC1CE0101963C01F6019381F7018A
:1013B00093FD859193FF81917F01882309F4BAC140
:1013C000853239F493FD859193FF81917F018532B8
:1013D00029F4B60190E00E94BA0BE7CF912C212CA2
:1013E000312CFFE1F315D8F08B3279F038F48032EC
:1013F00079F08332A1F4232D20611DC08D3261F07C
:10140000803369F4232D216016C0832D8260382E2D
:10141000E32DE4603E2E2AC0F32DF8601DC037FC9A
:101420002DC020ED280F2A3040F08E32B9F436FC62
:1014300081C1232D2064322E19C036FE06C08AE0F9
:10144000989E200D1124922E11C0EAE02E9E200DB0
:101450001124222EF32DF0623F2E08C08C3621F489
:10146000832D8068382E02C0883641F4F70193FD41
:10147000859193FF81917F018111B3CF982F9F7D3B
:101480009554933028F40C5F1F4F9FE399830DC050
:10149000833631F0833771F0833509F059C021C0AC
:1014A000F801808189830E5F1F4F88248394912CDB
:1014B000530113C02801F2E04F0E511CF801A08027
:1014C000B18036FE03C0692D70E002C06FEF7FEF80
:1014D000C5010E94AF0B4C018201F32DFF773F2E17
:1014E00016C0280122E0420E511CF801A080B180F4
:1014F00036FE03C0692D70E002C06FEF7FEFC501BB
:101500000E94A40B4C01F32DF0683F2E820133FCA6
:101510001BC0822D90E088169906B0F4B60180E2D7
:1015200090E00E94BA0B2A94F4CFF50137FC859124
:1015300037FE81915F01B60190E00E94BA0B211045
:101540002A9421E0821A91088114910471F7E8C06D
:10155000843611F0893641F5F80137FE07C0608105
:101560007181828193810C5F1F4F08C060817181FE
:10157000072E000C880B990B0E5F1F4FF32DFF7683
:101580003F2E97FF09C090958095709561957F4F8C
:101590008F4F9F4FF0683F2E2AE030E0A3010E945A
:1015A000F60B882E861845C0853731F4232D2F7E03
:1015B000B22E2AE030E025C0932D997FB92E8F36C8
:1015C000C1F018F4883579F0B5C0803719F0883744
:1015D00021F0B0C0E92FE061BE2EB4FE0DC0FB2D9E
:1015E000F460BF2E09C034FE0AC0292F2660B22E37
:1015F00006C028E030E005C020E130E002C020E174
:1016000032E0F801B7FE07C0608171818281938169
:101610000C5F1F4F06C06081718180E090E00E5F1B
:101620001F4FA3010E94F60B882E8618FB2DFF7713
:101630003F2E36FE0DC0232D2E7FA22E891458F486
:1016400034FE0BC032FC09C0832D8E7EA82E05C04F
:10165000B82CA32C03C0B82C01C0B92CA4FE0FC019
:10166000FE01E80DF11D8081803321F49A2D997ED1
:10167000A92E09C0A2FE06C0B394B39404C08A2D5B
:10168000867809F0B394A3FC11C0A0FE06C0B21482
:1016900088F4280C922C9B180EC0B21460F4B6018A
:1016A00080E290E00E94BA0BB394F7CFB21418F422
:1016B0002B1802C0982C212CA4FE10C0B60180E388
:1016C00090E00E94BA0BA2FE17C0A1FC03C088E7FD
:1016D00090E002C088E590E0B6010CC08A2D8678C3
:1016E00059F0A1FE02C08BE201C080E2A7FC8DE2AE
:1016F000B60190E00E94BA0B891438F4B60180E379
:1017000090E00E94BA0B9A94F7CF8A94F301E80D07
:10171000F11D8081B60190E00E94BA0B8110F5CFD7
:10172000222009F442CEB60180E290E00E94BA0B7A
:101730002A94F6CFF6018681978102C08FEF9FEF42
:101740002B96E2E10C94700CFC0105906150704006
:101750000110D8F7809590958E0F9F1F0895FC017A
:101760006150704001900110D8F7809590958E0FD0
:101770009F1F08950F931F93CF93DF93FB01238146
:1017800021FD03C08FEF9FEF2CC022FF16C04681C2
:101790005781248135814217530744F4A081B181D8
:1017A0009D012F5F3F4F318320838C9326813781AA
:1017B0002F5F3F4F3783268314C08B01EC01FB0161
:1017C0000084F185E02D0995892BE1F6D801169664
:1017D0008D919C911797019617969C938E931697CF
:1017E000CE01DF91CF911F910F910895FA01AA27A1
:1017F000283051F1203181F1E8946F936E7F6E5F54
:101800007F4F8F4F9F4FAF4FB1E03ED0B4E03CD001
:10181000670F781F891F9A1FA11D680F791F8A1FE4
:10182000911DA11D6A0F711D811D911DA11D20D04B
:1018300009F468943F912AE0269F11243019305D05
:101840003193DEF6CF010895462F4770405D4193F6
:10185000B3E00FD0C9F7F6CF462F4F70405D4A3343
:1018600018F0495D31FD4052419302D0A9F7EACF0B
:10187000B4E0A6959795879577956795BA95C9F73A
:1018800000976105710508959B01AC010A2E06942D
:101890005795479537952795BA95C9F7620F731FE6
:1018A000841F951FA01D08952F923F924F925F9223
:1018B0006F927F928F929F92AF92BF92CF92DF9260
:1018C000EF92FF920F931F93CF93DF93CDB7DEB7C5
:1018D000CA1BDB0B0FB6F894DEBF0FBECDBF099459
:1018E0002A88398848885F846E847D848C849B84B0
:1018F000AA84B984C884DF80EE80FD800C811B81BE
:10190000AA81B981CE0FD11D0FB6F894DEBF0FBEEC
:0A191000CDBFED010895F894FFCF5C
:10191A00000076012000FFFFFFFF00000003000027
:10192A00000021053305000025642E2564200A00E5
:00000001FF
