:100000000C9434000C94A9010C94A5020C9451009A
:100010000C9451000C9451000C9451000C9451001C
:100020000C9451000C9403040C9451000C94510056
:100030000C9451000C947C060C949C040C9451007C
:100040000C94C3050C9451000C9451000C94510075
:100050000C9451000C9451000C9451000C945100DC
:100060000C9451000C94510011241FBECFEFD8E026
:10007000DEBFCDBF11E0A0E0B1E0E2EAFCE102C0EA
:1000800005900D92A232B107D9F721E0A2E2B1E0CA
:1000900001C01D92AE38B207E1F70E9406070C942A
:1000A0004F0E0C940000CF93DF93FB01E9011A82FD
:1000B0001B821C821D82198218829F838E837987FE
:1000C00068875B874A87BC016F5F7F4F8FEF9FE731
:1000D0000E9423097D876C879F012F5F3F4F032E6E
:1000E000000C440B550B6FEF7FEF8FEF9FE30E94E7
:1000F00037092E873F87488B598BDF91CF91089521
:10010000EF92FF920F931F93CF93DF938B01FA012E
:10011000861B970B248535852817390784F0319580
:1001200021953109821793076CF026813781829FD0
:10013000E001839FD00D929FD00D112405C0CFEF19
:10014000DFE702C0C1E0D0E8092E000CAA0BBB0B10
:1001500042815381648175819A01AB01280F391F57
:100160004A1F5B1F86859785A089B18982179307EF
:10017000A407B5074CF482839383A483B5836FEF00
:100180007FEF8FEF9FE31DC0B095A095909581956F
:100190009F4FAF4FBF4F281739074A075B074CF4F3
:1001A00082839383A483B58361E070E080E090EC68
:1001B00008C02283338344835583A085B1850E9480
:1001C000560920813181201B310BA285B3852A9FDE
:1001D00070012B9FF00C3A9FF00C112411830083C7
:1001E0008E01DD0F220B330BAB01BC01400F511F01
:1001F000621F731FC701FF0CAA0BBB0B480F591FCF
:100200006A1F7B1FDB01CA01772324F481589F4FAB
:10021000AF4FBF4F689416F8B595A79597958795FA
:100220001694D1F7813020E892072FEFA207B2078A
:1002300024F481E090E8AFEFBFEF811520E892074A
:10024000A105B10524F08FEF9FE7A0E0B0E0DF91BA
:10025000CF911F910F91FF90EF900895ECE7F0E0A0
:1002600080E48083AAE7B0E08C9187688C938081DA
:1002700080830895ECE7F0E090818F70982B908355
:10028000EAE7F0E0808180648083808186FDFDCF95
:1002900080917800909179000895813049F480E050
:1002A00090E00E94350580E090E00E944D050895A1
:1002B000823041F480E090E00E94410580E090E0CF
:1002C0000E945C050895CF93DF93EB01209719F40A
:1002D0000E944D0132C0DD23D4F4813059F48827C7
:1002E0009927861B970B0E94350580E090E00E94BD
:1002F0004D0523C0823009F580E090E00E94410561
:10030000882799278C1B9D0B0E945C0516C01C1624
:100310001D069CF4813041F480E090E00E94350598
:10032000CE010E944D0509C0823039F4CB010E94F4
:10033000410580E090E00E945C05CE01DF91CF9105
:100340000895E89AE9E6F0E08081836080837894FC
:1003500008951F920F920FB60F9211242F923F9281
:100360004F925F926F927F928F929F92AF92BF92C5
:10037000CF92DF92EF92FF920F931F932F933F93B1
:100380004F935F936F937F938F939F93AF93BF939D
:10039000CF93DF93EF93FF93209137013091380192
:1003A0004091390150913A0160913B0170913C01BB
:1003B00080913D0190913E01A0E00E94F409A9F4D2
:1003C0000E947B05DC01CB0180934701909348019B
:1003D000A0934901B0934A0110924B0110924C0135
:1003E00010924D0110924E013EC00E947B051B01F0
:1003F0002C01A0904701B0904801C0904901D090D5
:100400004A01E0904B01F0904C0100914D01109198
:100410004E01262F332D442D552D60E070E080E0F5
:1004200090E00E94EB0920935701309358014093CC
:10043000590150935A0160935B0170935C01809362
:100440005D0190935E0120924701309248014092F5
:10045000490150924A0110924B0110924C011092A6
:100460004D0110924E014C9B27C0209137013091D5
:1004700038014091390150913A0160913B017091EE
:100480003C0180913D0190913E01A1E00E94DF0975
:1004900020933701309338014093390150933A014A
:1004A00060933B0170933C0180933D0190933E012A
:1004B00081E080932E0126C02091370130913801D0
:1004C0004091390150913A0160913B0170913C019A
:1004D00080913D0190913E01AFEF0E94DF09209392
:1004E0003701309338014093390150933A016093BA
:1004F0003B0170933C0180933D0190933E018FEF4F
:1005000080932E01FF91EF91DF91CF91BF91AF9139
:100510009F918F917F916F915F914F913F912F911B
:100520001F910F91FF90EF90DF90CF90BF90AF9011
:100530009F908F907F906F905F904F903F902F9003
:100540000F900FBE0F901F9018951F920F920FB62D
:100550000F921124AF92BF92CF92DF92EF92FF924F
:100560000F931F932F933F934F935F936F937F93BB
:100570008F939F93AF93BF93EF93FF9320912F019E
:10058000309130014091310150913201609133013D
:10059000709134018091350190913601A0E00E9464
:1005A000F40999F40E94320620933F0130934001F0
:1005B0004093410150934201609343017093440181
:1005C000809345019093460124C00E943206A0907A
:1005D0003F01B0904001C0904101D0904201E090B5
:1005E0004301F090440100914501109146010E94A1
:1005F000EB0920934F0130935001409351015093E8
:10060000520160935301709354018093550190936C
:1006100056014F9B24C020912F0130913001409111
:100620003101509132016091330170913401809118
:10063000350190913601A1E00E94DF0920932F013E
:100640003093300140933101509332016093330174
:1006500070933401809335019093360123C020912B
:100660002F01309130014091310150913201609160
:100670003301709134018091350190913601AFEFD3
:100680000E94DF0920932F01309330014093310104
:10069000509332016093330170933401809335019C
:1006A00090933601FF91EF91BF91AF919F918F9100
:1006B0007F916F915F914F913F912F911F910F917A
:1006C000FF90EF90DF90CF90BF90AF900F900FBE54
:1006D0000F901F901895CF92DF92EF92FF92CF93D9
:1006E000C0912E012091570130915801409159013C
:1006F00050915A0160915B0170915C0180915D01A4
:1007000090915E010E9427089B01AC0160EC7FEE96
:1007100089E398E40E9442076B017C016C2FCC0FA7
:10072000770B880B990B0E94EC079B01AC01C7016A
:10073000B6010E94B608CF91FF90EF90DF90CF9066
:100740000895AF92BF92CF92DF92EF92FF920F93F4
:100750001F93A0904F01B0905001C0905101D090D4
:100760005201E0905301F090540100915501109115
:1007700056012FEB37EE42E050E060E070E080E0A1
:1007800090E00E9460090E9427081F910F91FF903E
:10079000EF90DF90CF90BF90AF9008950F931F938D
:1007A000CF93DF93623071054CF1EC018B01015066
:1007B000110960E070E0AA81BB819B01772384F07E
:1007C00048815981A417B50758F4FE015383428329
:1007D0002150310928F052914291A417B507B0F386
:1007E000F9013196EE0FFF1FE80FF91FB183A083C7
:1007F0006F5F7F4F229660177107E9F6DF91CF9107
:100800001F910F9108951F920F920FB60F9211240E
:10081000EF92FF920F931F932F933F934F935F930A
:100820006F937F938F939F93AF93BF93CF93DF93F8
:10083000EF93FF9380E00E943A01885C910989352B
:10084000924088F08FEF9FEF90932D0180932C01C1
:100850000E946B0360932601709327018093280107
:10086000909329014AC08091080190910901019655
:1008700059F40E946B0360932601709327018093C3
:1008800028019093290139C08AE090E00E94500A23
:100890007C01EC018C01065F1F4F80E00E943A0151
:1008A00089939993C017D107C1F765E070E0C7013C
:1008B0000E94CE03F7018481958190932D0180934E
:1008C0002C0160912C0170912D0180910801909173
:1008D0000901681B790B80E090E00E94EA0720E0A4
:1008E00030E048E551E40E94B60860932601709319
:1008F0002701809328019093290180912C019091E8
:100900002D019093090180930801FF91EF91DF91F0
:10091000CF91BF91AF919F918F917F916F915F9197
:100920004F913F912F911F910F91FF90EF900F905A
:100930000FBE0F901F9018951F920F920FB60F9237
:100940001124EF92FF920F931F932F933F934F9396
:100950005F936F937F938F939F93AF93BF93CF9347
:10096000DF93EF93FF9381E00E943A01885C910945
:100970008935924088F08FEF9FEF90932B01809301
:100980002A010E946B0360932201709323018093DC
:100990002401909325014AC080910801909109019A
:1009A000019659F40E94A1036093220170932301E0
:1009B000809324019093250139C08AE090E00E9441
:1009C000500A7C01EC018C01065F1F4F81E00E9400
:1009D0003A0189939993C017D107C1F765E070E098
:1009E000C7010E94CE03F7018481958190932B016A
:1009F00080932A0160912A0170912B018091060158
:100A000090910701681B790B80E090E00E94EA0753
:100A100020E030E048E551E40E94B60860932201EE
:100A200070932301809324019093250180912A01E2
:100A300090912B019093070180930601FF91EF9114
:100A4000DF91CF91BF91AF919F918F917F916F91E6
:100A50005F914F913F912F911F910F91FF90EF90D8
:100A60000F900FBE0F901F901895992314F480E0FB
:100A700090E08F3F910519F014F08FEF90E087BD63
:100A80000895992314F480E090E08F3F910519F0C8
:100A900014F08FEF90E088BD0895992314F480E05E
:100AA00090E08F3F910519F014F08FEF90E0809364
:100AB0008900109288000895992314F480E090E052
:100AC0008F3F910519F014F08FEF90E080938B0029
:100AD00010928A00089584B5806A84BD84B58360CD
:100AE00084BD85B5816085BD0895EEE6F0E0808126
:100AF000816080830895CF93DF93A89B26C086B53D
:100B00008F3F19F12091620130916301409164019E
:100B10005091650160916601709167018091680153
:100B200090916901A1E00E94DF0920936201309356
:100B30006301409364015093650160936601709373
:100B4000670180936801909369018091620190919F
:100B50006301A0916401B0916501C0916601D091DB
:100B60006701E0916801F091690126B5BA2FA92FBC
:100B7000982F8827BC01CD01620F711D811D911D29
:100B8000DF91CF9108951F920F920FB60F9211240B
:100B90002F933F934F935F936F937F938F939F9385
:100BA000AF932091620130916301409164015091B3
:100BB0006501609166017091670180916801909173
:100BC0006901A1E00E94DF09209362013093630173
:100BD00040936401509365016093660170936701CF
:100BE000809368019093690180915F019091600109
:100BF0008D39910530F401969093600180935F01E7
:100C000007C081E0809361011092600110925F0142
:100C1000AF919F918F917F916F915F914F913F9194
:100C20002F910F900FBE0F901F901895E0E8F0E005
:100C30008081806A80838081826080838FEF9FEFD4
:100C40009093870080938600E1E8F0E080818861DE
:100C50008083808181608083EFE6F0E08081816025
:100C6000808308958F929F92AF92BF92CF92DF922E
:100C7000EF92FF920F931F93CF93DF9380908400A6
:100C8000E091850020916A0130916B0140916C01E7
:100C900050916D0160916E0170916F0180917001B2
:100CA00090917101912C9E2A00E10E94BD09D22FE2
:100CB000C32FB42FA52FF62FE72F082F192F282D7C
:100CC000392D40E050E060E070E080E090E0AD2E33
:100CD000BC2ECB2EDA2EEF2EFE2E0E94D609DF91EF
:100CE000CF911F910F91FF90EF90DF90CF90BF9029
:100CF000AF909F908F9008951F920F920FB60F9212
:100D000011242F933F934F935F936F937F938F9310
:100D10009F93AF9320916A0130916B0140916C01D8
:100D200050916D0160916E0170916F018091700121
:100D300090917101A1E00E94DF0920936A01309334
:100D40006B0140936C0150936D0160936E01709341
:100D50006F018093700190937101AF919F918F917A
:100D60007F916F915F914F913F912F910F900FBEA7
:100D70000F901F901895CF93C82F8A3019F48DE0EB
:100D80000E94BB06E0ECF0E0808185FFFDCFC093C0
:100D9000C60080E090E0CF910895E0ECF0E0808123
:100DA0008823ECF78091C60090E008951092C5006A
:100DB0008CE08093C40088E18093C10086E080933A
:100DC000C200E8E8F1E08AE091E0938382839183B6
:100DD000808308950E94D6060E942E010E94160666
:100DE0000E946B050E94750583E00E94A101089591
:100DF0000E946B032DEC3CEC48E151E40E94B608E4
:100E00000895BC0181E00E94630108950E94EA06F2
:100E100022E731E040E450E060E470E080E091E0FF
:100E20000E94530078948FEF84B98BEE8AB90F2E0D
:100E3000F8E1EF2EF1E0FF2EF02D80916101882383
:100E4000E1F30E94F8060E94B407C62FD72F42E7AD
:100E500051E089E190E00E948000182F092F0E9444
:100E600001070F931F93DF93CF93FF92EF920E949E
:100E7000710B109261010F900F900F900F900F90D7
:100E80000F90DBCF0E9456070C947C080E947508D7
:100E900058F00E946E0840F029F45F3F29F00C944E
:100EA000650851110C94B0080C946B080E948D08D1
:100EB00068F39923B1F3552391F3951B550BBB2789
:100EC000AA2762177307840738F09F5F5F4F220FCE
:100ED000331F441FAA1FA9F335D00E2E3AF0E0E8C5
:100EE00032D091505040E695001CCAF72BD0FE2F0F
:100EF00029D0660F771F881FBB1F261737074807A3
:100F0000AB07B0E809F0BB0B802DBF01FF2793585A
:100F10005F4F3AF09E3F510578F00C9465080C94B1
:100F2000B0085F3FE4F3983ED4F3869577956795D4
:100F3000B795F7959F5FC9F7880F911D969587958F
:100F400097F90895E1E0660F771F881FBB1F6217AE
:100F500073078407BA0720F0621B730B840BBA0B6C
:100F6000EE1F88F7E09508950E94BB076894B111C1
:100F70000C94B00808950E94950888F09F5798F047
:100F8000B92F9927B751B0F0E1F0660F771F881F8E
:100F9000991F1AF0BA95C9F714C0B13091F00E94A8
:100FA000AF08B1E008950C94AF08672F782F882719
:100FB000B85F39F0B93FCCF3869577956795B395CF
:100FC000D9F73EF490958095709561957F4F8F4F3E
:100FD0009F4F0895E89409C097FB3EF49095809543
:100FE000709561957F4F8F4F9F4F9923A9F0F92FEF
:100FF00096E9BB279395F695879577956795B7956D
:10100000F111F8CFFAF4BB0F11F460FF1BC06F5F52
:101010007F4F8F4F9F4F16C0882311F096E911C064
:10102000772321F09EE8872F762F05C0662371F085
:1010300096E8862F70E060E02AF09A95660F771F99
:10104000881FDAF7880F9695879597F90895E894A1
:10105000F92F96EBFF2381F0121613061406440BAA
:101060009395F69587957795679557954040FF231B
:10107000B9F71BC099270895882351F49850D2F7E7
:10108000872B762F652F542F432F322F20E0B1F37B
:10109000121613061406440B88233AF09A95440F4F
:1010A000551F661F771F881FCAF755234AF4440F40
:1010B000551F11F460FF04C06F5F7F4F8F4F9F4F2C
:1010C000880F9695879597F9089597F99F6780E817
:1010D00070E060E008959FEF80EC089500240A948A
:1010E0001616170618060906089500240A94121603
:1010F0001306140605060895092E0394000C11F436
:10110000882352F0BB0F40F4BF2B11F460FF04C0E2
:101110006F5F7F4F8F4F9F4F089557FD9058440F3B
:10112000551F59F05F3F71F04795880F97FB991F46
:1011300061F09F3F79F08795089512161306140603
:10114000551FF2CF4695F1DF08C016161706180690
:10115000991FF1CF86957105610508940895E8946B
:10116000BB2766277727CB0197F908950E94C90806
:101170000C947C080E946E0838F00E94750820F0DC
:10118000952311F00C9465080C946B0811240C94B1
:10119000B0080E948D0870F3959FC1F3950F50E041
:1011A000551F629FF001729FBB27F00DB11D639F19
:1011B000AA27F00DB11DAA1F649F6627B00DA11DBF
:1011C000661F829F2227B00DA11D621F739FB00D65
:1011D000A11D621F839FA00D611D221F749F3327D5
:1011E000A00D611D231F849F600D211D822F762F6E
:1011F0006A2F11249F5750409AF0F1F088234AF04B
:10120000EE0FFF1FBB1F661F771F881F91505040B6
:10121000A9F79E3F510580F00C9465080C94B00826
:101220005F3FE4F3983ED4F3869577956795B7953D
:10123000F795E7959F5FC1F7FE2B880F911D969557
:10124000879597F9089597FB072E16F4009407D019
:1012500077FD09D00E94000A07FC05D03EF4909566
:1012600081959F4F0895709561957F4F0895052E44
:1012700097FB1EF400940E944E0957FD07D00E9470
:10128000140A07FC03D04EF40C944E095095409577
:10129000309521953F4F4F4F5F4F08959095809522
:1012A000709561957F4F8F4F9F4F0895B7FF0C94B6
:1012B000360A0E94360A821B930B0895689401C077
:1012C000E8948F929F92CF93DF930E946C09DF91F5
:1012D000CF919F908F90089588249924F401E40180
:1012E000B0E49F93AA279A158B049C04ED05FE0594
:1012F000CF05D007A10798F4AD2FDC2FCF2FFE2FFD
:10130000E92D982C892E982F872F762F652F542F13
:10131000432F322F2227B85031F7BF9127C01B2E01
:10132000BF91BB27220F331F441F551F661F771F16
:10133000881F991F881C991CEE1FFF1FCC1FDD1FE3
:10134000AA1FBB1F8A149B04EC05FD05CE05DF0513
:10135000A007B10748F08A189B08EC09FD09CE09DF
:10136000DF09A00BB10B21601A94E1F62EF4940171
:10137000AF01BE01CD01000C08950F93083090F02D
:10138000982F872F762F652F542F432F322F222708
:101390000850F4CF220F331F441F551F661F771FBD
:1013A000881F991F0A95B2F70F9108952A0D3B1DCA
:1013B0004C1D5D1D6E1D7F1D801F911F0895002413
:1013C000A7FD00942A0F301D401D501D601D701D8B
:1013D000801D901D08952A193B094C095D096E096D
:1013E0007F09800B910B08950024A7FD00942A1714
:1013F000300540055005600570058005900508958D
:10140000AA1BBB1B51E107C0AA1FBB1FA617B7072A
:1014100010F0A61BB70B881F991F5A95A9F7809546
:101420009095BC01CD010895A1E21A2EAA1BBB1B09
:10143000FD010DC0AA1FBB1FEE1FFF1FA217B307A0
:10144000E407F50720F0A21BB30BE40BF50B661FB6
:10145000771F881F991F1A9469F76095709580957A
:1014600090959B01AC01BD01CF0108950E94410AF6
:10147000A59F900DB49F900DA49F800D911D1124E8
:101480000895A29FB001B39FC001A39F700D811D5D
:101490001124911DB29F700D811D1124911D08957D
:1014A0000F931F93CF93DF938230910510F482E066
:1014B00090E0E0918601F091870120E030E0A0E02B
:1014C000B0E0309719F140815181028113814817B2
:1014D0005907C8F08417950769F4109731F01296F0
:1014E0000C93129713961C9327C0009386011093B8
:1014F000870122C02115310519F04217530718F44E
:101500009A01BD01EF01DF01F801DBCF21153105A3
:10151000F9F0281B390B2430310580F48A819B8136
:101520006115710521F0FB019383828304C09093C0
:10153000870180938601FE01329644C0FE01E20FCE
:10154000F31F8193919322503109398328833AC044
:101550002091840130918501232B41F420910201D7
:101560003091030130938501209384012091000183
:10157000309101012115310541F42DB73EB740915D
:10158000040150910501241B350BE0918401F09179
:101590008501E217F307A0F42E1B3F0B281739072C
:1015A00078F0AC014E5F5F4F2417350748F04E0FBF
:1015B0005F1F50938501409384018193919302C0F2
:1015C000E0E0F0E0CF01DF91CF911F910F910895FE
:1015D000CF93DF93009709F481C0FC013297138207
:1015E0001282A0918601B0918701109781F4208129
:1015F0003181820F931F209184013091850128173A
:10160000390751F5F0938501E093840167C0ED013E
:1016100020E030E0CE17DF0740F44A815B819E0175
:1016200041155105F1F0EA01F5CFD383C283408122
:101630005181840F951FC817D90759F48881998162
:10164000840F951F0296918380838A819B81938367
:1016500082832115310529F4F0938701E0938601F7
:101660003DC0E901FB83EA8349915991C40FD51F1D
:10167000EC17FD0761F480819181840F951F02961C
:10168000E90199838883828193819B838A83E0E047
:10169000F0E012968D919C911397009719F0FD013F
:1016A000DC01F7CF8D919C9111979D012E5F3F4FEB
:1016B000820F931F209184013091850128173907EB
:1016C00069F4309729F4109287011092860102C0C4
:1016D00013821282B0938501A0938401DF91CF9190
:1016E0000895A0E0B0E0E7E7FBE00C94280EAE011F
:1016F0004B5F5F4FFA0161917191AF0180918A0157
:1017000090918B010E94870BE2E00C94440EABE0B9
:10171000B0E0EDE8FBE00C94180E6C017B018A014F
:10172000FC0117821682838181FFCCC1CE01019614
:101730003C01F6019381F70193FD859193FF81911F
:101740007F01882309F4BAC1853239F493FD85916C
:1017500093FF81917F01853229F4B60190E00E94C8
:101760007E0DE7CF912C212C312CFFE1F315D8F021
:101770008B3279F038F4803279F08332A1F4232D62
:1017800020611DC08D3261F0803369F4232D21600A
:1017900016C0832D8260382EE32DE4603E2E2AC0D1
:1017A000F32DF8601DC037FC2DC020ED280F2A3026
:1017B00040F08E32B9F436FC81C1232D2064322EE4
:1017C00019C036FE06C08AE0989E200D1124922E84
:1017D00011C0EAE02E9E200D1124222EF32DF0627E
:1017E0003F2E08C08C3621F4832D8068382E02C02D
:1017F000883641F4F70193FD859193FF81917F0134
:101800008111B3CF982F9F7D9554933028F40C5FAE
:101810001F4F9FE399830DC0833631F0833771F0FA
:10182000833509F059C021C0F801808189830E5F9A
:101830001F4F88248394912C530113C02801F2E098
:101840004F0E511CF801A080B18036FE03C0692DF7
:1018500070E002C06FEF7FEFC5010E94730D4C0175
:101860008201F32DFF773F2E16C0280122E0420EA1
:10187000511CF801A080B18036FE03C0692D70E0D4
:1018800002C06FEF7FEFC5010E94680D4C01F32D80
:10189000F0683F2E820133FC1BC0822D90E0881639
:1018A0009906B0F4B60180E290E00E947E0D2A9481
:1018B000F4CFF50137FC859137FE81915F01B601C8
:1018C00090E00E947E0D21102A9421E0821A910856
:1018D0008114910471F7E8C0843611F0893641F51E
:1018E000F80137FE07C060817181828193810C5FAE
:1018F0001F4F08C060817181072E000C880B990B67
:101900000E5F1F4FF32DFF763F2E97FF09C0909576
:101910008095709561957F4F8F4F9F4FF0683F2E58
:101920002AE030E0A3010E94BA0D882E861845C037
:10193000853731F4232D2F7EB22E2AE030E025C0EA
:10194000932D997FB92E8F36C1F018F4883579F030
:10195000B5C0803719F0883721F0B0C0E92FE061B9
:10196000BE2EB4FE0DC0FB2DF460BF2E09C034FEA8
:101970000AC0292F2660B22E06C028E030E005C03C
:1019800020E130E002C020E132E0F801B7FE07C0FC
:1019900060817181828193810C5F1F4F06C06081DD
:1019A000718180E090E00E5F1F4FA3010E94BA0D8D
:1019B000882E8618FB2DFF773F2E36FE0DC0232D77
:1019C0002E7FA22E891458F434FE0BC032FC09C0BD
:1019D000832D8E7EA82E05C0B82CA32C03C0B82C56
:1019E00001C0B92CA4FE0FC0FE01E80DF11D8081DD
:1019F000803321F49A2D997EA92E09C0A2FE06C03B
:101A0000B394B39404C08A2D867809F0B394A3FCF0
:101A100011C0A0FE06C0B21488F4280C922C9B18AA
:101A20000EC0B21460F4B60180E290E00E947E0D18
:101A3000B394F7CFB21418F42B1802C0982C212CB1
:101A4000A4FE10C0B60180E390E00E947E0DA2FECD
:101A500017C0A1FC03C088E790E002C088E590E0D1
:101A6000B6010CC08A2D867859F0A1FE02C08BE227
:101A700001C080E2A7FC8DE2B60190E00E947E0DDD
:101A8000891438F4B60180E390E00E947E0D9A94A8
:101A9000F7CF8A94F301E80DF11D8081B60190E043
:101AA0000E947E0D8110F5CF222009F442CEB601AE
:101AB00080E290E00E947E0D2A94F6CFF6018681A6
:101AC000978102C08FEF9FEF2B96E2E10C94340ECA
:101AD000FC010590615070400110D8F780959095F9
:101AE0008E0F9F1F0895FC016150704001900110FE
:101AF000D8F7809590958E0F9F1F08950F931F9391
:101B0000CF93DF93FB01238121FD03C08FEF9FEF74
:101B10002CC022FF16C0468157812481358142178F
:101B2000530744F4A081B1819D012F5F3F4F318362
:101B300020838C93268137812F5F3F4F3783268305
:101B400014C08B01EC01FB010084F185E02D0995A7
:101B5000892BE1F6D80116968D919C9117970196E5
:101B600017969C938E931697CE01DF91CF911F917C
:101B70000F910895FA01AA27283051F1203181F1FF
:101B8000E8946F936E7F6E5F7F4F8F4F9F4FAF4F85
:101B9000B1E03ED0B4E03CD0670F781F891F9A1F98
:101BA000A11D680F791F8A1F911DA11D6A0F711D4C
:101BB000811D911DA11D20D009F468943F912AE058
:101BC000269F11243019305D3193DEF6CF01089540
:101BD000462F4770405D4193B3E00FD0C9F7F6CF71
:101BE000462F4F70405D4A3318F0495D31FD405239
:101BF000419302D0A9F7EACFB4E0A69597958795CF
:101C000077956795BA95C9F70097610571050895AD
:101C10009B01AC010A2E0694579547953795279559
:101C2000BA95C9F7620F731F841F951FA01D0895F1
:101C30002F923F924F925F926F927F928F929F92DC
:101C4000AF92BF92CF92DF92EF92FF920F931F93CA
:101C5000CF93DF93CDB7DEB7CA1BDB0B0FB6F8947B
:101C6000DEBF0FBECDBF09942A88398848885F84BB
:101C70006E847D848C849B84AA84B984C884DF802C
:101C8000EE80FD800C811B81AA81B981CE0FD11D10
:101C90000FB6F894DEBF0FBECDBFED010895F894E6
:021CA000FFCF74
:101CA20000008E012000FFFFFFFF00000003000084
:101CB2000000BB06CD0600002564202D2025640A05
:021CC200000020
:00000001FF
