S0150000737761726D5F626F745F6370702E737265639F
S11300000C94B5000C94C2030C9486040C94D20096
S11300100C94D2000C94D2000C94D2000C9492064E
S11300200C94D2000C9488060C94D2000C94D20048
S11300300C94D2000C94AA070C94D2000C94D20015
S11300400C944E070C94D2000C94D2000C94D20061
S11300500C94D2000C94D2000C94D2000C94D200D4
S11300600C94D2000C94D2006E616E00696E66002E
S113007000407A10F35A00A0724E18090010A5D45B
S1130080E80000E87648170000E40B54020000CAB8
S11300909A3B000000E1F5050000809698000000FE
S11300A040420F000000A08601000000102700005D
S11300B00000E803000000006400000000000A00E3
S11300C0000000000100000000002C76D888DC67E6
S11300D04F0823DFC1DFAE59E1B1B796E5E3E4533E
S11300E0C63AE651997696E8E6C28426EB898C9B5B
S11300F062ED407C6FFCEFBC9C9F40F2BAA56FA5FB
S1130100F490055A2AF75C936B6CF9676DC11BFC7C
S1130110E0E40D47FEF520E6B500D0ED902E030097
S1130120943577050080841E080000204E0A0000E4
S113013000C80C333333330F986E12831141EF8DA3
S11301402114893BE65516CFFEE6DB18D1844B38E3
S11301501BF77C1D901DA4BBE424203284725E2214
S11301608100C9F124ECA1E53D2711241FBECFEF86
S1130170D8E0DEBFCDBF11E0A0E0B1E0E6E6F2E2F8
S113018002C005900D92A234B107D9F721E0A2E490
S1130190B1E001C01D92A23DB207E1F70E94B1088F
S11301A00C9431110C9400008F929F92AF92BF92E5
S11301B0CF92DF92EF92FF920F931F93CF93DF932F
S11301C049015A01E6011C821D821E821F82188287
S11301D019821A821B82688779878A879B872C8772
S11301E03D874E875F87E88AF98A0A8B1B8B20E05C
S11301F030E040E85FE30E94FF089B01AC0160E04F
S11302007EEF8FEF96E40E9470096C8B7D8B8E8B52
S11302109F8B20E030E040E85FE3C501B4010E9419
S1130220FF089B01AC0160E070E088EC92E40E945E
S11302307009688F798F8A8F9B8FDF91CF911F917F
S11302400F91FF90EF90DF90CF90BF90AF909F9071
S11302508F9008954F925F926F927F928F929F92A8
S1130260AF92BF92CF92DF92EF92FF920F931F93C0
S1130270CF93DF9300D000D000D0CDB7DEB74901D3
S11302805A011E830D830E94FE086B017C01D80174
S113029054964D905D906D907C905797A301920178
S11302A00E94CB0A1816BCF0A30192015058C70152
S11302B0B6010E946B098823BCF0F80120853185C2
S11302C042855385C701B6010E94D00A69837A83A7
S11302D08B839C8311C080E09EEFAFEFB6E48983EB
S11302E09A83AB83BC8308C080E09EEFAFEFB6EC8B
S11302F089839A83AB83BC83AD81BE8114962D918F
S11303003D914D915C911797C701B6010E94FF087A
S11303102B013C01ED81FE81C08CD18CE28CF38CED
S1130320A70196010E94CB0A18168CF4AD81BE81F8
S11303301496CD92DD92ED92FC9217970F2EC12C5C
S1130340D12CF8ECEF2EF2E4FF2EF02D2FC0F7FAAB
S1130350F094F7F8F094A7019601C301B2010E944A
S11303606B0988237CF4ED81FE81C482D582E68208
S1130370F7820F2EC12CD12CF8ECEF2EF2ECFF2ECD
S1130380F02D14C0AD81BE8114964D925D926D9294
S11303907C9217971C962D913D914D915C911F97DE
S11303A0C301B2010E94D00A6B017C01A501940132
S11303B0ED81FE8160817181828193810E94FE08BA
S11303C0AD81BE8150962D913D914D915C91539795
S11303D00E94D00A2B013C01ED81FE818082918232
S11303E0A282B382A701960169817A818B819C8163
S11303F00E94FF08A30192010E94FF0820E030E060
S113040040E05CE30E94D00A6B017C0120E03EEFF7
S11304104FEF56E40E94CB0A1816A4F020E03EEFFA
S11304204FEF56ECC701B6010E946B0988239CF478
S11304300F2EC12CFEEFDF2EEE24EA94F6ECFF2EF5
S1130440F02D09C00F2EC12CFEEFDF2EEE24EA940E
S1130450F6E4FF2EF02DC701B60126960FB6F894E8
S1130460DEBF0FBECDBFDF91CF911F910F91FF90E3
S1130470EF90DF90CF90BF90AF909F908F907F9040
S11304806F905F904F900895ECE7F0E080E48083F4
S1130490AAE7B0E08C9187688C938081808308956B
S11304A0ECE7F0E090818F70982B9083EAE7F0E01E
S11304B0808180648083808186FDFDCF8091780077
S11304C0909179000895813049F440934601509306
S11304D0470160934801709349010895823041F4C3
S11304E0409342015093430160934401709345014A
S11304F00895813049F460914601709147018091DB
S11305004801909149010895823049F46091420173
S1130510709143018091440190914501089560E0F8
S113052070E0CB010895813019F40E9446050895C6
S1130530823019F40E94E705089560E070E080E8D5
S11305409FEB0895813049F48FEF90E00E949C0660
S11305508FEF90E00E94B4060895823041F48FEF4B
S113056090E00E94A8068FEF90E00E94C3060895D1
S1130570CF93DF93EB01209719F40E94A20234C0B9
S1130580DD23B4F4813049F48FEF90E00E949C069F
S11305908FEF90E00E94B40627C0823029F58FEFD8
S11305A090E00E94A8068FEF90E00E94C3061CC052
S11305B01C161D06CCF4813059F48FEF90E00E9494
S11305C09C068FEF90E08C1B9D0B0E94B4060CC020
S11305D0823051F48FEF90E0861B970B0E94A8069F
S11305E08FEF90E00E94C306CE01DF91CF91089572
S11305F0CF92DF92EF92FF920F931F930F2EF6E6A6
S1130600CF2EF1E0DF2EF02DE12CF12C08EC14E4D8
S113061020E030E0A90160E070E080EA95E40E9407
S1130620D4000F2EFAE4CF2EF1E0DF2EF02D20E0DF
S113063030E0A90160E070E080EA95E40E94D40013
S113064078941F910F91FF90EF90DF90CF900895D1
S11306507F928F929F92AF92BF92CF92DF92EF924E
S1130660FF920F931F93CF93DF93C82F0E947902B9
S1130670D62FF72EE82ED92E8C2F0E949302C62E49
S1130680B72EA82E992EC13091F406E611E0762FEC
S1130690272F3B2D4A2D592D6D2F7F2D8E2D9D2DCE
S11306A00E942A01162F072F882E792E13C0C230DC
S11306B089F40AE411E0762F272F3B2D4A2D592D7A
S11306C06D2F7F2D8E2D9D2D0E942A01162F072F11
S11306D0882E792E612F702F882D972D0E94E20984
S11306E08C2F0E94B8027F928F920F931F939F9238
S11306F0AF92BF92CF92DF92EF92FF92DF938EE0A0
S113070091E09F938F930E94BD108DB79EB70E9674
S11307100FB6F8949EBF0FBE8DBF80E090E0DF91CE
S1130720CF911F910F91FF90EF90DF90CF90BF90EA
S1130730AF909F908F907F9008958091C3018823FC
S113074029F081E00E9428031092C3018091C20124
S1130750882329F082E00E9428031092C20180E0DD
S113076090E00895E89AE9E6F0E080818360808370
S113077078940895E99AE9E6F0E080818C608083BA
S1130780789408951F920F920FB60F9211242F920E
S11307903F924F925F926F927F928F929F92AF920D
S11307A0BF92CF92DF92EF92FF920F931F932F93FA
S11307B03F934F935F936F937F938F939F93AF93E5
S11307C0BF93CF93DF93EF93FF9395B181E0892794
S11307D085B980918E0190918F01A0919001B09183
S11307E09101892B8A2B8B2BE9F40E94E206DC0110
S11307F0CB018093A2019093A301A093A401B09391
S1130800A5011092A6011092A7011092A8011092BE
S1130810A9011092960110929701109298011092DA
S113082099013EC00E94E2061B012C01A090A20186
S1130830B090A301C090A401D090A501E090A601BE
S1130840F090A7010091A8011091A901262F332D42
S1130850442D552D60E070E080E090E00E947E0F12
S11308602093B2013093B3014093B4015093B50186
S11308706093B6017093B7018093B8019093B90166
S11308802092A2013092A3014092A4015092A501AA
S11308901092A6011092A7011092A8011092A9012A
S11308A080918E0190918F01A0919001B09191015E
S11308B00196A11DB11D80938E0190938F01A09389
S11308C09001B0939101FF91EF91DF91CF91BF918E
S11308D0AF919F918F917F916F915F914F913F91D4
S11308E02F911F910F91FF90EF90DF90CF90BF90C9
S11308F0AF909F908F907F906F905F904F903F90BC
S11309002F900F900FBE0F901F9018951F920F926B
S11309100FB60F9211242F923F924F925F926F92D3
S11309207F928F929F92AF92BF92CF92DF92EF927B
S1130930FF920F931F932F933F934F935F936F9364
S11309407F938F939F93AF93BF93CF93DF93EF9353
S1130950FF9380918A0190918B01A0918C01B091B9
S11309608D01892B8A2B8B2BE9F40E94E206DC0192
S1130970CB0180939A0190939B01A0939C01B09327
S11309809D0110929E0110929F011092A00110925D
S1130990A10110929201109293011092940110926D
S11309A095013EC00E94E2061B012C01A0909A0111
S11309B0B0909B01C0909C01D0909D01E0909E015D
S11309C0F0909F010091A0011091A101262F332DD9
S11309D0442D552D60E070E080E090E00E947E0F91
S11309E02093AA013093AB014093AC015093AD0125
S11309F06093AE017093AF018093B0019093B10105
S1130A0020929A0130929B0140929C0150929D0148
S1130A1010929E0110929F011092A0011092A101C8
S1130A2080918A0190918B01A0918C01B0918D01EC
S1130A300196A11DB11D80938A0190938B01A0930F
S1130A408C01B0938D01FF91EF91DF91CF91BF9114
S1130A50AF919F918F917F916F915F914F913F9152
S1130A602F911F910F91FF90EF90DF90CF90BF9047
S1130A70AF909F908F907F906F905F904F903F903A
S1130A802F900F900FBE0F901F901895AF92BF92AA
S1130A90CF92DF92EF92FF920F931F93CF93DF9346
S1130AA00E94E206A090A201B090A301C090A4010C
S1130AB0D090A501E090A601F090A7010091A801B3
S1130AC01091A901DC01CB01282F392F4A2F5B2F6C
S1130AD060E070E080E090E00E947E0F2032314AB6
S1130AE047405105610571058105910591F088F034
S1130AF01092960110929701109298011092990108
S1130B00609196017091970180919801909199015B
S1130B1053C02091B2013091B3014091B40150917E
S1130B20B5016091B6017091B7018091B8019091BF
S1130B30B9010E94180A9B01AC0160EC7FEE89E3C5
S1130B4098E40E94700960939601709397018093D2
S1130B509801909399016091960170919701809109
S1130B6098019091990120E030E040E251E40E9424
S1130B70CB0A18164CF4609186017091870180911C
S1130B8088019091890118C08091960190919701F4
S1130B90A0919801B0919901809386019093870167
S1130BA0A0938801B0938901609196017091970197
S1130BB08091980190919901DF91CF911F910F91AC
S1130BC0FF90EF90DF90CF90BF90AF900895AF92D9
S1130BD0BF92CF92DF92EF92FF920F931F93CF9326
S1130BE0DF930E94E206A0909A01B0909B01C0900E
S1130BF09C01D0909D01E0909E01F0909F01009196
S1130C00A0011091A101DC01CB01282F392F4A2F1B
S1130C105B2F60E070E080E090E00E947E0F203265
S1130C20314A47405105610571058105910591F0EF
S1130C3088F01092920110929301109294011092F4
S1130C40950160919201709193018091940190912A
S1130C50950153C02091AA013091AB014091AC01A0
S1130C605091AD016091AE017091AF018091B001DE
S1130C709091B1010E94180A9B01AC0160EC7FEED7
S1130C8089E398E40E947009609392017093930140
S1130C9080939401909395016091920170919301D6
S1130CA0809194019091950120E030E040E251E47C
S1130CB00E94CB0A18164CF4609182017091830152
S1130CC0809184019091850118C080919201909146
S1130CD09301A0919401B091950180938201909326
S1130CE08301A0938401B093850160919201709176
S1130CF093018091940190919501DF91CF911F917F
S1130D000F91FF90EF90DF90CF90BF90AF90089538
S1130D101F920F920FB60F9211240F900FBE0F90D7
S1130D201F9018951F920F920FB60F9211240F90D7
S1130D300FBE0F901F901895992314F480E090E053
S1130D408F3F910519F014F08FEF90E087BD08955F
S1130D50992314F480E090E08F3F910519F014F08A
S1130D608FEF90E088BD0895992314F480E090E01B
S1130D708F3F910519F014F08FEF90E08093890074
S1130D80109288000895992314F480E090E08F3F36
S1130D90910519F014F08FEF90E080938B0010927E
S1130DA08A00089584B5806A84BD84B5836084BD57
S1130DB085B5846085BDEEE6F0E080818160808346
S1130DC078940895AF92BF92CF92DF92EF92FF9200
S1130DD00F931F93A89B26C086B58F3F19F12091CE
S1130DE0BA013091BB014091BC015091BD016091A9
S1130DF0BE017091BF018091C0019091C101A1E039
S1130E000E94720F2093BA013093BB014093BC013E
S1130E105093BD016093BE017093BF018093C001E4
S1130E209093C101A6B42091BA013091BB014091C5
S1130E30BC015091BD016091BE017091BF018091D0
S1130E40C0019091C10108E00E94500FB12CC12C47
S1130E50D12CE12CF12C00E010E00E94690F822FCC
S1130E60932FA42FB52F880F991FAA1FBB1F880F7C
S1130E70991FAA1FBB1FBC01CD01660F771F881FD6
S1130E80991F660F771F881F991F1F910F91FF905D
S1130E90EF90DF90CF90BF90AF9008951F920F9284
S1130EA00FB60F9211242F933F934F935F936F9339
S1130EB07F938F939F93AF932091BA013091BB019D
S1130EC04091BC015091BD016091BE017091BF0180
S1130ED08091C0019091C101A1E00E94720F209302
S1130EE0BA013093BB014093BC015093BD016093A0
S1130EF0BE017093BF018093C0019093C101AF9173
S1130F009F918F917F916F915F914F913F912F911D
S1130F100F900FBE0F901F901895E0E8F0E08081CD
S1130F20806A80838081826080838FEF9FEF9093BB
S1130F30870080938600E1E8F0E080818861808307
S1130F40808181608083EFE6F0E08081816080832E
S1130F50789408951F920F920FB60F921124AF92B6
S1130F60BF92CF92DF92EF92FF920F931F932F9332
S1130F703F934F935F936F937F938F939F93AF931D
S1130F80BF93EF93FF932091C4013091C501409129
S1130F90C6015091C7016091C8017091C901809147
S1130FA0CA019091CB01A1E00E94720F2093C40169
S1130FB03093C5014093C6015093C7016093C801A3
S1130FC07093C9018093CA019093CB012091C4010D
S1130FD03091C5014091C6015091C7016091C8018B
S1130FE07091C9018091CA019091CB010F2EF6E056
S1130FF0AF2EF02DB12CC12CD12CE12CF12C00E022
S113100010E00E94BA0EA0E00E94870F29F481E04C
S11310108093C3018093C2012091C4013091C50122
S11310204091C6015091C7016091C8017091C901F6
S11310308091CA019091CB010F2EF8E8AF2EF02DCC
S11310400F2EF9E0BF2EF02DC12CD12CE12CF12C68
S113105000E010E00E94BA0EA0E00E94870F79F42D
S113106082E00E9450029F938F9385E291E09F93C8
S11310708F930E94BD100F900F900F900F90FF91CF
S1131080EF91BF91AF919F918F917F916F915F91FC
S11310904F913F912F911F910F91FF90EF90DF900F
S11310A0CF90BF90AF900F900FBE0F901F901895E8
S11310B01092B00080E88093B300E1EBF0E080810F
S11310C087608083E0E7F0E0808180830895E0EC2E
S11310D0F0E0908195FFFDCF8093C60080E090E022
S11310E00895E0ECF0E080818823ECF78091C6005D
S11310F090E008951092C50080E18093C40088E1D7
S11311008093C10086E08093C200ECECF1E080E0C3
S113111091E0938382839183808308958FEF84B9D0
S113112082E68AB90E947A080E9444020E948D07CE
S11311300E94D2060E94580883E00E94B20383E012
S11311400E94BA030895CF93DF93EC01BC0181E0C0
S11311500E94B802BE0182E00E94B802DF91CF91E2
S11311600895F8940E948E0878940E94F80240E052
S113117050E060EC70E481E00E94630240E050E0E3
S113118060EC70E482E00E946302C0E0D0E004E31B
S113119011E02196339B05C080E090E00E94A308F3
S11311A086B10E949D03CA30D105F1F40E94E7057F
S11311B0C62FD72FF82EE92E0E944605EF92FF92F4
S11311C0DF93CF939F938F937F936F931F930F938B
S11311D00E94BD108DB79EB70A960FB6F8949EBFB5
S11311E00FBE8DBFC0E0D0E09FEF21EE84E09150B0
S11311F020408040E1F700C00000CBCF5058BB270F
S1131200AA270E9416090C94910A0E94830A38F0B6
S11312100E948A0A20F039F49F3F19F426F40C94B2
S1131220800A0EF4E095E7FB0C947A0AE92F0E94F9
S1131230A20A58F3BA17620773078407950720F0C8
S113124079F4A6F50C94C40A0EF4E0950B2EBA2F8B
S1131250A02D0B01B90190010C01CA01A0011124B8
S1131260FF27591B99F0593F50F4503E68F11A1664
S1131270F040A22F232F342F4427585FF3CF4695F5
S113128037952795A795F0405395C9F77EF41F1617
S1131290BA0B620B730B840BBAF09150A1F0FF0FE1
S11312A0BB1F661F771F881FC2F70EC0BA0F621FCD
S11312B0731F841F48F4879577956795B795F795BD
S11312C09E3F08F0B0CF9395880F08F09927EE0F52
S11312D09795879508950E94560A08F481E0089529
S11312E00E9484090C94910A0E948A0A58F00E9470
S11312F0830A40F029F45F3F29F00C947A0A5111D3
S11313000C94C50A0C94800A0E94A20A68F39923DB
S1131310B1F3552391F3951B550BBB27AA276217ED
S11313207307840738F09F5F5F4F220F331F441FFA
S1131330AA1FA9F335D00E2E3AF0E0E832D091502E
S11313405040E695001CCAF72BD0FE2F29D0660F1B
S1131350771F881FBB1F261737074807AB07B0E85E
S113136009F0BB0B802DBF01FF2793585F4F3AF064
S11313709E3F510578F00C947A0A0C94C50A5F3F9D
S1131380E4F3983ED4F3869577956795B795F795EA
S11313909F5FC9F7880F911D9695879597F90895D2
S11313A0E1E0660F771F881FBB1F6217730784076E
S11313B0BA0720F0621B730B840BBA0BEE1F88F77D
S11313C0E09508950E94E9096894B1110C94C50A46
S11313D008950E94AA0A88F09F5798F0B92F992778
S11313E0B751B0F0E1F0660F771F881F991F1AF00C
S11313F0BA95C9F714C0B13091F00E94C40AB1E0A3
S113140008950C94C40A672F782F8827B85F39F0A1
S1131410B93FCCF3869577956795B395D9F73EF4A4
S113142090958095709561957F4F8F4F9F4F08954C
S1131430E894F92F96EBFF2381F012161306140695
S1131440440B9395F6958795779567955795404006
S1131450FF23B9F71BC099270895882351F49850A6
S1131460D2F7872B762F652F542F432F322F20E06E
S1131470B1F3121613061406440B88233AF09A9516
S1131480440F551F661F771F881FCAF755234AF458
S1131490440F551F11F460FF04C06F5F7F4F8F4FDF
S11314A09F4F880F9695879597F90895990F00088F
S11314B0550FAA0BE0E8FEEF16161706E807F90722
S11314C0C0F012161306E407F50798F0621B730BBD
S11314D0840B950B39F40A2661F0232B242B252B3E
S11314E021F408950A2609F4A140A6958FEF811DE1
S11314F0811D089597F99F6780E870E060E0089582
S11315009FEF80EC089500240A9416161706180617
S11315100906089500240A941216130614060506F3
S11315200895092E0394000C11F4882352F0BB0F84
S113153040F4BF2B11F460FF04C06F5F7F4F8F4FE7
S11315409F4F089557FD9058440F551F59F05F3F22
S113155071F04795880F97FB991F61F09F3F79F0D1
S113156087950895121613061406551FF2CF469553
S1131570F1DF08C0161617061806991FF1CF8695D5
S11315807105610508940895E894BB2766277727B9
S1131590CB0197F908950E94560A08F48FEF089535
S11315A00E94E30A0C94910A0E94830A38F00E9474
S11315B08A0A20F0952311F00C947A0A0C94800A7C
S11315C011240C94C50A0E94A20A70F3959FC1F3DA
S11315D0950F50E0551F629FF001729FBB27F00DDD
S11315E0B11D639FAA27F00DB11DAA1F649F662732
S11315F0B00DA11D661F829F2227B00DA11D621F81
S1131600739FB00DA11D621F839FA00D611D221F3A
S1131610749F3327A00D611D231F849F600D211D1E
S1131620822F762F6A2F11249F5750409AF0F1F0A1
S113163088234AF0EE0FFF1FBB1F661F771F881F0A
S113164091505040A9F79E3F510580F00C947A0ABE
S11316500C94C50A5F3FE4F3983ED4F386957795DE
S11316606795B795F795E7959F5FC1F7FE2B880FB0
S1131670911D9695879597F90895A0E1B0E0E3E46C
S1131680FBE00C94190F7C011B016A01FC01178219
S11316901682838181FF44C39E012F5F3F4F39012E
S11316A0F7019381F10193FD859193FF81911F01CE
S11316B0882309F431C3853239F493FD859193FF6E
S11316C081911F01853239F4B70190E00E948110A5
S11316D056016501E5CF10E0512C912CFFE1F9157D
S11316E0D8F08B3279F038F4803279F08332A1F477
S11316F0F92DF0612EC08D3261F0803369F4292D0B
S113170021602DC0392D3260932E892D8460982E4E
S11317102AC0E92DE86015C097FC2DC020ED280FE4
S11317202A3088F496FE06C03AE0139F200D112457
S1131730122F19C08AE0589E200D1124522EE92D33
S1131740E0629E2E10C08E3231F496FCE5C2F92D73
S1131750F0649F2E08C08C3621F4292D2068922E27
S113176002C0883641F4F10193FD859193FF819184
S11317701F018111B3CF9BEB980F933020F4992D67
S11317809061805E07C09BE9980F933008F066C1B2
S1131790992D9F7E96FF16E09F73992E853619F436
S11317A09064992E08C0863621F4392F3068932E20
S11317B002C01111115097FE07C01C3350F4442489
S11317C04394410E27E00BC0183038F027E017E0AF
S11317D005C027E09CE3492E02C0212F412C56016D
S11317E084E0A80EB11CF60160817181828193812D
S11317F0042DA3010E94930F6C01F981FC87F0FF73
S113180002C0F3FF06C091FC06C092FE06C000E2CF
S113181005C00DE203C00BE201C000E08C858C70B2
S113182019F001115AC29BC297FE10C04C0CFC85E2
S1131830F4FF04C08A81813309F44A94141474F5C2
S113184028E0241578F588E0482E2CC096FC2AC0A0
S1131850812F90E08C159D059CF03CEFC3163FEF63
S1131860D30674F0892D8068982E0AC0E2E0F0E077
S1131870EC0FFD1FE10FF11D8081803319F411502D
S11318801111F4CF97FE0EC044244394410E812FCE
S113189090E0C816D9062CF41C1904C044244394BF
S11318A001C010E097FE06C01C141D0434F4C601E8
S11318B0019605C085E090E002C081E090E001114E
S11318C00196112331F0212F30E02F5F3F4F820F1B
S11318D0931F252D30E08217930714F4581A01C082
S11318E0512C892D897049F4552039F0B70180E2D3
S11318F090E00E9481105A94F7CF002329F0B70199
S1131900802F90E00E94811093FC09C0552039F08B
S1131910B70180E390E00E9481105A94F7CF97FEBC
S11319204CC04601D7FE02C0812C912CC6018819F7
S11319309909F301E80FF91FFE87ED879601241931
S11319403109388B2F87012F10E01195019511096A
S11319503FEF8316930629F4B7018EE290E00E94CC
S11319608110C814D9044CF08F859889881599057D
S113197024F4ED85FE85818101C080E3F1E08F1AB6
S113198091082D853E852F5F3F4F3E872D8780161A
S113199091062CF0B70190E00E948110D9CFC814B1
S11319A0D90441F49A81963320F4953319F43C8593
S11319B034FF81E3B70190E04EC08A81813319F08E
S11319C09C859F7E9C87B70190E00E948110111135
S11319D005C094FC18C085E690E017C0B7018EE2FC
S11319E090E00E9481101E5F82E001E0080FF30185
S11319F0E80FF11D8081B70190E00E948110802FD3
S1131A000113F3CFE6CF85E490E0B7010E94811083
S1131A10D7FC06C0C114D10441F4EC85E4FF05C031
S1131A20D194C194D1088DE201C08BE2B70190E05A
S1131A300E94811080E32AE0C216D1042CF08F5F4B
S1131A40FAE0CF1AD108F7CFB70190E00E948110D5
S1131A50B701C601C0960E94811054C1833631F08B
S1131A60833779F0833509F056C020C0560132E03F
S1131A70A30EB11CF6018081898301E010E06301AB
S1131A8012C05601F2E0AF0EB11CF601C080D18045
S1131A9096FE03C0612F70E002C06FEF7FEFC601B6
S1131AA00E9476108C01F92DFF7714C0560122E0B4
S1131AB0A20EB11CF601C080D18096FE03C0612F36
S1131AC070E002C06FEF7FEFC6010E946B108C01C3
S1131AD0F92DF0689F2EF3FD1AC0852D90E00817AC
S1131AE01907A8F4B70180E290E00E9481105A948B
S1131AF0F4CFF60197FC859197FE81916F01B701B0
S1131B0090E00E94811051105A940150110901155E
S1131B10110579F7F7C0843611F0893661F556015D
S1131B2097FE09C024E0A20EB11CF6016081718108
S1131B30828193810AC0F2E0AF0EB11CF60160818C
S1131B407181072E000C880B990BF92DFF769F2EBF
S1131B5097FF09C090958095709561957F4F8F4F41
S1131B609F4FF0689F2E2AE030E0A3010E94D3101B
S1131B70C82EC6183FC0092D853721F40F7E2AE0F0
S1131B8030E01DC0097F8F3691F018F4883559F084
S1131B90C3C0803719F0883711F0BEC0006104FF5C
S1131BA009C0046007C094FE08C0066006C028E0AF
S1131BB030E005C020E130E002C020E132E056010F
S1131BC007FF09C084E0A80EB11CF6016081718191
S1131BD08281938108C0F2E0AF0EB11CF6016081EE
S1131BE0718180E090E0A3010E94D310C82EC61832
S1131BF00F77902E96FE0BC0092D0E7FC11650F460
S1131C0094FE0AC092FC08C0092D0E7E05C0DC2C8F
S1131C10092D03C0DC2C01C0D12E04FF0DC0FE0130
S1131C20EC0DF11D8081803311F4097E09C002FF9F
S1131C3006C0D394D39404C0802F867809F0D3943B
S1131C4003FD11C000FF06C01C2DD51480F4150D32
S1131C501D190DC0D51458F4B70180E290E00E941C
S1131C608110D394F7CFD51410F45D1801C0512C12
S1131C7004FF10C0B70180E390E00E94811002FFCE
S1131C8017C001FD03C088E790E002C088E590E03A
S1131C90B7010CC0802F867859F001FF02C08BE297
S1131CA001C080E207FD8DE2B70190E00E9481103F
S1131CB0C11638F4B70180E390E00E9481101150FE
S1131CC0F7CFCA94F301EC0DF11D8081B70190E0C8
S1131CD00E948110C110F5CF15C0F4E0F51560F530
S1131CE084E0581A93FE1FC0011127C02C8523FFDE
S1131CF02AC008E610E0392D3071932EF801849142
S1131D00811124C0552009F4E4CCB70180E290E0AD
S1131D100E9481105A94F6CFF7018681978126C0DC
S1131D208FEF9FEF23C0B70180E290E00E94811003
S1131D305A945110F8CFD8CF512CB701802F90E08E
S1131D400E948110D3CF0CE610E0D5CF91108052C1
S1131D50B70190E00E9481100F5F1F4FCFCF23E0A7
S1131D60251510F483E0BDCF512CC0CF6096E2E17D
S1131D700C94350F689401C0E8948F929F92CF938E
S1131D80DF930E94C80EDF91CF919F908F900895AA
S1131D9088249924F401E401B0E49F93AA279A15B6
S1131DA08B049C04ED05FE05CF05D007A10798F42C
S1131DB0AD2FDC2FCF2FFE2FE92D982C892E982FB5
S1131DC0872F762F652F542F432F322F2227B85079
S1131DD031F7BF9127C01B2EBF91BB27220F331FA2
S1131DE0441F551F661F771F881F991F881C991C45
S1131DF0EE1FFF1FCC1FDD1FAA1FBB1F8A149B04ED
S1131E00EC05FD05CE05DF05A007B10748F08A18EB
S1131E109B08EC09FD09CE09DF09A00BB10B216079
S1131E201A94E1F62EF49401AF01BE01CD01000C29
S1131E3008952F923F924F925F926F927F928F926A
S1131E409F92AF92BF92CF92DF92EF92FF920F9345
S1131E501F93CF93DF93CDB7DEB7CA1BDB0B0FB64F
S1131E60F894DEBF0FBECDBF09942A88398848880C
S1131E705F846E847D848C849B84AA84B984C884A2
S1131E80DF80EE80FD800C811B81AA81B981CE0F99
S1131E90D11D0FB6F894DEBF0FBECDBFED0108957E
S1131EA00F93083090F0982F872F762F652F542F9B
S1131EB0432F322F22270850F4CF220F331F441F01
S1131EC0551F661F771F881F991F0A95B2F70F9138
S1131ED008952A0D3B1D4C1D5D1D6E1D7F1D801F29
S1131EE0911F08950024A7FD00942A0F301D401D62
S1131EF0501D601D701D801D901D08952A193B09F9
S1131F004C095D096E097F09800B910B089500242B
S1131F10A7FD00942A17300540055005600570059B
S1131F20800590050895283008F027E03327DA016A
S1131F30990F311D87FD916000966105710539F493
S1131F4032602E5F3D9330E32A95E1F708959F3F79
S1131F5030F080387105610509F03C5F3C5F3D93CA
S1131F60913008F08068911DDF93CF931F930F93F6
S1131F70FF92EF92192F987F9695E92F9695969553
S1131F80E90FFF27E653FF4F99273327EE24FF2459
S1131F90A701E70105900894079428F4360FE71E7B
S1131FA0F81E491F511D660F771F881F991F06943D
S1131FB0A1F70590079428F4E70EF81E491F561F51
S1131FC0C11D770F881F991F661F0694A1F70590FE
S1131FD0079428F4F80E491F561FC71FD11D880FF8
S1131FE0991F661F771F0694A1F70590079420F4A4
S1131FF0490F561FC71FD81F990F661F771F881FC9
S11320000694A9F784911095177041F0D695C79559
S113201057954795F794E7941A95C1F7E0E7F0E0F0
S113202068941590159135916591959105907FE28D
S11320307395E118F10A430B560BC90BD009C0F78D
S1132040E10CF11E431F561FC91FD01D7EF47033CF
S113205011F48A95E6CFE894015030F0080F0AF4A1
S11320600027021708F4202F2395022F7A3328F033
S113207079E37D932A95E9F710C07D932A9589F633
S1132080069497956795379517951794E118F10A73
S1132090430B560BC90BD00998F023957E91739589
S11320A07A3308F070E37C932013B8F77E91706163
S11320B07D9330F0839571E37D9370E32A95E1F786
S11320C01124EF90FF900F911F91CF91DF919927E9
S11320D087FD90950895FC010590615070400110B2
S11320E0D8F7809590958E0F9F1F0895FC0161503D
S11320F0704001900110D8F7809590958E0F9F1F26
S113210008950F931F93CF93DF93FB01238121FD48
S113211003C08FEF9FEF2CC022FF16C0468157816A
S1132120248135814217530744F4A081B1819D0174
S11321302F5F3F4F318320838C93268137812F5F1C
S11321403F4F3783268314C08B01EC01FB010084CD
S1132150F185E02D0995892BE1F6D80116968D912C
S11321609C911797019617969C938E931697CE0180
S1132170DF91CF911F910F910895A0E0B0E0E3ECBF
S1132180F0E10C94290FAE014B5F5F4FFA016191AE
S11321907191AF018091CE019091CF010E943D0BCE
S11321A0E2E00C94450FFA01AA27283051F12031BE
S11321B081F1E8946F936E7F6E5F7F4F8F4F9F4FD7
S11321C0AF4FB1E03ED0B4E03CD0670F781F891F19
S11321D09A1FA11D680F791F8A1F911DA11D6A0FE7
S11321E0711D811D911DA11D20D009F468943F919A
S11321F02AE0269F11243019305D3193DEF6CF0199
S11322000895462F4770405D4193B3E00FD0C9F75E
S1132210F6CF462F4F70405D4A3318F0495D31FDCB
S11322204052419302D0A9F7EACFB4E0A69597951E
S1132230879577956795BA95C9F7009761057105F4
S113224008959B01AC010A2E06945795479537953E
S11322502795BA95C9F7620F731F841F951FA01D98
S10922600895F894FFCF7D
S11322660000000300000000670871080000253123
S11322762E3266202D2025312E3266202D20253142
S11322862E32660A003C6274723E25643C2F6274E8
S1132296723E0A0025312E32662C25312E32660A0C
S10522A6000032
S9030000FC
