:100000000C9434000C947A000C9407010C94510069
:100010000C9451000C9451000C9451000C9451001C
:100020000C9451000C94C9010C9451000C94510093
:100030000C9451000C94FC020C9431020C9451006D
:100040000C9451000C9451000C9451000C945100EC
:100050000C9451000C9451000C9451000C945100DC
:100060000C9451000C94510011241FBECFEFD8E026
:10007000DEBFCDBF11E0A0E0B1E0EAE9F9E002C0E7
:1000800005900D92A831B107D9F721E0A8E1B1E0C0
:1000900001C01D92AE34B207E1F70E9479030C94BF
:1000A000CB040C940000ECE7F0E080E48083AAE746
:1000B000B0E08C9187688C93808180830895ECE711
:1000C000F0E090818F70982B9083EAE7F0E08081D8
:1000D00080648083808186FDFDCF8091780090913F
:1000E00079000895E89AE9E6F0E0808183608083F2
:1000F000789408951F920F920FB60F9211242F93A8
:100100003F934F935F936F937F938F939F93AF939F
:10011000BF93EF93FF931092240110922501109248
:1001200026011092270110922801109229011092A5
:100130002A0110922B010E94B502209334013093C2
:100140003501409336015093370160933801709325
:10015000390180933A0190933B014C9B24C020913C
:100160002401309125014091260150912701609191
:1001700028017091290180912A0190912B01A1E021
:100180000E949E0320932401309325014093260171
:1001900050932701609328017093290180932A01CD
:1001A00090932B0123C0209124013091250140918F
:1001B00026015091270160912801709129018091B9
:1001C0002A0190912B01AFEF0E949E0320932401FE
:1001D0003093250140932601509327016093280115
:1001E0007093290180932A0190932B01FF91EF9145
:1001F000BF91AF919F918F917F916F915F914F913F
:100200003F912F910F900FBE0F901F9018951F9246
:100210000F920FB60F9211242F933F934F935F933A
:100220006F937F938F939F93AF93BF93EF93FF93BE
:10023000109224011092250110922601109227019C
:10024000109228011092290110922A0110922B017C
:100250000E94B50220932C0130932D0140932E0172
:1002600050932F01609330017093310180933201DC
:10027000909333014F9B24C020911C0130911D01AC
:1002800040911E0150911F01609120017091210148
:100290008091220190912301A1E00E949E0320936E
:1002A0001C0130931D0140931E0150931F01609368
:1002B000200170932101809322019093230123C098
:1002C00020911C0130911D0140911E0150911F0190
:1002D0006091200170912101809122019091230170
:1002E000AFEF0E949E0320931C0130931D014093A9
:1002F0001E0150931F016093200170932101809390
:10030000220190932301FF91EF91BF91AF919F91B3
:100310008F917F916F915F914F913F912F910F90AE
:100320000FBE0F901F9018950F931F93CF93DF93DD
:10033000623071054CF1EC018B010150110960E054
:1003400070E0AA81BB819B01772384F048815981A9
:10035000A417B50758F4FE01538342832150310995
:1003600028F052914291A417B507B0F3F9013196E4
:10037000EE0FFF1FE80FF91FB183A0836F5F7F4F60
:10038000229660177107E9F6DF91CF911F910F91C7
:1003900008951F920F920FB60F921124EF92FF92C1
:1003A0000F931F932F933F934F935F936F937F937D
:1003B0008F939F93AF93BF93CF93DF93EF93FF936D
:1003C00080E00E945F00885C91098935924038F096
:1003D0008FEF9FEF90931B0180931A0123C08091B0
:1003E0000801909109010196E9F08AE090E00E94ED
:1003F000AA037C01EC018C01065F1F4F80E00E9484
:100400005F0089939993C017D107C1F765E070E049
:10041000C7010E949401F7018481958190931B018B
:1004200080931A0180911A0190911B019093090108
:1004300080930801FF91EF91DF91CF91BF91AF9130
:100440009F918F917F916F915F914F913F912F91EC
:100450001F910F91FF90EF900F900FBE0F901F9084
:1004600018951F920F920FB60F921124EF92FF92E0
:100470000F931F932F933F934F935F936F937F93AC
:100480008F939F93AF93BF93CF93DF93EF93FF939C
:1004900081E00E945F00885C91098935924038F0C4
:1004A0008FEF9FEF909319018093180123C08091E3
:1004B0000801909109010196E9F08AE090E00E941C
:1004C000AA037C01EC018C01065F1F4F81E00E94B2
:1004D0005F0089939993C017D107C1F765E070E079
:1004E000C7010E949401F7018481958190931901BD
:1004F0008093180180911801909119019093070140
:1005000080930601FF91EF91DF91CF91BF91AF9161
:100510009F918F917F916F915F914F913F912F911B
:100520001F910F91FF90EF900F900FBE0F901F90B3
:100530001895E0E8F0E08081806A808380818260A5
:1005400080838FEF9FEF9093870080938600E1E890
:10055000F0E0808188618083808185608083EFE620
:10056000F0E080818160808308952F923F924F92C6
:100570005F926F927F928F929F92AF92BF92CF9233
:10058000DF92EF92FF920F931F9320908400E091EF
:10059000850020913C0130913D0140913E015091F8
:1005A0003F01609140017091410180914201909121
:1005B000430100E10E947C03312C3E2AA22CB32C83
:1005C000C12CD12CE12CF12C00E010E00E9495030D
:1005D0000CE00E947C031F910F91FF90EF90DF9041
:1005E000CF90BF90AF909F908F907F906F905F90D3
:1005F0004F903F902F9008951F920F920FB60F9239
:1006000011242F933F934F935F936F937F938F9317
:100610009F93AF9320913C0130913D0140913E0169
:1006200050913F01609140017091410180914201E0
:1006300090914301A1E00E949E0320933C013093DE
:100640003D0140933E0150933F0160934001709300
:1006500041018093420190934301AF919F918F910B
:100660007F916F915F914F913F912F910F900FBEAE
:100670000F901F901895CF93C82F8A3019F48DE0F2
:100680000E943B03E0ECF0E0808185FFFDCFC0934A
:10069000C60080E090E0CF910895E0ECF0E080812A
:1006A0008823ECF78091C60090E008951092C50071
:1006B00080E18093C40088E18093C10086E080934C
:1006C000C200E0ECF0E0808182608083E8E4F1E049
:1006D0008AE091E0938382839183808308950E94CE
:1006E00056030E9453000E94990283E00E94720008
:1006F00008950E946F03FFCF0F93083090F0982F5A
:10070000872F762F652F542F432F322F2227085003
:10071000F4CF220F331F441F551F661F771F881FFA
:10072000991F0A95B2F70F9108952A0D3B1D4C1D94
:100730005D1D6E1D7F1D801F911F08950024A7FD64
:1007400000942A0F301D401D501D601D701D801D1E
:10075000901D08950F931F93CF93DF9382309105DF
:1007600010F482E090E0E0914601F091470120E032
:1007700030E0A0E0B0E0309719F140815181028172
:10078000138148175907C8F08417950769F4109723
:1007900031F012960C93129713961C9327C0009376
:1007A00046011093470122C02115310519F0421767
:1007B000530718F49A01BD01EF01DF01F801DBCF07
:1007C00021153105F9F0281B390B2430310580F44F
:1007D0008A819B816115710521F0FB0193838283DE
:1007E00004C09093470180934601FE01329644C0B5
:1007F000FE01E20FF31F8193919322503109398357
:1008000028833AC02091440130914501232B41F4C3
:10081000209102013091030130934501209344015E
:1008200020910001309101012115310541F42DB7CE
:100830003EB74091040150910501241B350BE09116
:100840004401F0914501E217F307A0F42E1B3F0B82
:100850002817390778F0AC014E5F5F4F2417350732
:1008600048F04E0F5F1F5093450140934401819320
:10087000919302C0E0E0F0E0CF01DF91CF911F91B2
:100880000F910895CF93DF93009709F481C0FC0185
:10089000329713821282A0914601B09147011097BE
:1008A00081F420813181820F931F20914401309186
:1008B00045012817390751F5F0934501E0934401AC
:1008C00067C0ED0120E030E0CE17DF0740F44A8139
:1008D0005B819E0141155105F1F0EA01F5CFD3830B
:1008E000C28340815181840F951FC817D90759F4DD
:1008F00088819981840F951F0296918380838A81D4
:100900009B81938382832115310529F4F09347015C
:10091000E09346013DC0E901FB83EA834991599187
:10092000C40FD51FEC17FD0761F480819181840FFE
:10093000951F0296E90199838883828193819B8325
:100940008A83E0E0F0E012968D919C9113970097D6
:1009500019F0FD01DC01F7CF8D919C9111979D015C
:100960002E5F3F4F820F931F20914401309145012C
:100970002817390769F4309729F41092470110922B
:10098000460102C013821282B0934501A093440134
:0A099000DF91CF910895F894FFCF96
:10099A0000004E012000FFFFFFFF000000030000DF
:0809AA0000003B034D030000B7
:00000001FF
