:100000000C94B5000C946E020C9454030C94D20022
:100010000C94D2000C94D2000C94D2000C94BF0427
:100020000C94D2000C9459040C94D2000C94D2007D
:100030000C94D2000C9437060C94D2000C94D2008D
:100040000C94DB050C94D2000C94D2000C94D200DA
:100050000C94D2000C94D2000C94D2000C94D200D8
:100060000C94D2000C94D2006E616E00696E660032
:1000700000407A10F35A00A0724E18090010A5D45F
:10008000E80000E87648170000E40B54020000CABC
:100090009A3B000000E1F505000080969800000002
:1000A00040420F000000A086010000001027000061
:1000B0000000E803000000006400000000000A00E7
:1000C000000000000100000000002C76D888DC67EA
:1000D0004F0823DFC1DFAE59E1B1B796E5E3E45342
:1000E000C63AE651997696E8E6C28426EB898C9B5F
:1000F00062ED407C6FFCEFBC9C9F40F2BAA56FA5FF
:10010000F490055A2AF75C936B6CF9676DC11BFC80
:10011000E0E40D47FEF520E6B500D0ED902E03009B
:10012000943577050080841E080000204E0A0000E8
:1001300000C80C333333330F986E12831141EF8DA7
:100140002114893BE65516CFFEE6DB18D1844B38E7
:100150001BF77C1D901DA4BBE424203284725E2218
:100160008100C9F124ECA1E53D2711241FBECFEF8A
:10017000D8E0DEBFCDBF11E0A0E0B1E0EEE4FFE1EA
:1001800002C005900D92A833B107D9F721E0A8E38A
:10019000B1E001C01D92A239B207E1F70E940C073D
:1001A0000C94A50F0C940000CF93DF93FB01E901A1
:1001B0001A821B821C821D82198218829F838E8361
:1001C000798768875B874A87BC016F5F7F4F8FEFB6
:1001D0009FE70E94A30C7D876C879F012F5F3F4F95
:1001E000032E000C440B550B6FEF7FEF8FEF9FE357
:1001F0000E94B70C2E873F87488B598BDF91CF9198
:100200000895EF92FF920F931F93CF93DF938B018B
:10021000FA01861B970B248535852817390784F04A
:10022000319521953109821793076CF0268137812A
:10023000829FE001839FD00D929FD00D112405C0B5
:10024000CFEFDFE702C0C1E0D0E8092E000CAA0B17
:10025000BB0B42815381648175819A01AB01280FE8
:10026000391F4A1F5B1F86859785A089B189821730
:100270009307A407B5074CF482839383A483B583C3
:100280006FEF7FEF8FEF9FE31DC0B095A095909526
:1002900081959F4FAF4FBF4F281739074A075B071C
:1002A0004CF482839383A483B58361E070E080E0A3
:1002B00090EC08C02283338344835583A085B185A5
:1002C0000E94D60C20813181201B310BA285B38581
:1002D0002A9F70012B9FF00C3A9FF00C1124118380
:1002E00000838E01DD0F220B330BAB01BC01400FED
:1002F000511F621F731FC701FF0CAA0BBB0B480FD6
:10030000591F6A1F7B1FDB01CA01772324F4815820
:100310009F4FAF4FBF4F689416F8B595A795979527
:1003200087951694D1F7813020E892072FEFA20726
:10033000B20724F481E090E8AFEFBFEF811520E829
:100340009207A105B10524F08FEF9FE7A0E0B0E090
:10035000DF91CF911F910F91FF90EF900895ECE7FF
:10036000F0E080E48083AAE7B0E08C9187688C930A
:10037000808180830895ECE7F0E090818F70982B66
:100380009083EAE7F0E0808180648083808186FD4D
:10039000FDCF80917800909179000895813019F413
:1003A0000E940C040895823019F40E943E040895BE
:1003B00060E070E080E89FEB0895813049F48FEFB2
:1003C00090E00E94C9048FEF90E00E94E10408953C
:1003D000823041F48FEF90E00E94D5048FEF90E0DF
:1003E0000E94F0040895CF93DF93EB01209719F456
:1003F0000E94DD0134C0DD23B4F4813049F48FEF75
:1004000090E00E94C9048FEF90E00E94E10427C0B1
:10041000823029F58FEF90E00E94D5048FEF90E0B5
:100420000E94F0041CC01C161D06CCF4813059F447
:100430008FEF90E00E94C9048FEF90E08C1B9D0B22
:100440000E94E1040CC0823051F48FEF90E0861BD3
:10045000970B0E94D5048FEF90E00E94F004CE012C
:10046000DF91CF91089528E331E040E850E060E06B
:1004700071E080E09AE00E94D400789408950F9390
:100480001F93CF93C82F813019F000E010E002C015
:1004900009E010E08C2F0E94CE010E94CB0748E3B8
:1004A00051E0C8010E9401018C01BC018C2F0E9407
:1004B000F301C801CF911F910F910895E89AE9E6E1
:1004C000F0E080818360808378940895E99AE9E67A
:1004D000F0E080818C608083789408951F920F9261
:1004E0000FB60F9211242F923F924F925F926F920C
:1004F0007F928F929F92AF92BF92CF92DF92EF92B4
:10050000FF920F931F932F933F934F935F936F939C
:100510007F938F939F93AF93BF93CF93DF93EF938B
:10052000FF9395B181E0892785B98091520190911F
:100530005301A0915401B0915501892B8A2B8B2B2B
:10054000E9F40E940F05DC01CB01809362019093D6
:100550006301A0936401B09365011092660110924B
:100560006701109268011092690110925601109271
:100570005701109258011092590160C00E940F0556
:100580001B012C01A0906201B0906301C090640136
:10059000D0906501E0906601F090670100916801DC
:1005A00010916901262F332D442D552D60E070E008
:1005B00080E090E00E94A20D2093720130937301BD
:1005C00040937401509375016093760170937701A5
:1005D00080937801909379012092620130926301B7
:1005E0004092640150926501109266011092670179
:1005F000109268011092690120917201309173018B
:10060000409174015091750160917601709177016C
:1006100080917801909179010E9401089B01AC01C1
:1006200060EC7FEE89E398E40E94590760935601DD
:100630007093570180935801909359018091520112
:1006400090915301A0915401B09155010196A11DC3
:10065000B11D8093520190935301A0935401B09324
:100660005501FF91EF91DF91CF91BF91AF919F9194
:100670008F917F916F915F914F913F912F911F913A
:100680000F91FF90EF90DF90CF90BF90AF909F9031
:100690008F907F906F905F904F903F902F900F9032
:1006A0000FBE0F901F9018951F920F920FB60F92CA
:1006B00011242F923F924F925F926F927F928F926E
:1006C0009F92AF92BF92CF92DF92EF92FF920F93E1
:1006D0001F932F933F934F935F936F937F938F93CA
:1006E0009F93AF93BF93CF93DF93EF93FF9380914B
:1006F0004E0190914F01A0915001B0915101892B71
:100700008A2B8B2BA9F40E940F05DC01CB0180936F
:100710005A0190935B01A0935C01B0935D0110922C
:100720005E0110925F0110926001109261013EC063
:100730000E940F051B012C01A0905A01B0905B0193
:10074000C0905C01D0905D01E0905E01F0905F018F
:100750000091600110916101262F332D442D552DFC
:1007600060E070E080E090E00E94A20D20936A01BA
:1007700030936B0140936C0150936D0160936E0157
:1007800070936F01809370019093710120925A01D0
:1007900030925B0140925C0150925D0110925E01CB
:1007A00010925F01109260011092610180914E01E0
:1007B00090914F01A0915001B09151010196A11D5E
:1007C000B11D80934E0190934F01A0935001B093BF
:1007D0005101FF91EF91DF91CF91BF91AF919F9127
:1007E0008F917F916F915F914F913F912F911F91C9
:1007F0000F91FF90EF90DF90CF90BF90AF909F90C0
:100800008F907F906F905F904F903F902F900F90C0
:100810000FBE0F901F90189560915601709157016F
:10082000809158019091590120E030E040EA51E474
:100830000E94900818164CF460914A0170914B0187
:1008400080914C0190914D010895809156019091B5
:100850005701A0915801B091590180934A0190939A
:100860004B01A0934C01B0934D01609156017091E2
:1008700057018091580190915901089520916A0182
:1008800030916B0140916C0150916D0160916E014E
:1008900070916F0180917001909171010E94010827
:1008A0009B01AC0160EC7FEE89E398E40E9459075C
:1008B00008951F920F920FB60F921124AF92BF921C
:1008C000CF92DF92EF92FF920F931F932F933F935C
:1008D0004F935F936F937F938F939F93AF93BF9348
:1008E000CF93DF93EF93FF930E940F05A0906201D7
:1008F000B0906301C0906401D0906501E090660102
:10090000F09067010091680110916901DC01CB0151
:10091000282F392F4A2F5B2F60E070E080E090E0B5
:100920000E94A20D203A36484140510561057105EB
:100930008105910549F040F010925601109257013F
:100940001092580110925901FF91EF91DF91CF91D0
:10095000BF91AF919F918F917F916F915F914F91D7
:100960003F912F911F910F91FF90EF90DF90CF90CB
:10097000BF90AF900F900FBE0F901F9018951F92D1
:100980000F920FB60F9211240F900FBE0F901F9071
:100990001895992314F480E090E08F3F910519F0A9
:1009A00014F08FEF90E087BD0895992314F480E050
:1009B00090E08F3F910519F014F08FEF90E088BD23
:1009C0000895992314F480E090E08F3F910519F089
:1009D00014F08FEF90E080938900109288000895C2
:1009E000992314F480E090E08F3F910519F014F002
:1009F0008FEF90E080938B0010928A00089584B569
:100A0000806A84BD84B5836084BD85B5846085BDFE
:100A1000EEE6F0E080818160808378940895AF9263
:100A2000BF92CF92DF92EF92FF920F931F93A89BFA
:100A300026C086B58F3F19F120917A0130917B0154
:100A400040917C0150917D0160917E0170917F0108
:100A50008091800190918101A1E00E94960D2093E8
:100A60007A0130937B0140937C0150937D01609328
:100A70007E0170937F018093800190938101A6B4E1
:100A800020917A0130917B0140917C0150917D0150
:100A900060917E0170917F01809180019091810130
:100AA00008E00E94740DB12CC12CD12CE12CF12C4A
:100AB00000E010E00E948D0D822F932FA42FB52F00
:100AC000880F991FAA1FBB1F880F991FAA1FBB1F42
:100AD000BC01CD01660F771F881F991F660F771F16
:100AE000881F991F1F910F91FF90EF90DF90CF907B
:100AF000BF90AF900895AF92BF92CF92DF92EF92E6
:100B0000FF920F931F93A89B26C086B58F3F19F1C4
:100B100020917A0130917B0140917C0150917D01BF
:100B200060917E0170917F0180918001909181019F
:100B3000A1E00E94960D20937A0130937B014093AF
:100B40007C0150937D0160937E0170937F018093BF
:100B5000800190938101A6B420917A0130917B01AC
:100B600040917C0150917D0160917E0170917F01E7
:100B7000809180019091810108E00E94740DB12C58
:100B8000C12CD12CE12CF12C00E010E00E948D0D45
:100B90000E9401082FE632E143E85CE30E949508D9
:100BA0000E94D2071F910F91FF90EF90DF90CF909E
:100BB000BF90AF9008951F920F920FB60F9211241D
:100BC0002F933F934F935F936F937F938F939F9355
:100BD000AF9320917A0130917B0140917C0150913B
:100BE0007D0160917E0170917F01809180019091E3
:100BF0008101A1E00E94960D20937A0130937B0140
:100C000040937C0150937D0160937E0170937F013E
:100C10008093800190938101AF919F918F917F91FB
:100C20006F915F914F913F912F910F900FBE0F9059
:100C30001F901895E0E8F0E08081806A80838081D1
:100C4000826080838FEF9FEF909387008093860070
:100C5000E1E8F0E080818861808380818160808329
:100C6000EFE6F0E0808181608083789408951F92A0
:100C70000F920FB60F921124AF92BF92CF92DF92D4
:100C8000EF92FF920F931F932F933F934F935F9396
:100C90006F937F938F939F93AF93BF93EF93FF9344
:100CA0002091840130918501409186015091870106
:100CB000609188017091890180918A0190918B01E6
:100CC000A1E00E94960D209384013093850140930A
:100CD0008601509387016093880170938901809306
:100CE0008A0190938B0181E080938301809382013C
:100CF00020918401309185014091860150918701B6
:100D0000609188017091890180918A0190918B0195
:100D10000F2EF8E8AF2EF02D0F2EF9E0BF2EF02D9C
:100D2000C12CD12CE12CF12C00E010E00E94DE0C53
:100D3000A0E00E94AB0D79F482E00E94BB019F937A
:100D40008F938EE091E09F938F930E94310F0F90CD
:100D50000F900F900F90FF91EF91BF91AF919F91E6
:100D60008F917F916F915F914F913F912F911F9143
:100D70000F91FF90EF90DF90CF90BF90AF900F90CA
:100D80000FBE0F901F9018951092B00080E88093CE
:100D9000B300E1EBF0E0808187608083E0E7F0E082
:100DA0008081836080830895E0ECF0E0908195FF7E
:100DB000FDCF8093C60080E090E00895E0ECF0E085
:100DC00080818823ECF78091C60090E0089510920E
:100DD000C50080E18093C40088E18093C10086E073
:100DE0008093C200ECE8F1E080E091E0938382839D
:100DF0009183808308950E94E7060E94AF010E94BC
:100E00001A060E94FF040E94C40683E00E945E024C
:100E100083E00E9466020895F8940E94FB068FEF1B
:100E200084B982E68AB90E94330278940E947B05D5
:100E3000EB010F2EF9E8CF2ED12CF02DEE24EA9401
:100E4000F12C0DE111E081E00E943F020E947B0540
:100E5000DC01CB018C1B9D0BA109B109853F9140A1
:100E6000A105B105E0F00E940C04F60120819F93DA
:100E70008F937F936F93C701821B91099F938F93E9
:100E80001F930F930E94310F0E947B05EB018DB7DA
:100E90009EB708960FB6F8949EBF0FBE8DBF9FE712
:100EA000E8E3F1E09150E040F040E1F700C00000DD
:100EB000CACF0E946D070C9456080E944F0858F044
:100EC0000E94480840F029F45F3F29F00C943F0845
:100ED00051110C948A080C9445080E94670868F325
:100EE0009923B1F3552391F3951B550BBB27AA27E3
:100EF00062177307840738F09F5F5F4F220F331F1D
:100F0000441FAA1FA9F335D00E2E3AF0E0E832D0E4
:100F100091505040E695001CCAF72BD0FE2F29D0E7
:100F2000660F771F881FBB1F261737074807AB07B9
:100F3000B0E809F0BB0B802DBF01FF2793585F4F2E
:100F40003AF09E3F510578F00C943F080C948A08C3
:100F50005F3FE4F3983ED4F3869577956795B79510
:100F6000F7959F5FC9F7880F911D9695879597F91B
:100F70000895E1E0660F771F881FBB1F6217730794
:100F80008407BA0720F0621B730B840BBA0BEE1FA9
:100F900088F7E09508950E94D2076894B1110C94E7
:100FA0008A0808950E946F0888F09F5798F0B92F1B
:100FB0009927B751B0F0E1F0660F771F881F991F8E
:100FC0001AF0BA95C9F714C0B13091F00E9489089F
:100FD000B1E008950C948908672F782F8827B85FAF
:100FE00039F0B93FCCF3869577956795B395D9F7E6
:100FF0003EF490958095709561957F4F8F4F9F4FF0
:101000000895E894F92F96EBFF2381F0121613064A
:101010001406440B9395F6958795779567955795A4
:101020004040FF23B9F71BC099270895882351F446
:101030009850D2F7872B762F652F542F432F322FBE
:1010400020E0B1F3121613061406440B88233AF07D
:101050009A95440F551F661F771F881FCAF755239F
:101060004AF4440F551F11F460FF04C06F5F7F4FB7
:101070008F4F9F4F880F9695879597F9089597F909
:101080009F6780E870E060E008959FEF80EC08952E
:1010900000240A9416161706180609060895002457
:1010A0000A9412161306140605060895092E0394D1
:1010B000000C11F4882352F0BB0F40F4BF2B11F445
:1010C00060FF04C06F5F7F4F8F4F9F4F089557FDA4
:1010D0009058440F551F59F05F3F71F04795880FA6
:1010E00097FB991F61F09F3F79F08795089512163D
:1010F00013061406551FF2CF4695F1DF08C01616E9
:1011000017061806991FF1CF869571056105089499
:101110000895E894BB2766277727CB0197F90895B0
:101120000E94020908F48FEF08950E94A8080C9409
:1011300056080E94480838F00E944F0820F0952376
:1011400011F00C943F080C94450811240C948A0863
:101150000E94670870F3959FC1F3950F50E0551FEB
:10116000629FF001729FBB27F00DB11D639FAA27FC
:10117000F00DB11DAA1F649F6627B00DA11D661F4B
:10118000829F2227B00DA11D621F739FB00DA11D6C
:10119000621F839FA00D611D221F749F3327A00D26
:1011A000611D231F849F600D211D822F762F6A2FC2
:1011B00011249F5750409AF0F1F088234AF0EE0F27
:1011C000FF1FBB1F661F771F881F91505040A9F754
:1011D0009E3F510580F00C943F080C948A085F3FB5
:1011E000E4F3983ED4F3869577956795B795F79590
:1011F000E7959F5FC1F7FE2B880F911D9695879508
:1012000097F90895990F0008550FAA0BE0E8FEEF33
:1012100016161706E807F907C0F012161306E407BA
:10122000F50798F0621B730B840B950B39F40A26B3
:1012300061F0232B242B252B21F408950A2609F491
:10124000A140A6958FEF811D811D0895A0E1B0E01A
:10125000ECE2F9E00C943D0D7C011B016A01FC01FC
:1012600017821682838181FF44C39E012F5F3F4F07
:101270003901F7019381F10193FD859193FF8191EC
:101280001F01882309F431C3853239F493FD859118
:1012900093FF81911F01853239F4B70190E00E94DC
:1012A000F50E56016501E5CF10E0512C912CFFE1C0
:1012B000F915D8F08B3279F038F4803279F0833236
:1012C000A1F4F92DF0612EC08D3261F0803369F404
:1012D000292D21602DC0392D3260932E892D8460F7
:1012E000982E2AC0E92DE86015C097FC2DC020ED8E
:1012F000280F2A3088F496FE06C03AE0139F200D8E
:101300001124122F19C08AE0589E200D1124522E4C
:10131000E92DE0629E2E10C08E3231F496FCE5C2BB
:10132000F92DF0649F2E08C08C3621F4292D2068F9
:10133000922E02C0883641F4F10193FD859193FF0E
:1013400081911F018111B3CF9BEB980F933020F453
:10135000992D9061805E07C09BE9980F933008F04B
:1013600066C1992D9F7E96FF16E09F73992E853654
:1013700019F49064992E08C0863621F4392F30680C
:10138000932E02C01111115097FE07C01C3350F468
:1013900044244394410E27E00BC0183038F027E076
:1013A00017E005C027E09CE3492E02C0212F412C05
:1013B000560184E0A80EB11CF60160817181828122
:1013C0009381042DA3010E94070E6C01F981FC8713
:1013D000F0FF02C0F3FF06C091FC06C092FE06C0FB
:1013E00000E205C00DE203C00BE201C000E08C8505
:1013F0008C7019F001115AC29BC297FE10C04C0CA0
:10140000FC85F4FF04C08A81813309F44A941414E2
:1014100074F528E0241578F588E0482E2CC096FC59
:101420002AC0812F90E08C159D059CF03CEFC316DF
:101430003FEFD30674F0892D8068982E0AC0E2E051
:10144000F0E0EC0FFD1FE10FF11D8081803319F4F6
:1014500011501111F4CF97FE0EC044244394410E55
:10146000812F90E0C816D9062CF41C1904C044241E
:10147000439401C010E097FE06C01C141D0434F410
:10148000C601019605C085E090E002C081E090E0D1
:1014900001110196112331F0212F30E02F5F3F4FD2
:1014A000820F931F252D30E08217930714F4581AEA
:1014B00001C0512C892D897049F4552039F0B701AC
:1014C00080E290E00E94F50E5A94F7CF002329F0B5
:1014D000B701802F90E00E94F50E93FC09C05520C3
:1014E00039F0B70180E390E00E94F50E5A94F7CFEF
:1014F00097FE4CC04601D7FE02C0812C912CC6013C
:1015000088199909F301E80FF91FFE87ED87960105
:1015100024193109388B2F87012F10E0119501957F
:1015200011093FEF8316930629F4B7018EE290E08C
:101530000E94F50EC814D9044CF08F85988988153F
:10154000990524F4ED85FE85818101C080E3F1E0F9
:101550008F1A91082D853E852F5F3F4F3E872D873F
:10156000801691062CF0B70190E00E94F50ED9CFBD
:10157000C814D90441F49A81963320F4953319F4B0
:101580003C8534FF81E3B70190E04EC08A8181330E
:1015900019F09C859F7E9C87B70190E00E94F50E14
:1015A000111105C094FC18C085E690E017C0B70182
:1015B0008EE290E00E94F50E1E5F82E001E0080FCF
:1015C000F301E80FF11D8081B70190E00E94F50E54
:1015D000802F0113F3CFE6CF85E490E0B7010E949E
:1015E000F50ED7FC06C0C114D10441F4EC85E4FF2C
:1015F00005C0D194C194D1088DE201C08BE2B7013E
:1016000090E00E94F50E80E32AE0C216D1042CF08F
:101610008F5FFAE0CF1AD108F7CFB70190E00E94B0
:10162000F50EB701C601C0960E94F50E54C183366F
:1016300031F0833779F0833509F056C020C0560168
:1016400032E0A30EB11CF6018081898301E010E035
:10165000630112C05601F2E0AF0EB11CF601C0806A
:10166000D18096FE03C0612F70E002C06FEF7FEF64
:10167000C6010E94EA0E8C01F92DFF7714C05601B5
:1016800022E0A20EB11CF601C080D18096FE03C0FC
:10169000612F70E002C06FEF7FEFC6010E94DF0E86
:1016A0008C01F92DF0689F2EF3FD1AC0852D90E076
:1016B00008171907A8F4B70180E290E00E94F50E20
:1016C0005A94F4CFF60197FC859197FE81916F01B2
:1016D000B70190E00E94F50E51105A940150110983
:1016E0000115110579F7F7C0843611F0893661F5D7
:1016F000560197FE09C024E0A20EB11CF6016081DC
:101700007181828193810AC0F2E0AF0EB11CF601B3
:1017100060817181072E000C880B990BF92DFF76E3
:101720009F2E97FF09C090958095709561957F4F8A
:101730008F4F9F4FF0689F2E2AE030E0A3010E9458
:10174000470FC82EC6183FC0092D853721F40F7EDC
:101750002AE030E01DC0097F8F3691F018F48835FB
:1017600059F0C3C0803719F0883711F0BEC000614E
:1017700004FF09C0046007C094FE08C0066006C0EC
:1017800028E030E005C020E130E002C020E132E096
:10179000560107FF09C084E0A80EB11CF601608164
:1017A00071818281938108C0F2E0AF0EB11CF60115
:1017B0006081718180E090E0A3010E94470FC82EF4
:1017C000C6180F77902E96FE0BC0092D0E7FC116FE
:1017D00050F494FE0AC092FC08C0092D0E7E05C08C
:1017E000DC2C092D03C0DC2C01C0D12E04FF0DC060
:1017F000FE01EC0DF11D8081803311F4097E09C0DA
:1018000002FF06C0D394D39404C0802F867809F0D9
:10181000D39403FD11C000FF06C01C2DD51480F425
:10182000150D1D190DC0D51458F4B70180E290E0D4
:101830000E94F50ED394F7CFD51410F45D1801C0B3
:10184000512C04FF10C0B70180E390E00E94F50E18
:1018500002FF17C001FD03C088E790E002C088E5E1
:1018600090E0B7010CC0802F867859F001FF02C0CC
:101870008BE201C080E207FD8DE2B70190E00E949B
:10188000F50EC11638F4B70180E390E00E94F50E22
:101890001150F7CFCA94F301EC0DF11D8081B7010F
:1018A00090E00E94F50EC110F5CF15C0F4E0F515DB
:1018B00060F584E0581A93FE1FC0011127C02C85E3
:1018C00023FF2AC008E610E0392D3071932EF8016D
:1018D0008491811124C0552009F4E4CCB70180E241
:1018E00090E00E94F50E5A94F6CFF7018681978119
:1018F00026C08FEF9FEF23C0B70180E290E00E94E7
:10190000F50E5A945110F8CFD8CF512CB701802F33
:1019100090E00E94F50ED3CF0CE610E0D5CF9110E9
:101920008052B70190E00E94F50E0F5F1F4FCFCF9E
:1019300023E0251510F483E0BDCF512CC0CF609675
:10194000E2E10C94590D97FB072E16F4009407D092
:1019500077FD09D00E94B70D07FC05D03EF49095A5
:1019600081959F4F0895709561957F4F0895052E3D
:1019700097FB1EF400940E94CE0C57FD07D00E94E6
:10198000CB0D07FC03D04EF40C94CE0C5095409533
:10199000309521953F4F4F4F5F4F0895909580951B
:1019A000709561957F4F8F4F9F4F0895B7FF0C94AF
:1019B000ED0D0E94ED0D821B930B0895689401C0FC
:1019C000E8948F929F92CF93DF930E94EC0CDF916B
:1019D000CF919F908F90089588249924F401E40179
:1019E000B0E49F93AA279A158B049C04ED05FE058D
:1019F000CF05D007A10798F4AD2FDC2FCF2FFE2FF6
:101A0000E92D982C892E982F872F762F652F542F0C
:101A1000432F322F2227B85031F7BF9127C01B2EFA
:101A2000BF91BB27220F331F441F551F661F771F0F
:101A3000881F991F881C991CEE1FFF1FCC1FDD1FDC
:101A4000AA1FBB1F8A149B04EC05FD05CE05DF050C
:101A5000A007B10748F08A189B08EC09FD09CE09D8
:101A6000DF09A00BB10B21601A94E1F62EF494016A
:101A7000AF01BE01CD01000C08952F923F924F920D
:101A80005F926F927F928F929F92AF92BF92CF920E
:101A9000DF92EF92FF920F931F93CF93DF93CDB717
:101AA000DEB7CA1BDB0B0FB6F894DEBF0FBECDBF8F
:101AB00009942A88398848885F846E847D848C8460
:101AC0009B84AA84B984C884DF80EE80FD800C8169
:101AD0001B81AA81B981CE0FD11D0FB6F894DEBF4C
:101AE0000FBECDBFED0108950F93083090F0982FF1
:101AF000872F762F652F542F432F322F2227085000
:101B0000F4CF220F331F441F551F661F771F881FF6
:101B1000991F0A95B2F70F9108952A0D3B1D4C1D90
:101B20005D1D6E1D7F1D801F911F08950024A7FD60
:101B300000942A0F301D401D501D601D701D801D1A
:101B4000901D08952A193B094C095D096E097F090A
:101B5000800B910B08950024A7FD00942A173005EF
:101B60004005500560057005800590050895AA1B85
:101B7000BB1B51E107C0AA1FBB1FA617B70710F078
:101B8000A61BB70B881F991F5A95A9F780959095AA
:101B9000BC01CD010895A1E21A2EAA1BBB1BFD01B9
:101BA0000DC0AA1FBB1FEE1FFF1FA217B307E4073C
:101BB000F50720F0A21BB30BE40BF50B661F771F94
:101BC000881F991F1A9469F7609570958095909574
:101BD0009B01AC01BD01CF0108950E94F80DA59FA6
:101BE000900DB49F900DA49F800D911D1124089518
:101BF000A29FB001B39FC001A39F700D811D11244E
:101C0000911DB29F700D811D1124911D08952830E2
:101C100008F027E03327DA01990F311D87FD916025
:101C200000966105710539F432602E5F3D9330E313
:101C30002A95E1F708959F3F30F0803871056105DE
:101C400009F03C5F3C5F3D93913008F08068911D46
:101C5000DF93CF931F930F93FF92EF92192F987FEB
:101C60009695E92F96959695E90FFF27E653FF4F36
:101C700099273327EE24FF24A701E7010590089454
:101C8000079428F4360FE71EF81E491F511D660FF2
:101C9000771F881F991F0694A1F70590079428F4D1
:101CA000E70EF81E491F561FC11D770F881F991F89
:101CB000661F0694A1F70590079428F4F80E491FB3
:101CC000561FC71FD11D880F991F661F771F0694C7
:101CD000A1F70590079420F4490F561FC71FD81F7E
:101CE000990F661F771F881F0694A9F78491109596
:101CF000177041F0D695C79557954795F794E79497
:101D00001A95C1F7E0E7F0E06894159015913591C8
:101D10006591959105907FE27395E118F10A430B67
:101D2000560BC90BD009C0F7E10CF11E431F561F1B
:101D3000C91FD01D7EF4703311F48A95E6CFE89464
:101D4000015030F0080F0AF40027021708F4202F82
:101D50002395022F7A3328F079E37D932A95E9F7CA
:101D600010C07D932A9589F60694979567953795C7
:101D700017951794E118F10A430B560BC90BD009BC
:101D800098F023957E9173957A3308F070E37C93F5
:101D90002013B8F77E9170617D9330F0839571E3E5
:101DA0007D9370E32A95E1F71124EF90FF900F9156
:101DB0001F91CF91DF91992787FD90950895FC01A0
:101DC0000590615070400110D8F7809590958E0F66
:101DD0009F1F0895FC016150704001900110D8F7D9
:101DE000809590958E0F9F1F08950F931F93CF930B
:101DF000DF93FB01238121FD03C08FEF9FEF2CC0F8
:101E000022FF16C04681578124813581421753072E
:101E100044F4A081B1819D012F5F3F4F3183208326
:101E20008C93268137812F5F3F4F3783268314C0E1
:101E30008B01EC01FB010084F185E02D0995892BD4
:101E4000E1F6D80116968D919C91179701961796F9
:101E50009C938E931697CE01DF91CF911F910F9196
:101E60000895A0E0B0E0E7E3FFE00C944D0DAE0173
:101E70004B5F5F4FFA0161917191AF0180918E01CB
:101E800090918F010E942609E2E00C94690DFA01FD
:101E9000AA27283051F1203181F1E8946F936E7FA9
:101EA0006E5F7F4F8F4F9F4FAF4FB1E03ED0B4E09A
:101EB0003CD0670F781F891F9A1FA11D680F791FDB
:101EC0008A1F911DA11D6A0F711D811D911DA11DEC
:101ED00020D009F468943F912AE0269F11243019FC
:101EE000305D3193DEF6CF010895462F4770405D97
:101EF0004193B3E00FD0C9F7F6CF462F4F70405D46
:101F00004A3318F0495D31FD4052419302D0A9F7A0
:101F1000EACFB4E0A6959795879577956795BA959A
:101F2000C9F700976105710508959B01AC010A2E60
:101F300006945795479537952795BA95C9F7620F37
:0E1F4000731F841F951FA01D0895F894FFCFF6
:101F4E000000000300000000D406DE0600003C6224
:101F5E0074723E25643C2F6274723E0A004F4352E7
:101F6E003041203A2025642C2073656E73203A2070
:081F7E0025312E3366200A0014
:00000001FF
