:100000000C94B5000C9457010C942B020C94D20064
:100010000C94D2000C94D2000C94D2000C943204B4
:100020000C94D2000C94A9030C94D2000C94D2002E
:100030000C94D2000C94D3050C94D2000C94D200F2
:100040000C9477050C94D2000C94D2000C94D2003E
:100050000C94D2000C94D2000C94D2000C94D200D8
:100060000C94D2000C94D2006E616E00696E660032
:1000700000407A10F35A00A0724E18090010A5D45F
:10008000E80000E87648170000E40B54020000CABC
:100090009A3B000000E1F505000080969800000002
:1000A00040420F000000A086010000001027000061
:1000B0000000E803000000006400000000000A00E7
:1000C000000000000100000000002C76D888DC67EA
:1000D0004F0823DFC1DFAE59E1B1B796E5E3E45342
:1000E000C63AE651997696E8E6C28426EB898C9B5F
:1000F00062ED407C6FFCEFBC9C9F40F2BAA56FA5FF
:10010000F490055A2AF75C936B6CF9676DC11BFC80
:10011000E0E40D47FEF520E6B500D0ED902E03009B
:10012000943577050080841E080000204E0A0000E8
:1001300000C80C333333330F986E12831141EF8DA7
:100140002114893BE65516CFFEE6DB18D1844B38E7
:100150001BF77C1D901DA4BBE424203284725E2218
:100160008100C9F124ECA1E53D2711241FBECFEF8A
:10017000D8E0DEBFCDBF11E0A0E0B1E0EAE2FFE1F0
:1001800002C005900D92AA32B107D9F721E0AAE288
:10019000B1E001C01D92AA37B207E1F70E949606AE
:1001A0000C94930F0C940000ECE7F0E080E4808363
:1001B000AAE7B0E08C9187688C9380818083089552
:1001C000ECE7F0E090818F70982B9083EAE7F0E005
:1001D000808180648083808186FDFDCF809178005E
:1001E000909179000895813049F480E090E00E9478
:1001F000C50480E090E00E94DD040895823041F45F
:1002000080E090E00E94D10480E090E00E94EC0445
:100210000895CF93DF93EB01209719F40E94F30028
:1002200032C0DD23D4F4813059F488279927861B06
:10023000970B0E94C50480E090E00E94DD0423C07B
:10024000823009F580E090E00E94D1048827992748
:100250008C1B9D0B0E94EC0416C01C161D069CF402
:10026000813041F480E090E00E94C504CE010E94FC
:10027000DD0409C0823039F4CB010E94D10480E052
:1002800090E00E94EC04CE01DF91CF910895E89AAE
:10029000E9E6F0E080818360808378940895E99AAC
:1002A000E9E6F0E080818C608083789408951F9265
:1002B0000F920FB60F9211242F923F924F925F929E
:1002C0006F927F928F929F92AF92BF92CF92DF9266
:1002D000EF92FF920F931F932F933F934F935F9350
:1002E0006F937F938F939F93AF93BF93CF93DF933E
:1002F000EF93FF9380913A0190913B01A0913C01D3
:10030000B0913D01892B8A2B8B2BA9F40E940B0500
:10031000DC01CB018093460190934701A0934801F3
:10032000B093490110924A0110924B0110924C0176
:1003300010924D013EC00E940B051B012C01A090A4
:100340004601B0904701C0904801D0904901E0902B
:100350004A01F0904B0100914C0110914D01262F64
:10036000332D442D552D60E070E080E090E00E9438
:10037000BF0C20935601309357014093580150937E
:10038000590160935A0170935B0180935C019093D3
:100390005D012092460130924701409248015092FF
:1003A000490110924A0110924B0110924C01109297
:1003B0004D014C9B17C080913A0190913B01A09157
:1003C0003C01B0913D010196A11DB11D80933A0100
:1003D00090933B01A0933C01B0933D0181E0809359
:1003E0000B0116C080913A0190913B01A0913C0114
:1003F000B0913D010197A109B10980933A01909311
:100400003B01A0933C01B0933D018FEF80930B0122
:10041000FF91EF91DF91CF91BF91AF919F918F911C
:100420007F916F915F914F913F912F911F910F910C
:10043000FF90EF90DF90CF90BF90AF909F908F9004
:100440007F906F905F904F903F902F900F900FBED6
:100450000F901F9018951F920F920FB60F921124B4
:100460002F923F924F925F926F927F928F929F92C4
:10047000AF92BF92CF92DF92EF92FF920F931F93B2
:100480002F933F934F935F936F937F938F939F939C
:10049000AF93BF93CF93DF93EF93FF938091360198
:1004A00090913701A0913801B0913901892B8A2BA5
:1004B0008B2BA9F40E940B05DC01CB0180933E013C
:1004C00090933F01A0934001B093410110924201EB
:1004D0001092430110924401109245013EC00E94C7
:1004E0000B051B012C01A0903E01B0903F01C09074
:1004F0004001D0904101E0904201F0904301009111
:10050000440110914501262F332D442D552D60E0D7
:1005100070E080E090E00E94BF0C20934E01309389
:100520004F014093500150935101609352017093D9
:100530005301809354019093550120923E013092D3
:100540003F014092400150924101109242011092AD
:10055000430110924401109245014F9B17C08091B6
:10056000360190913701A0913801B091390101967F
:10057000A11DB11D8093360190933701A0933801DE
:10058000B093390181E080930A0116C08091360151
:1005900090913701A0913801B09139010197A109DB
:1005A000B1098093360190933701A0933801B0933D
:1005B00039018FEF80930A01FF91EF91DF91CF9185
:1005C000BF91AF919F918F917F916F915F914F916B
:1005D0003F912F911F910F91FF90EF90DF90CF905F
:1005E000BF90AF909F908F907F906F905F904F9053
:1005F0003F902F900F900FBE0F901F901895609115
:100600003A0170913B0180913C0190913D01089528
:10061000CF92DF92EF92FF92CF93C0910B01209186
:100620005601309157014091580150915901609104
:100630005A0170915B0180915C0190915D010E9473
:1006400082079B01AC0160EC7FEE89E398E40E9495
:10065000D3066B017C016C2FCC0F770B880B990BA9
:100660000E9447079B01AC01C701B6010E94110817
:10067000CF91FF90EF90DF90CF900895CF92DF92CF
:10068000EF92FF92CF93C0910A0120914E013091D9
:100690004F01409150015091510160915201709170
:1006A000530180915401909155010E9482079B0152
:1006B000AC0160EC7FEE89E398E40E94D3066B0105
:1006C0007C016C2FCC0F770B880B990B0E9447078E
:1006D0009B01AC01C701B6010E941108CF91FF90A8
:1006E000EF90DF90CF9008950F931F93CF93DF93F8
:1006F000623071054CF1EC018B010150110960E091
:1007000070E0AA81BB819B01772384F048815981E5
:10071000A417B50758F4FE015383428321503109D1
:1007200028F052914291A417B507B0F3F901319620
:10073000EE0FFF1FE80FF91FB183A0836F5F7F4F9C
:10074000229660177107E9F6DF91CF911F910F9103
:1007500008951F920F920FB60F921124EF92FF92FD
:100760000F931F932F933F934F935F936F937F93B9
:100770008F939F93AF93BF93CF93DF93EF93FF93A9
:1007800080E00E94E000885C91098935924038F051
:100790008FEF9FEF909335018093340144C0809197
:1007A000080190910901019659F40E940803609391
:1007B0002E0170932F01809330019093310133C04B
:1007C0008AE090E00E94D40C7C01EC018C01065F71
:1007D0001F4F80E00E94E00089939993C017D107D2
:1007E000C1F765E070E0C7010E947403F7018481DE
:1007F000958190933501809334016091340170911B
:1008000035018091080190910901681B790B80E006
:1008100090E00E94450760932E0170932F01809312
:100820003001909331018091340190913501909382
:10083000090180930801FF91EF91DF91CF91BF9162
:10084000AF919F918F917F916F915F914F913F9168
:100850002F911F910F91FF90EF900F900FBE0F906F
:100860001F9018951F920F920FB60F921124EF92BE
:10087000FF920F931F932F933F934F935F936F9329
:100880007F938F939F93AF93BF93CF93DF93EF9318
:10089000FF9381E00E94E000885C910989359240D5
:1008A00088F08FEF9FEF90933301809332010E9485
:1008B000080360932A0170932B0180932C0190937D
:1008C0002D0144C08091080190910901019659F4CD
:1008D0000E943E0360932A0170932B0180932C01A8
:1008E00090932D0133C08AE090E00E94D40C7C01EB
:1008F000EC018C01065F1F4F81E00E94E0008993AC
:100900009993C017D107C1F765E070E0C7010E9455
:100910007403F701848195819093330180933201B0
:10092000609132017091330180910601909107012D
:10093000681B790B80E090E00E94450760932A01D4
:1009400070932B0180932C0190932D0180913201A3
:10095000909133019093070180930601FF91EF91ED
:10096000DF91CF91BF91AF919F918F917F916F91C7
:100970005F914F913F912F911F910F91FF90EF90B9
:100980000F900FBE0F901F901895992314F480E0DC
:1009900090E08F3F910519F014F08FEF90E087BD44
:1009A0000895992314F480E090E08F3F910519F0A9
:1009B00014F08FEF90E088BD0895992314F480E03F
:1009C00090E08F3F910519F014F08FEF90E0809345
:1009D0008900109288000895992314F480E090E033
:1009E0008F3F910519F014F08FEF90E080938B000A
:1009F00010928A00089584B5806A84BD84B58360AE
:100A000084BD85B5846085BDEEE6F0E080818160BF
:100A1000808378940895AF92BF92CF92DF92EF9245
:100A2000FF920F931F93A89B26C086B58F3F19F1A5
:100A300020915E0130915F01409160015091610110
:100A400060916201709163018091640190916501F0
:100A5000A1E00E94B30C20935E0130935F014093AC
:100A60006001509361016093620170936301809310
:100A7000640190936501A6B420915E0130915F01FD
:100A80004091600150916101609162017091630138
:100A9000809164019091650108E00E94910CB12C55
:100AA000C12CD12CE12CF12C00E010E00E94AA0C0A
:100AB000822F932FA42FB52F880F991FAA1FBB1F1A
:100AC000880F991FAA1FBB1FBC01CD01660F771F9E
:100AD000881F991F660F771F881F991F1F910F91FD
:100AE000FF90EF90DF90CF90BF90AF9008951F924E
:100AF0000F920FB60F9211242F933F934F935F9352
:100B00006F937F938F939F93AF9320915E0130916A
:100B10005F014091600150916101609162017091AB
:100B200063018091640190916501A1E00E94B30C82
:100B300020935E0130935F01409360015093610107
:100B400060936201709363018093640190936501E7
:100B5000AF919F918F917F916F915F914F913F9155
:100B60002F910F900FBE0F901F901895E0E8F0E0C6
:100B70008081806A80838081826080838FEF9FEF95
:100B80009093870080938600E1E8F0E0808188619F
:100B90008083808181608083EFE6F0E080818160E6
:100BA0008083789408951F920F920FB60F921124AC
:100BB000AF92BF92CF92DF92EF92FF920F931F936B
:100BC0002F933F934F935F936F937F938F939F9355
:100BD000AF93BF93EF93FF93209168013091690128
:100BE00040916A0150916B0160916C0170916D01AF
:100BF00080916E0190916F01A1E00E94B30C20934F
:100C000068013093690140936A0150936B016093CE
:100C10006C0170936D0180936E0190936F0181E080
:100C2000809367018093660120916801309169018A
:100C300040916A0150916B0160916C0170916D015E
:100C400080916E0190916F010F2EF8E8AF2EF02D7C
:100C50000F2EF9E0BF2EF02DC12CD12CE12CF12C60
:100C600000E010E00E94FB0BA0E00E94C80C79F4A9
:100C700082E00E94E0009F938F938AE191E09F932E
:100C80008F930E941F0F0F900F900F900F90FF9166
:100C9000EF91BF91AF919F918F917F916F915F91F4
:100CA0004F913F912F911F910F91FF90EF90DF9007
:100CB000CF90BF90AF900F900FBE0F901F901895E0
:100CC000E0ECF0E0908195FFFDCF8093C60080E0DE
:100CD00090E00895E0ECF0E080818823ECF78091CB
:100CE000C60090E008951092C50080E18093C40092
:100CF00088E18093C10086E08093C200E4E7F1E0E0
:100D00008CE091E0938382839183808308950E9495
:100D100073060E94D4000E94B6050E94FB0483E083
:100D20000E94470183E00E944F010895F8940E94B9
:100D300087068FEF84B982E68AB9789465EB7FEFF6
:100D400081E00E9409010E94FF0261327105810564
:100D50009105CCF360E070E081E00E9409012FEF83
:100D600083ED90E3215080409040E1F700C0000007
:100D70006BE470E081E00E9409010E94FF021616F8
:100D8000170618061906CCF360E070E081E00E94B7
:100D900009012FEF83ED90E3215080409040E1F76F
:100DA00000C00000CBCF0E94E7060C94D7070E943A
:100DB000D00758F00E94C90740F029F45F3F29F09E
:100DC0000C94C00751110C940B080C94C6070E9498
:100DD000E80768F39923B1F3552391F3951B550B5D
:100DE000BB27AA2762177307840738F09F5F5F4FFE
:100DF000220F331F441FAA1FA9F335D00E2E3AF03D
:100E0000E0E832D091505040E695001CCAF72BD054
:100E1000FE2F29D0660F771F881FBB1F26173707A5
:100E20004807AB07B0E809F0BB0B802DBF01FF27D7
:100E300093585F4F3AF09E3F510578F00C94C007ED
:100E40000C940B085F3FE4F3983ED4F386957795B6
:100E50006795B795F7959F5FC9F7880F911D969590
:100E6000879597F90895E1E0660F771F881FBB1FEC
:100E7000621773078407BA0720F0621B730B840B99
:100E8000BA0BEE1F88F7E0950895E89409C097FB28
:100E90003EF490958095709561957F4F8F4F9F4F51
:100EA0009923A9F0F92F96E9BB279395F695879595
:100EB00077956795B795F111F8CFFAF4BB0F11F458
:100EC00060FF1BC06F5F7F4F8F4F9F4F16C08823FF
:100ED00011F096E911C0772321F09EE8872F762F35
:100EE00005C0662371F096E8862F70E060E02AF076
:100EF0009A95660F771F881FDAF7880F9695879562
:100F000097F90895E894F92F96EBFF2381F01216D4
:100F100013061406440B9395F69587957795679578
:100F200057954040FF23B9F71BC0992708958823A0
:100F300051F49850D2F7872B762F652F542F432FDB
:100F4000322F20E0B1F3121613061406440B882347
:100F50003AF09A95440F551F661F771F881FCAF7EE
:100F600055234AF4440F551F11F460FF04C06F5F0E
:100F70007F4F8F4F9F4F880F9695879597F90895CC
:100F800097F99F6780E870E060E008959FEF80EC3C
:100F9000089500240A9416161706180609060895DF
:100FA00000240A9412161306140605060895092E45
:100FB0000394000C11F4882352F0BB0F40F4BF2BB4
:100FC00011F460FF04C06F5F7F4F8F4F9F4F0895F4
:100FD00057FD9058440F551F59F05F3F71F04795EA
:100FE000880F97FB991F61F09F3F79F087950895CF
:100FF000121613061406551FF2CF4695F1DF08C0EE
:10100000161617061806991FF1CF8695710561050A
:1010100008940895E894BB2766277727CB0197F9B2
:1010200008950E9424080C94D7070E94C90738F03D
:101030000E94D00720F0952311F00C94C0070C9467
:10104000C60711240C940B080E94E80770F3959FC3
:10105000C1F3950F50E0551F629FF001729FBB27AF
:10106000F00DB11D639FAA27F00DB11DAA1F649F4B
:101070006627B00DA11D661F829F2227B00DA11DFE
:10108000621F739FB00DA11D621F839FA00D611D84
:10109000221F749F3327A00D611D231F849F600DA5
:1010A000211D822F762F6A2F11249F5750409AF0CE
:1010B000F1F088234AF0EE0FFF1FBB1F661F771F5A
:1010C000881F91505040A9F79E3F510580F00C9425
:1010D000C0070C940B085F3FE4F3983ED4F3869569
:1010E00077956795B795F795E7959F5FC1F7FE2BC5
:1010F000880F911D9695879597F90895A0E1B0E026
:10110000E4E8F8E00C945A0C7C011B016A01FC0134
:1011100017821682838181FF44C39E012F5F3F4F58
:101120003901F7019381F10193FD859193FF81913D
:101130001F01882309F431C3853239F493FD859169
:1011400093FF81911F01853239F4B70190E00E942D
:10115000E30E56016501E5CF10E0512C912CFFE123
:10116000F915D8F08B3279F038F4803279F0833287
:10117000A1F4F92DF0612EC08D3261F0803369F455
:10118000292D21602DC0392D3260932E892D846048
:10119000982E2AC0E92DE86015C097FC2DC020EDDF
:1011A000280F2A3088F496FE06C03AE0139F200DDF
:1011B0001124122F19C08AE0589E200D1124522E9E
:1011C000E92DE0629E2E10C08E3231F496FCE5C20D
:1011D000F92DF0649F2E08C08C3621F4292D20684B
:1011E000922E02C0883641F4F10193FD859193FF60
:1011F00081911F018111B3CF9BEB980F933020F4A5
:10120000992D9061805E07C09BE9980F933008F09C
:1012100066C1992D9F7E96FF16E09F73992E8536A5
:1012200019F49064992E08C0863621F4392F30685D
:10123000932E02C01111115097FE07C01C3350F4B9
:1012400044244394410E27E00BC0183038F027E0C7
:1012500017E005C027E09CE3492E02C0212F412C56
:10126000560184E0A80EB11CF60160817181828173
:101270009381042DA3010E94F50D6C01F981FC8777
:10128000F0FF02C0F3FF06C091FC06C092FE06C04C
:1012900000E205C00DE203C00BE201C000E08C8556
:1012A0008C7019F001115AC29BC297FE10C04C0CF1
:1012B000FC85F4FF04C08A81813309F44A94141434
:1012C00074F528E0241578F588E0482E2CC096FCAB
:1012D0002AC0812F90E08C159D059CF03CEFC31631
:1012E0003FEFD30674F0892D8068982E0AC0E2E0A3
:1012F000F0E0EC0FFD1FE10FF11D8081803319F448
:1013000011501111F4CF97FE0EC044244394410EA6
:10131000812F90E0C816D9062CF41C1904C044246F
:10132000439401C010E097FE06C01C141D0434F461
:10133000C601019605C085E090E002C081E090E022
:1013400001110196112331F0212F30E02F5F3F4F23
:10135000820F931F252D30E08217930714F4581A3B
:1013600001C0512C892D897049F4552039F0B701FD
:1013700080E290E00E94E30E5A94F7CF002329F018
:10138000B701802F90E00E94E30E93FC09C0552026
:1013900039F0B70180E390E00E94E30E5A94F7CF52
:1013A00097FE4CC04601D7FE02C0812C912CC6018D
:1013B00088199909F301E80FF91FFE87ED87960157
:1013C00024193109388B2F87012F10E011950195D1
:1013D00011093FEF8316930629F4B7018EE290E0DE
:1013E0000E94E30EC814D9044CF08F8598898815A3
:1013F000990524F4ED85FE85818101C080E3F1E04B
:101400008F1A91082D853E852F5F3F4F3E872D8790
:10141000801691062CF0B70190E00E94E30ED9CF20
:10142000C814D90441F49A81963320F4953319F401
:101430003C8534FF81E3B70190E04EC08A8181335F
:1014400019F09C859F7E9C87B70190E00E94E30E77
:10145000111105C094FC18C085E690E017C0B701D3
:101460008EE290E00E94E30E1E5F82E001E0080F32
:10147000F301E80FF11D8081B70190E00E94E30EB7
:10148000802F0113F3CFE6CF85E490E0B7010E94EF
:10149000E30ED7FC06C0C114D10441F4EC85E4FF8F
:1014A00005C0D194C194D1088DE201C08BE2B7018F
:1014B00090E00E94E30E80E32AE0C216D1042CF0F3
:1014C0008F5FFAE0CF1AD108F7CFB70190E00E9402
:1014D000E30EB701C601C0960E94E30E54C18336E5
:1014E00031F0833779F0833509F056C020C05601BA
:1014F00032E0A30EB11CF6018081898301E010E087
:10150000630112C05601F2E0AF0EB11CF601C080BB
:10151000D18096FE03C0612F70E002C06FEF7FEFB5
:10152000C6010E94D80E8C01F92DFF7714C0560118
:1015300022E0A20EB11CF601C080D18096FE03C04D
:10154000612F70E002C06FEF7FEFC6010E94CD0EE9
:101550008C01F92DF0689F2EF3FD1AC0852D90E0C7
:1015600008171907A8F4B70180E290E00E94E30E83
:101570005A94F4CFF60197FC859197FE81916F0103
:10158000B70190E00E94E30E51105A9401501109E6
:101590000115110579F7F7C0843611F0893661F528
:1015A000560197FE09C024E0A20EB11CF60160812D
:1015B0007181828193810AC0F2E0AF0EB11CF60105
:1015C00060817181072E000C880B990BF92DFF7635
:1015D0009F2E97FF09C090958095709561957F4FDC
:1015E0008F4F9F4FF0689F2E2AE030E0A3010E94AA
:1015F000350FC82EC6183FC0092D853721F40F7E40
:101600002AE030E01DC0097F8F3691F018F488354C
:1016100059F0C3C0803719F0883711F0BEC000619F
:1016200004FF09C0046007C094FE08C0066006C03D
:1016300028E030E005C020E130E002C020E132E0E7
:10164000560107FF09C084E0A80EB11CF6016081B5
:1016500071818281938108C0F2E0AF0EB11CF60166
:101660006081718180E090E0A3010E94350FC82E57
:10167000C6180F77902E96FE0BC0092D0E7FC1164F
:1016800050F494FE0AC092FC08C0092D0E7E05C0DD
:10169000DC2C092D03C0DC2C01C0D12E04FF0DC0B1
:1016A000FE01EC0DF11D8081803311F4097E09C02B
:1016B00002FF06C0D394D39404C0802F867809F02B
:1016C000D39403FD11C000FF06C01C2DD51480F477
:1016D000150D1D190DC0D51458F4B70180E290E026
:1016E0000E94E30ED394F7CFD51410F45D1801C017
:1016F000512C04FF10C0B70180E390E00E94E30E7C
:1017000002FF17C001FD03C088E790E002C088E532
:1017100090E0B7010CC0802F867859F001FF02C01D
:101720008BE201C080E207FD8DE2B70190E00E94EC
:10173000E30EC11638F4B70180E390E00E94E30E97
:101740001150F7CFCA94F301EC0DF11D8081B70160
:1017500090E00E94E30EC110F5CF15C0F4E0F5153E
:1017600060F584E0581A93FE1FC0011127C02C8534
:1017700023FF2AC008E610E0392D3071932EF801BE
:101780008491811124C0552009F4E4CCB70180E292
:1017900090E00E94E30E5A94F6CFF701868197817C
:1017A00026C08FEF9FEF23C0B70180E290E00E9438
:1017B000E30E5A945110F8CFD8CF512CB701802F97
:1017C00090E00E94E30ED3CF0CE610E0D5CF91104D
:1017D0008052B70190E00E94E30E0F5F1F4FCFCF02
:1017E00023E0251510F483E0BDCF512CC0CF6096C7
:1017F000E2E10C94760C689401C0E8948F929F9279
:10180000CF93DF930E94090CDF91CF919F908F902F
:10181000089588249924F401E401B0E49F93AA2751
:101820009A158B049C04ED05FE05CF05D007A10792
:1018300098F4AD2FDC2FCF2FFE2FE92D982C892E79
:10184000982F872F762F652F542F432F322F222743
:10185000B85031F7BF9127C01B2EBF91BB27220F75
:10186000331F441F551F661F771F881F991F881C31
:10187000991CEE1FFF1FCC1FDD1FAA1FBB1F8A1460
:101880009B04EC05FD05CE05DF05A007B10748F078
:101890008A189B08EC09FD09CE09DF09A00BB10BE2
:1018A00021601A94E1F62EF49401AF01BE01CD013E
:1018B000000C08952F923F924F925F926F927F9209
:1018C0008F929F92AF92BF92CF92DF92EF92FF9250
:1018D0000F931F93CF93DF93CDB7DEB7CA1BDB0BFC
:1018E0000FB6F894DEBF0FBECDBF09942A883988A1
:1018F00048885F846E847D848C849B84AA84B984A8
:10190000C884DF80EE80FD800C811B81AA81B981B3
:10191000CE0FD11D0FB6F894DEBF0FBECDBFED01C7
:1019200008950F93083090F0982F872F762F652F0A
:10193000542F432F322F22270850F4CF220F331F6A
:10194000441F551F661F771F881F991F0A95B2F7FE
:101950000F9108952A0D3B1D4C1D5D1D6E1D7F1DB1
:10196000801F911F08950024A7FD00942A0F301DA9
:10197000401D501D601D701D801D901D08952A1969
:101980003B094C095D096E097F09800B910B089595
:101990000024A7FD00942A17300540055005600576
:1019A00070058005900508950F931F93CF93DF93E3
:1019B0008230910510F482E090E0E0917201F091A4
:1019C000730120E030E0A0E0B0E0309719F14081F1
:1019D00051810281138148175907C8F08417950770
:1019E00069F4109731F012960C93129713961C938A
:1019F00027C0009372011093730122C02115310595
:101A000019F04217530718F49A01BD01EF01DF01E5
:101A1000F801DBCF21153105F9F0281B390B2430F3
:101A2000310580F48A819B816115710521F0FB01EC
:101A30009383828304C09093730180937201FE01AB
:101A4000329644C0FE01E20FF31F8193919322501E
:101A50003109398328833AC0209170013091710196
:101A6000232B41F420910201309103013093710145
:101A70002093700120910001309101012115310561
:101A800041F42DB73EB74091040150910501241B4C
:101A9000350BE0917001F0917101E217F307A0F4AA
:101AA0002E1B3F0B2817390778F0AC014E5F5F4FB4
:101AB0002417350748F04E0F5F1F50937101409374
:101AC00070018193919302C0E0E0F0E0CF01DF91DB
:101AD000CF911F910F910895CF93DF93009709F451
:101AE00081C0FC01329713821282A0917201B091E1
:101AF0007301109781F420813181820F931F20910F
:101B00007001309171012817390751F5F093710177
:101B1000E093700167C0ED0120E030E0CE17DF07F1
:101B200040F44A815B819E0141155105F1F0EA01C3
:101B3000F5CFD383C28340815181840F951FC8178D
:101B4000D90759F488819981840F951F0296918352
:101B500080838A819B81938382832115310529F4B7
:101B6000F0937301E09372013DC0E901FB83EA83C6
:101B700049915991C40FD51FEC17FD0761F480817D
:101B80009181840F951F0296E90199838883828150
:101B900093819B838A83E0E0F0E012968D919C9183
:101BA0001397009719F0FD01DC01F7CF8D919C91FF
:101BB00011979D012E5F3F4F820F931F209170015F
:101BC000309171012817390769F4309729F4109280
:101BD00073011092720102C013821282B0937101DC
:101BE000A0937001DF91CF910895283008F027E08D
:101BF0003327DA01990F311D87FD91600096610549
:101C0000710539F432602E5F3D9330E32A95E1F798
:101C100008959F3F30F080387105610509F03C5F01
:101C20003C5F3D93913008F08068911DDF93CF9326
:101C30001F930F93FF92EF92192F987F9695E92F9C
:101C400096959695E90FFF27E653FF4F992733277F
:101C5000EE24FF24A701E70105900894079428F4D7
:101C6000360FE71EF81E491F511D660F771F881F8C
:101C7000991F0694A1F70590079428F4E70EF81E23
:101C8000491F561FC11D770F881F991F661F069495
:101C9000A1F70590079428F4F80E491F561FC71F97
:101CA000D11D880F991F661F771F0694A1F7059015
:101CB000079420F4490F561FC71FD81F990F661F9E
:101CC000771F881F0694A9F784911095177041F02B
:101CD000D695C79557954795F794E7941A95C1F708
:101CE000E0E7F0E068941590159135916591959134
:101CF00005907FE27395E118F10A430B560BC90B6F
:101D0000D009C0F7E10CF11E431F561FC91FD01D9B
:101D10007EF4703311F48A95E6CFE894015030F0E8
:101D2000080F0AF40027021708F4202F2395022F2A
:101D30007A3328F079E37D932A95E9F710C07D93F3
:101D40002A9589F606949795679537951795179470
:101D5000E118F10A430B560BC90BD00998F02395F3
:101D60007E9173957A3308F070E37C932013B8F773
:101D70007E9170617D9330F0839571E37D9370E384
:101D80002A95E1F71124EF90FF900F911F91CF91C9
:101D9000DF91992787FD90950895FC01059061508A
:101DA00070400110D8F7809590958E0F9F1F089571
:101DB000FC016150704001900110D8F7809590951A
:101DC0008E0F9F1F08950F931F93CF93DF93FB01F7
:101DD000238121FD03C08FEF9FEF2CC022FF16C08F
:101DE00046815781248135814217530744F4A081ED
:101DF000B1819D012F5F3F4F318320838C932681DA
:101E000037812F5F3F4F3783268314C08B01EC014E
:101E1000FB010084F185E02D0995892BE1F6D801BD
:101E200016968D919C911797019617969C938E9379
:101E30001697CE01DF91CF911F910F910895A0E0E9
:101E4000B0E0E5E2FFE00C946A0CAE014B5F5F4F3F
:101E5000FA0161917191AF018091760190917701C2
:101E60000E947E08E2E00C94860CFA01AA27283032
:101E700051F1203181F1E8946F936E7F6E5F7F4F57
:101E80008F4F9F4FAF4FB1E03ED0B4E03CD0670FD3
:101E9000781F891F9A1FA11D680F791F8A1F911D26
:101EA000A11D6A0F711D811D911DA11D20D009F476
:101EB00068943F912AE0269F11243019305D3193B8
:101EC000DEF6CF010895462F4770405D4193B3E0A1
:101ED0000FD0C9F7F6CF462F4F70405D4A3318F048
:101EE000495D31FD4052419302D0A9F7EACFB4E0F9
:101EF000A6959795879577956795BA95C9F70097B1
:101F00006105710508959B01AC010A2E0694579551
:101F1000479537952795BA95C9F7620F731F841FA8
:0A1F2000951FA01D0895F894FFCF4F
:101F2A0000007A012000FFFFFFFF0101000000030B
:101F3A000000000060066A0600003C6274723E25DA
:0A1F4A00643C2F6274723E0A00002E
:00000001FF
